{
  "_format": "hh-sol-artifact-1",
  "contractName": "MoneyFiReferral",
  "sourceName": "contracts/MoneyFiReferral.sol",
  "abi": [
    {
      "inputs": [],
      "stateMutability": "nonpayable",
      "type": "constructor"
    },
    {
      "inputs": [],
      "name": "AccessControlBadConfirmation",
      "type": "error"
    },
    {
      "inputs": [
        {
          "internalType": "address",
          "name": "account",
          "type": "address"
        },
        {
          "internalType": "bytes32",
          "name": "neededRole",
          "type": "bytes32"
        }
      ],
      "name": "AccessControlUnauthorizedAccount",
      "type": "error"
    },
    {
      "inputs": [],
      "name": "EnforcedPause",
      "type": "error"
    },
    {
      "inputs": [],
      "name": "ExpectedPause",
      "type": "error"
    },
    {
      "inputs": [],
      "name": "InsufficientBalance",
      "type": "error"
    },
    {
      "inputs": [],
      "name": "InvalidAdminRole",
      "type": "error"
    },
    {
      "inputs": [],
      "name": "InvalidAtLeastOperatorRole",
      "type": "error"
    },
    {
      "inputs": [],
      "name": "InvalidDelegateRole",
      "type": "error"
    },
    {
      "inputs": [],
      "name": "InvalidInitialization",
      "type": "error"
    },
    {
      "inputs": [
        {
          "internalType": "bytes",
          "name": "_signature",
          "type": "bytes"
        }
      ],
      "name": "InvalidSignature",
      "type": "error"
    },
    {
      "inputs": [],
      "name": "InvalidSignerRole",
      "type": "error"
    },
    {
      "inputs": [],
      "name": "NotInitializing",
      "type": "error"
    },
    {
      "inputs": [],
      "name": "ReentrancyGuardReentrantCall",
      "type": "error"
    },
    {
      "inputs": [],
      "name": "RequiredAddressNotNull",
      "type": "error"
    },
    {
      "inputs": [
        {
          "internalType": "address",
          "name": "token",
          "type": "address"
        }
      ],
      "name": "SafeERC20FailedOperation",
      "type": "error"
    },
    {
      "anonymous": false,
      "inputs": [
        {
          "indexed": false,
          "internalType": "uint256",
          "name": "amount",
          "type": "uint256"
        },
        {
          "indexed": false,
          "internalType": "address",
          "name": "from",
          "type": "address"
        },
        {
          "indexed": false,
          "internalType": "address",
          "name": "to",
          "type": "address"
        },
        {
          "indexed": false,
          "internalType": "uint256",
          "name": "claimAt",
          "type": "uint256"
        }
      ],
      "name": "Claim",
      "type": "event"
    },
    {
      "anonymous": false,
      "inputs": [
        {
          "indexed": false,
          "internalType": "uint64",
          "name": "version",
          "type": "uint64"
        }
      ],
      "name": "Initialized",
      "type": "event"
    },
    {
      "anonymous": false,
      "inputs": [
        {
          "indexed": false,
          "internalType": "address",
          "name": "account",
          "type": "address"
        }
      ],
      "name": "Paused",
      "type": "event"
    },
    {
      "anonymous": false,
      "inputs": [
        {
          "indexed": true,
          "internalType": "bytes32",
          "name": "role",
          "type": "bytes32"
        },
        {
          "indexed": true,
          "internalType": "bytes32",
          "name": "previousAdminRole",
          "type": "bytes32"
        },
        {
          "indexed": true,
          "internalType": "bytes32",
          "name": "newAdminRole",
          "type": "bytes32"
        }
      ],
      "name": "RoleAdminChanged",
      "type": "event"
    },
    {
      "anonymous": false,
      "inputs": [
        {
          "indexed": true,
          "internalType": "bytes32",
          "name": "role",
          "type": "bytes32"
        },
        {
          "indexed": true,
          "internalType": "address",
          "name": "account",
          "type": "address"
        },
        {
          "indexed": true,
          "internalType": "address",
          "name": "sender",
          "type": "address"
        }
      ],
      "name": "RoleGranted",
      "type": "event"
    },
    {
      "anonymous": false,
      "inputs": [
        {
          "indexed": true,
          "internalType": "bytes32",
          "name": "role",
          "type": "bytes32"
        },
        {
          "indexed": true,
          "internalType": "address",
          "name": "account",
          "type": "address"
        },
        {
          "indexed": true,
          "internalType": "address",
          "name": "sender",
          "type": "address"
        }
      ],
      "name": "RoleRevoked",
      "type": "event"
    },
    {
      "anonymous": false,
      "inputs": [
        {
          "indexed": false,
          "internalType": "address",
          "name": "account",
          "type": "address"
        }
      ],
      "name": "Unpaused",
      "type": "event"
    },
    {
      "anonymous": false,
      "inputs": [
        {
          "indexed": false,
          "internalType": "address",
          "name": "receiver",
          "type": "address"
        },
        {
          "indexed": false,
          "internalType": "uint256",
          "name": "amount",
          "type": "uint256"
        },
        {
          "indexed": false,
          "internalType": "uint256",
          "name": "withdrawAt",
          "type": "uint256"
        }
      ],
      "name": "Withdraw",
      "type": "event"
    },
    {
      "inputs": [],
      "name": "ADMIN_DELEGATE_ROLE",
      "outputs": [
        {
          "internalType": "bytes32",
          "name": "",
          "type": "bytes32"
        }
      ],
      "stateMutability": "view",
      "type": "function"
    },
    {
      "inputs": [],
      "name": "ADMIN_ROLE",
      "outputs": [
        {
          "internalType": "bytes32",
          "name": "",
          "type": "bytes32"
        }
      ],
      "stateMutability": "view",
      "type": "function"
    },
    {
      "inputs": [],
      "name": "DEFAULT_ADMIN_ROLE",
      "outputs": [
        {
          "internalType": "bytes32",
          "name": "",
          "type": "bytes32"
        }
      ],
      "stateMutability": "view",
      "type": "function"
    },
    {
      "inputs": [],
      "name": "OPERATOR",
      "outputs": [
        {
          "internalType": "bytes32",
          "name": "",
          "type": "bytes32"
        }
      ],
      "stateMutability": "view",
      "type": "function"
    },
    {
      "inputs": [],
      "name": "SIGNER",
      "outputs": [
        {
          "internalType": "bytes32",
          "name": "",
          "type": "bytes32"
        }
      ],
      "stateMutability": "view",
      "type": "function"
    },
    {
      "inputs": [
        {
          "internalType": "uint256",
          "name": "_amount",
          "type": "uint256"
        },
        {
          "internalType": "bytes",
          "name": "_signature",
          "type": "bytes"
        }
      ],
      "name": "claim",
      "outputs": [],
      "stateMutability": "nonpayable",
      "type": "function"
    },
    {
      "inputs": [
        {
          "internalType": "uint256",
          "name": "_amount",
          "type": "uint256"
        }
      ],
      "name": "deposit",
      "outputs": [],
      "stateMutability": "nonpayable",
      "type": "function"
    },
    {
      "inputs": [
        {
          "internalType": "bytes32",
          "name": "role",
          "type": "bytes32"
        }
      ],
      "name": "getRoleAdmin",
      "outputs": [
        {
          "internalType": "bytes32",
          "name": "",
          "type": "bytes32"
        }
      ],
      "stateMutability": "view",
      "type": "function"
    },
    {
      "inputs": [
        {
          "internalType": "bytes32",
          "name": "role",
          "type": "bytes32"
        },
        {
          "internalType": "uint256",
          "name": "index",
          "type": "uint256"
        }
      ],
      "name": "getRoleMember",
      "outputs": [
        {
          "internalType": "address",
          "name": "",
          "type": "address"
        }
      ],
      "stateMutability": "view",
      "type": "function"
    },
    {
      "inputs": [
        {
          "internalType": "bytes32",
          "name": "role",
          "type": "bytes32"
        }
      ],
      "name": "getRoleMemberCount",
      "outputs": [
        {
          "internalType": "uint256",
          "name": "",
          "type": "uint256"
        }
      ],
      "stateMutability": "view",
      "type": "function"
    },
    {
      "inputs": [
        {
          "internalType": "bytes32",
          "name": "role",
          "type": "bytes32"
        }
      ],
      "name": "getRoleMembers",
      "outputs": [
        {
          "internalType": "address[]",
          "name": "",
          "type": "address[]"
        }
      ],
      "stateMutability": "view",
      "type": "function"
    },
    {
      "inputs": [
        {
          "internalType": "bytes32",
          "name": "role",
          "type": "bytes32"
        },
        {
          "internalType": "address",
          "name": "account",
          "type": "address"
        }
      ],
      "name": "grantRole",
      "outputs": [],
      "stateMutability": "nonpayable",
      "type": "function"
    },
    {
      "inputs": [
        {
          "internalType": "bytes32",
          "name": "role",
          "type": "bytes32"
        },
        {
          "internalType": "address",
          "name": "account",
          "type": "address"
        }
      ],
      "name": "hasRole",
      "outputs": [
        {
          "internalType": "bool",
          "name": "",
          "type": "bool"
        }
      ],
      "stateMutability": "view",
      "type": "function"
    },
    {
      "inputs": [
        {
          "internalType": "address",
          "name": "signer_",
          "type": "address"
        },
        {
          "internalType": "address",
          "name": "remainTo_",
          "type": "address"
        },
        {
          "internalType": "address",
          "name": "admin_",
          "type": "address"
        },
        {
          "internalType": "address",
          "name": "token_",
          "type": "address"
        }
      ],
      "name": "initialize",
      "outputs": [],
      "stateMutability": "nonpayable",
      "type": "function"
    },
    {
      "inputs": [],
      "name": "isActive",
      "outputs": [
        {
          "internalType": "bool",
          "name": "",
          "type": "bool"
        }
      ],
      "stateMutability": "view",
      "type": "function"
    },
    {
      "inputs": [
        {
          "internalType": "address",
          "name": "_sender",
          "type": "address"
        }
      ],
      "name": "isAdmin",
      "outputs": [
        {
          "internalType": "bool",
          "name": "",
          "type": "bool"
        }
      ],
      "stateMutability": "view",
      "type": "function"
    },
    {
      "inputs": [
        {
          "internalType": "address",
          "name": "_sender",
          "type": "address"
        }
      ],
      "name": "isDelegateAdmin",
      "outputs": [
        {
          "internalType": "bool",
          "name": "",
          "type": "bool"
        }
      ],
      "stateMutability": "view",
      "type": "function"
    },
    {
      "inputs": [
        {
          "internalType": "address",
          "name": "_sender",
          "type": "address"
        }
      ],
      "name": "isOperator",
      "outputs": [
        {
          "internalType": "bool",
          "name": "",
          "type": "bool"
        }
      ],
      "stateMutability": "view",
      "type": "function"
    },
    {
      "inputs": [
        {
          "internalType": "address",
          "name": "_sender",
          "type": "address"
        }
      ],
      "name": "isSigner",
      "outputs": [
        {
          "internalType": "bool",
          "name": "",
          "type": "bool"
        }
      ],
      "stateMutability": "view",
      "type": "function"
    },
    {
      "inputs": [],
      "name": "nonce",
      "outputs": [
        {
          "internalType": "uint256",
          "name": "",
          "type": "uint256"
        }
      ],
      "stateMutability": "view",
      "type": "function"
    },
    {
      "inputs": [],
      "name": "pause",
      "outputs": [],
      "stateMutability": "nonpayable",
      "type": "function"
    },
    {
      "inputs": [],
      "name": "paused",
      "outputs": [
        {
          "internalType": "bool",
          "name": "",
          "type": "bool"
        }
      ],
      "stateMutability": "view",
      "type": "function"
    },
    {
      "inputs": [],
      "name": "remainTo",
      "outputs": [
        {
          "internalType": "address",
          "name": "",
          "type": "address"
        }
      ],
      "stateMutability": "view",
      "type": "function"
    },
    {
      "inputs": [
        {
          "internalType": "bytes32",
          "name": "role",
          "type": "bytes32"
        },
        {
          "internalType": "address",
          "name": "callerConfirmation",
          "type": "address"
        }
      ],
      "name": "renounceRole",
      "outputs": [],
      "stateMutability": "nonpayable",
      "type": "function"
    },
    {
      "inputs": [
        {
          "internalType": "bytes32",
          "name": "role",
          "type": "bytes32"
        },
        {
          "internalType": "address",
          "name": "account",
          "type": "address"
        }
      ],
      "name": "revokeRole",
      "outputs": [],
      "stateMutability": "nonpayable",
      "type": "function"
    },
    {
      "inputs": [
        {
          "internalType": "address",
          "name": "_signer",
          "type": "address"
        }
      ],
      "name": "setSigner",
      "outputs": [],
      "stateMutability": "nonpayable",
      "type": "function"
    },
    {
      "inputs": [],
      "name": "signer",
      "outputs": [
        {
          "internalType": "address",
          "name": "",
          "type": "address"
        }
      ],
      "stateMutability": "view",
      "type": "function"
    },
    {
      "inputs": [
        {
          "internalType": "bytes4",
          "name": "interfaceId",
          "type": "bytes4"
        }
      ],
      "name": "supportsInterface",
      "outputs": [
        {
          "internalType": "bool",
          "name": "",
          "type": "bool"
        }
      ],
      "stateMutability": "view",
      "type": "function"
    },
    {
      "inputs": [],
      "name": "token",
      "outputs": [
        {
          "internalType": "contract IERC20",
          "name": "",
          "type": "address"
        }
      ],
      "stateMutability": "view",
      "type": "function"
    },
    {
      "inputs": [],
      "name": "unpause",
      "outputs": [],
      "stateMutability": "nonpayable",
      "type": "function"
    },
    {
      "inputs": [
        {
          "internalType": "uint256",
          "name": "_amount",
          "type": "uint256"
        }
      ],
      "name": "withdraw",
      "outputs": [],
      "stateMutability": "nonpayable",
      "type": "function"
    }
  ],
  "bytecode": "0x6080604052348015600e575f80fd5b5060156019565b60c9565b7ff0c57e16840df040f15088dc2f81fe391c3923bec73e23a9662efc9c229c6a00805468010000000000000000900460ff161560685760405163f92ee8a960e01b815260040160405180910390fd5b80546001600160401b039081161460c65780546001600160401b0319166001600160401b0390811782556040519081527fc7f505b2f371ae2175ee4913f4499e1f2633a7b5936321eed1cdaeb6115181d29060200160405180910390a15b50565b611aa2806100d65f395ff3fe608060405234801561000f575f80fd5b50600436106101dc575f3560e01c80636d70f7ae11610109578063a217fddf1161009e578063ca15c8731161006e578063ca15c87314610400578063d547741f14610413578063f8c8765e14610426578063fc0c546a14610439575f80fd5b8063a217fddf146103bd578063a3246ad3146103c4578063affed0e0146103e4578063b6b55f25146103ed575f80fd5b80639010d07c116100d95780639010d07c1461037057806391d1485414610383578063983d273714610396578063a16a95f3146103aa575f80fd5b80636d70f7ae1461032e57806375b238fc146103415780637df73e27146103555780638456cb5914610368575f80fd5b80632f2ff15d1161017f578063489748f31161014f578063489748f3146102dd578063582abd12146102f05780635c975abb146103045780636c19e7831461031b575f80fd5b80632f2ff15d1461029c57806336568abe146102af57806338926b6d146102c25780633f4ba83a146102d5575f80fd5b8063238ac933116101ba578063238ac93314610237578063248a9ca31461026157806324d7806c146102745780632e1a7d4d14610287575f80fd5b806301ffc9a7146101e05780630952ff541461020857806322f3e2d41461022a575b5f80fd5b6101f36101ee366004611643565b610451565b60405190151581526020015b60405180910390f35b61021c5f805160206119ad83398151915281565b6040519081526020016101ff565b6003546101f39060ff1681565b5f54610249906001600160a01b031681565b6040516001600160a01b0390911681526020016101ff565b61021c61026f36600461166a565b61047b565b6101f361028236600461169c565b61049b565b61029a61029536600461166a565b6104b3565b005b61029a6102aa3660046116b5565b6105f5565b61029a6102bd3660046116b5565b610617565b61029a6102d03660046116f3565b61064f565b61029a610854565b600154610249906001600160a01b031681565b61021c5f8051602061196d83398151915281565b5f80516020611a2d8339815191525460ff166101f3565b61029a61032936600461169c565b610891565b6101f361033c36600461169c565b6108ff565b61021c5f805160206119cd83398151915281565b6101f361036336600461169c565b610917565b61029a61092f565b61024961037e3660046117b0565b610967565b6101f36103913660046116b5565b610994565b61021c5f805160206119ed83398151915281565b6101f36103b836600461169c565b6109ca565b61021c5f81565b6103d76103d236600461166a565b6109e2565b6040516101ff91906117d0565b61021c60025481565b61029a6103fb36600461166a565b610a12565b61021c61040e36600461166a565b610a2f565b61029a6104213660046116b5565b610a53565b61029a61043436600461181b565b610a6f565b6003546102499061010090046001600160a01b031681565b5f6001600160e01b03198216635a05180f60e01b1480610475575061047582610bcc565b92915050565b5f9081525f80516020611a0d833981519152602052604090206001015490565b5f6104755f805160206119cd83398151915283610994565b6104bb610c00565b6104c4336109ca565b6104e15760405163dade674960e01b815260040160405180910390fd5b6003546040516370a0823160e01b8152306004820152829161010090046001600160a01b0316906370a0823190602401602060405180830381865afa15801561052c573d5f803e3d5ffd5b505050506040513d601f19601f82011682018060405250810190610550919061186c565b101561056f57604051631e9acf1760e31b815260040160405180910390fd5b600154600354610591916001600160a01b036101009092048216911683610c37565b600154604080516001600160a01b039092168252602082018390524282820152517ff279e6a1f5e320cca91135676d9cb6e44ca8a08c0b88342bcdb1144f6511b5689181900360600190a16105f260015f80516020611a4d83398151915255565b50565b6105fe8261047b565b61060781610ca9565b6106118383610cb3565b50505050565b6001600160a01b03811633146106405760405163334bd91960e11b815260040160405180910390fd5b61064a8282610cf5565b505050565b610657610d2e565b61065f610c00565b5f805460028054339392610709926001600160a01b0390911691908461068483611897565b909155506040516bffffffffffffffffffffffff19606093841b8116602083015260348201929092529185901b16605482015260688101869052608801604051602081830303815290604052805190602001207f19457468657265756d205369676e6564204d6573736167653a0a3332000000005f908152601c91909152603c902090565b5f54909150610722906001600160a01b03168285610d5e565b61074a57826040516302adfdc360e41b815260040161074191906118dd565b60405180910390fd5b6003546040516370a0823160e01b8152306004820152859161010090046001600160a01b0316906370a0823190602401602060405180830381865afa158015610795573d5f803e3d5ffd5b505050506040513d601f19601f820116820180604052508101906107b9919061186c565b10156107d857604051631e9acf1760e31b815260040160405180910390fd5b6003546107f49061010090046001600160a01b03168386610c37565b60408051858152306020820152338183015242606082015290517fa27580a77a01c86ee8598d930ae5f9a0ec6f146c6e0e9e9f50b95bacb33787189181900360800190a1505061085060015f80516020611a4d83398151915255565b5050565b61085d336109ca565b61087a5760405163dade674960e01b815260040160405180910390fd5b6003805460ff1916600117905561088f610dc7565b565b61089a336109ca565b6108b75760405163dade674960e01b815260040160405180910390fd5b6001600160a01b0381166108de5760405163706e379b60e11b815260040160405180910390fd5b5f80546001600160a01b0319166001600160a01b0392909216919091179055565b5f6104755f805160206119ed83398151915283610994565b5f6104755f8051602061196d83398151915283610994565b610938336109ca565b6109555760405163dade674960e01b815260040160405180910390fd5b6003805460ff1916905561088f610e26565b5f8281525f8051602061198d83398151915260208190526040822061098c9084610e6e565b949350505050565b5f9182525f80516020611a0d833981519152602090815260408084206001600160a01b0393909316845291905290205460ff1690565b5f6104755f805160206119ad83398151915283610994565b5f8181525f8051602061198d8339815191526020819052604090912060609190610a0b90610e79565b9392505050565b6003546105f29061010090046001600160a01b0316333084610e85565b5f8181525f8051602061198d833981519152602081905260408220610a0b90610ebe565b610a5c8261047b565b610a6581610ca9565b6106118383610cf5565b5f610a78610ec7565b805490915060ff600160401b820416159067ffffffffffffffff165f81158015610a9f5750825b90505f8267ffffffffffffffff166001148015610abb5750303b155b905081158015610ac9575080155b15610ae75760405163f92ee8a960e01b815260040160405180910390fd5b845467ffffffffffffffff191660011785558315610b1157845460ff60401b1916600160401b1785555b610b19610eef565b610b21610ef7565b610b2a87610f07565b5f80546001600160a01b03199081166001600160a01b038c811691909117909255600180549091168a8316178155600380546001600160a81b031916610100938a169390930260ff1916929092171790558315610bc157845460ff60401b19168555604051600181527fc7f505b2f371ae2175ee4913f4499e1f2633a7b5936321eed1cdaeb6115181d29060200160405180910390a15b505050505050505050565b5f6001600160e01b03198216637965db0b60e01b148061047557506301ffc9a760e01b6001600160e01b0319831614610475565b5f80516020611a4d833981519152805460011901610c3157604051633ee5aeb560e01b815260040160405180910390fd5b60029055565b6040516001600160a01b0383811660248301526044820183905261064a91859182169063a9059cbb906064015b604051602081830303815290604052915060e01b6020820180516001600160e01b038381831617835250505050610ffa565b60015f80516020611a4d83398151915255565b6105f28133611066565b5f5f8051602061198d83398151915281610ccd858561109f565b9050801561098c575f858152602083905260409020610cec9085611140565b50949350505050565b5f5f8051602061198d83398151915281610d0f8585611154565b9050801561098c575f858152602083905260409020610cec90856111cd565b5f80516020611a2d8339815191525460ff161561088f5760405163d93c066560e01b815260040160405180910390fd5b5f836001600160a01b03163b5f03610dbc575f80610d7c85856111e1565b5090925090505f816003811115610d9557610d956118ef565b148015610db35750856001600160a01b0316826001600160a01b0316145b92505050610a0b565b61098c84848461122a565b610dcf611301565b5f80516020611a2d833981519152805460ff191681557f5db9ee0a495bf2e6ff9c91a7834c1ba4fdd244a5e8aa4e537bd38aeae4b073aa335b6040516001600160a01b03909116815260200160405180910390a150565b610e2e610d2e565b5f80516020611a2d833981519152805460ff191660011781557f62e78cea01bee320cd4e420270b5ea74000d11b0c9f74754ebdbfc544b05a25833610e08565b5f610a0b8383611330565b60605f610a0b83611356565b6040516001600160a01b0384811660248301528381166044830152606482018390526106119186918216906323b872dd90608401610c64565b5f610475825490565b5f807ff0c57e16840df040f15088dc2f81fe391c3923bec73e23a9662efc9c229c6a00610475565b61088f6113af565b610eff6113af565b61088f6113d4565b610f0f6113af565b610f17610eef565b610f2e5f805160206119ed83398151915282610cb3565b50610f465f805160206119cd83398151915282610cb3565b50610f5e5f805160206119ad83398151915282610cb3565b50610f765f8051602061196d83398151915282610cb3565b50610f8e5f805160206119cd833981519152806113dc565b610fb25f805160206119ad8339815191525f805160206119cd8339815191526113dc565b610fd65f805160206119ed8339815191525f805160206119ad8339815191526113dc565b6105f25f8051602061196d8339815191525f805160206119ad8339815191526113dc565b5f8060205f8451602086015f885af180611019576040513d5f823e3d81fd5b50505f513d9150811561103057806001141561103d565b6001600160a01b0384163b155b1561061157604051635274afe760e01b81526001600160a01b0385166004820152602401610741565b6110708282610994565b6108505760405163e2517d3f60e01b81526001600160a01b038216600482015260248101839052604401610741565b5f5f80516020611a0d8339815191526110b88484610994565b611137575f848152602082815260408083206001600160a01b03871684529091529020805460ff191660011790556110ed3390565b6001600160a01b0316836001600160a01b0316857f2f8788117e7eff1d82e926ec794901d17c78024a50270940304540a733656f0d60405160405180910390a46001915050610475565b5f915050610475565b5f610a0b836001600160a01b03841661143c565b5f5f80516020611a0d83398151915261116d8484610994565b15611137575f848152602082815260408083206001600160a01b0387168085529252808320805460ff1916905551339287917ff6391f5c32d9c69d2a47ea670b442974b53935d1edc7fd64eb21e047a839171b9190a46001915050610475565b5f610a0b836001600160a01b038416611488565b5f805f8351604103611218576020840151604085015160608601515f1a61120a88828585611562565b955095509550505050611223565b505081515f91506002905b9250925092565b5f805f856001600160a01b0316858560405160240161124a929190611903565b60408051601f198184030181529181526020820180516001600160e01b0316630b135d3f60e11b1790525161127f919061191b565b5f60405180830381855afa9150503d805f81146112b7576040519150601f19603f3d011682016040523d82523d5f602084013e6112bc565b606091505b50915091508180156112d057506020815110155b80156112f757508051630b135d3f60e11b906112f5908301602090810190840161186c565b145b9695505050505050565b5f80516020611a2d8339815191525460ff1661088f57604051638dfc202b60e01b815260040160405180910390fd5b5f825f01828154811061134557611345611931565b905f5260205f200154905092915050565b6060815f018054806020026020016040519081016040528092919081815260200182805480156113a357602002820191905f5260205f20905b81548152602001906001019080831161138f575b50505050509050919050565b6113b761162a565b61088f57604051631afcd79f60e31b815260040160405180910390fd5b610c966113af565b5f80516020611a0d8339815191525f6113f48461047b565b5f85815260208490526040808220600101869055519192508491839187917fbd79b86ffe0ab8e8776151514217cd7cacd52c909f66475c3af44e129f0b00ff9190a450505050565b5f81815260018301602052604081205461148157508154600181810184555f848152602080822090930184905584548482528286019093526040902091909155610475565b505f610475565b5f8181526001830160205260408120548015611137575f6114aa600183611945565b85549091505f906114bd90600190611945565b905080821461151c575f865f0182815481106114db576114db611931565b905f5260205f200154905080875f0184815481106114fb576114fb611931565b5f918252602080832090910192909255918252600188019052604090208390555b855486908061152d5761152d611958565b600190038181905f5260205f20015f90559055856001015f8681526020019081526020015f205f905560019350505050610475565b5f80807f7fffffffffffffffffffffffffffffff5d576e7357a4501ddfe92f46681b20a084111561159b57505f91506003905082611620565b604080515f808252602082018084528a905260ff891692820192909252606081018790526080810186905260019060a0016020604051602081039080840390855afa1580156115ec573d5f803e3d5ffd5b5050604051601f1901519150506001600160a01b03811661161757505f925060019150829050611620565b92505f91508190505b9450945094915050565b5f611633610ec7565b54600160401b900460ff16919050565b5f60208284031215611653575f80fd5b81356001600160e01b031981168114610a0b575f80fd5b5f6020828403121561167a575f80fd5b5035919050565b80356001600160a01b0381168114611697575f80fd5b919050565b5f602082840312156116ac575f80fd5b610a0b82611681565b5f80604083850312156116c6575f80fd5b823591506116d660208401611681565b90509250929050565b634e487b7160e01b5f52604160045260245ffd5b5f8060408385031215611704575f80fd5b82359150602083013567ffffffffffffffff811115611721575f80fd5b8301601f81018513611731575f80fd5b803567ffffffffffffffff81111561174b5761174b6116df565b604051601f8201601f19908116603f0116810167ffffffffffffffff8111828210171561177a5761177a6116df565b604052818152828201602001871015611791575f80fd5b816020840160208301375f602083830101528093505050509250929050565b5f80604083850312156117c1575f80fd5b50508035926020909101359150565b602080825282518282018190525f918401906040840190835b818110156118105783516001600160a01b03168352602093840193909201916001016117e9565b509095945050505050565b5f805f806080858703121561182e575f80fd5b61183785611681565b935061184560208601611681565b925061185360408601611681565b915061186160608601611681565b905092959194509250565b5f6020828403121561187c575f80fd5b5051919050565b634e487b7160e01b5f52601160045260245ffd5b5f600182016118a8576118a8611883565b5060010190565b5f81518084528060208401602086015e5f602082860101526020601f19601f83011685010191505092915050565b602081525f610a0b60208301846118af565b634e487b7160e01b5f52602160045260245ffd5b828152604060208201525f61098c60408301846118af565b5f82518060208501845e5f920191825250919050565b634e487b7160e01b5f52603260045260245ffd5b8181038181111561047557610475611883565b634e487b7160e01b5f52603160045260245ffdfe6c8d7f768a6bb4aafe85e8a2f5a9680355239c7e14646ed62b044e39de154512c1f6fe24621ce81ec5827caf0253cadb74709b061630e6b55e82371705932000c171260023d22a25a00a2789664c9334017843b831138c8ef03cc8897e5873d7f23ec0bb4210edd5cba85afd05127efcd2fc6a781bfed49188da1081670b22d846a52cf33029de9f84853745a87af28464c80bf0346df1b32e205fc73319f62202dd7bc7dec4dceedda775e58dd541e08a116c6c53815c0bd028192f7b626800cd5ed15c6e187e77e9aee88184c21f4f2182ab5827cb3b7e07fbedcd63f033009b779b17422d0df92223018b32b4d1fa46e071723d6817e2486d003becc55f00a2646970667358221220f9ab86d1c6bb50f70d6a9e0112b08ad45a8330fc97f5db8bd01c87e235b5e9f864736f6c634300081a0033",
  "linkReferences": {},
  "deployedLinkReferences": {}
}