{
  "_format": "hh-sol-artifact-1",
  "contractName": "MoneyFiTokenLp",
  "sourceName": "contracts/tokens/MoneyFiTokenLp.sol",
  "abi": [
    {
      "inputs": [],
      "stateMutability": "nonpayable",
      "type": "constructor"
    },
    {
      "inputs": [],
      "name": "AccessControlBadConfirmation",
      "type": "error"
    },
    {
      "inputs": [
        {
          "internalType": "address",
          "name": "account",
          "type": "address"
        },
        {
          "internalType": "bytes32",
          "name": "neededRole",
          "type": "bytes32"
        }
      ],
      "name": "AccessControlUnauthorizedAccount",
      "type": "error"
    },
    {
      "inputs": [
        {
          "internalType": "address",
          "name": "target",
          "type": "address"
        }
      ],
      "name": "AddressEmptyCode",
      "type": "error"
    },
    {
      "inputs": [
        {
          "internalType": "address",
          "name": "implementation",
          "type": "address"
        }
      ],
      "name": "ERC1967InvalidImplementation",
      "type": "error"
    },
    {
      "inputs": [],
      "name": "ERC1967NonPayable",
      "type": "error"
    },
    {
      "inputs": [
        {
          "internalType": "address",
          "name": "spender",
          "type": "address"
        },
        {
          "internalType": "uint256",
          "name": "allowance",
          "type": "uint256"
        },
        {
          "internalType": "uint256",
          "name": "needed",
          "type": "uint256"
        }
      ],
      "name": "ERC20InsufficientAllowance",
      "type": "error"
    },
    {
      "inputs": [
        {
          "internalType": "address",
          "name": "sender",
          "type": "address"
        },
        {
          "internalType": "uint256",
          "name": "balance",
          "type": "uint256"
        },
        {
          "internalType": "uint256",
          "name": "needed",
          "type": "uint256"
        }
      ],
      "name": "ERC20InsufficientBalance",
      "type": "error"
    },
    {
      "inputs": [
        {
          "internalType": "address",
          "name": "approver",
          "type": "address"
        }
      ],
      "name": "ERC20InvalidApprover",
      "type": "error"
    },
    {
      "inputs": [
        {
          "internalType": "address",
          "name": "receiver",
          "type": "address"
        }
      ],
      "name": "ERC20InvalidReceiver",
      "type": "error"
    },
    {
      "inputs": [
        {
          "internalType": "address",
          "name": "sender",
          "type": "address"
        }
      ],
      "name": "ERC20InvalidSender",
      "type": "error"
    },
    {
      "inputs": [
        {
          "internalType": "address",
          "name": "spender",
          "type": "address"
        }
      ],
      "name": "ERC20InvalidSpender",
      "type": "error"
    },
    {
      "inputs": [],
      "name": "FailedCall",
      "type": "error"
    },
    {
      "inputs": [],
      "name": "InvalidAdminRole",
      "type": "error"
    },
    {
      "inputs": [],
      "name": "InvalidAtLeastOperatorRole",
      "type": "error"
    },
    {
      "inputs": [],
      "name": "InvalidDelegateRole",
      "type": "error"
    },
    {
      "inputs": [],
      "name": "InvalidFundVault",
      "type": "error"
    },
    {
      "inputs": [],
      "name": "InvalidInitialization",
      "type": "error"
    },
    {
      "inputs": [],
      "name": "InvalidSignerRole",
      "type": "error"
    },
    {
      "inputs": [],
      "name": "NotInitializing",
      "type": "error"
    },
    {
      "inputs": [],
      "name": "UUPSUnauthorizedCallContext",
      "type": "error"
    },
    {
      "inputs": [
        {
          "internalType": "bytes32",
          "name": "slot",
          "type": "bytes32"
        }
      ],
      "name": "UUPSUnsupportedProxiableUUID",
      "type": "error"
    },
    {
      "anonymous": false,
      "inputs": [
        {
          "indexed": true,
          "internalType": "address",
          "name": "owner",
          "type": "address"
        },
        {
          "indexed": true,
          "internalType": "address",
          "name": "spender",
          "type": "address"
        },
        {
          "indexed": false,
          "internalType": "uint256",
          "name": "value",
          "type": "uint256"
        }
      ],
      "name": "Approval",
      "type": "event"
    },
    {
      "anonymous": false,
      "inputs": [
        {
          "indexed": false,
          "internalType": "uint64",
          "name": "version",
          "type": "uint64"
        }
      ],
      "name": "Initialized",
      "type": "event"
    },
    {
      "anonymous": false,
      "inputs": [
        {
          "indexed": true,
          "internalType": "bytes32",
          "name": "role",
          "type": "bytes32"
        },
        {
          "indexed": true,
          "internalType": "bytes32",
          "name": "previousAdminRole",
          "type": "bytes32"
        },
        {
          "indexed": true,
          "internalType": "bytes32",
          "name": "newAdminRole",
          "type": "bytes32"
        }
      ],
      "name": "RoleAdminChanged",
      "type": "event"
    },
    {
      "anonymous": false,
      "inputs": [
        {
          "indexed": true,
          "internalType": "bytes32",
          "name": "role",
          "type": "bytes32"
        },
        {
          "indexed": true,
          "internalType": "address",
          "name": "account",
          "type": "address"
        },
        {
          "indexed": true,
          "internalType": "address",
          "name": "sender",
          "type": "address"
        }
      ],
      "name": "RoleGranted",
      "type": "event"
    },
    {
      "anonymous": false,
      "inputs": [
        {
          "indexed": true,
          "internalType": "bytes32",
          "name": "role",
          "type": "bytes32"
        },
        {
          "indexed": true,
          "internalType": "address",
          "name": "account",
          "type": "address"
        },
        {
          "indexed": true,
          "internalType": "address",
          "name": "sender",
          "type": "address"
        }
      ],
      "name": "RoleRevoked",
      "type": "event"
    },
    {
      "anonymous": false,
      "inputs": [
        {
          "indexed": true,
          "internalType": "address",
          "name": "from",
          "type": "address"
        },
        {
          "indexed": true,
          "internalType": "address",
          "name": "to",
          "type": "address"
        },
        {
          "indexed": false,
          "internalType": "uint256",
          "name": "value",
          "type": "uint256"
        }
      ],
      "name": "Transfer",
      "type": "event"
    },
    {
      "anonymous": false,
      "inputs": [
        {
          "indexed": true,
          "internalType": "address",
          "name": "implementation",
          "type": "address"
        }
      ],
      "name": "Upgraded",
      "type": "event"
    },
    {
      "inputs": [],
      "name": "ADMIN_DELEGATE_ROLE",
      "outputs": [
        {
          "internalType": "bytes32",
          "name": "",
          "type": "bytes32"
        }
      ],
      "stateMutability": "view",
      "type": "function"
    },
    {
      "inputs": [],
      "name": "ADMIN_ROLE",
      "outputs": [
        {
          "internalType": "bytes32",
          "name": "",
          "type": "bytes32"
        }
      ],
      "stateMutability": "view",
      "type": "function"
    },
    {
      "inputs": [],
      "name": "DEFAULT_ADMIN_ROLE",
      "outputs": [
        {
          "internalType": "bytes32",
          "name": "",
          "type": "bytes32"
        }
      ],
      "stateMutability": "view",
      "type": "function"
    },
    {
      "inputs": [],
      "name": "OPERATOR",
      "outputs": [
        {
          "internalType": "bytes32",
          "name": "",
          "type": "bytes32"
        }
      ],
      "stateMutability": "view",
      "type": "function"
    },
    {
      "inputs": [],
      "name": "SIGNER",
      "outputs": [
        {
          "internalType": "bytes32",
          "name": "",
          "type": "bytes32"
        }
      ],
      "stateMutability": "view",
      "type": "function"
    },
    {
      "inputs": [],
      "name": "UPGRADE_INTERFACE_VERSION",
      "outputs": [
        {
          "internalType": "string",
          "name": "",
          "type": "string"
        }
      ],
      "stateMutability": "view",
      "type": "function"
    },
    {
      "inputs": [
        {
          "internalType": "address",
          "name": "owner",
          "type": "address"
        },
        {
          "internalType": "address",
          "name": "spender",
          "type": "address"
        }
      ],
      "name": "allowance",
      "outputs": [
        {
          "internalType": "uint256",
          "name": "",
          "type": "uint256"
        }
      ],
      "stateMutability": "view",
      "type": "function"
    },
    {
      "inputs": [
        {
          "internalType": "address",
          "name": "spender",
          "type": "address"
        },
        {
          "internalType": "uint256",
          "name": "value",
          "type": "uint256"
        }
      ],
      "name": "approve",
      "outputs": [
        {
          "internalType": "bool",
          "name": "",
          "type": "bool"
        }
      ],
      "stateMutability": "nonpayable",
      "type": "function"
    },
    {
      "inputs": [
        {
          "internalType": "address",
          "name": "account",
          "type": "address"
        }
      ],
      "name": "balanceOf",
      "outputs": [
        {
          "internalType": "uint256",
          "name": "",
          "type": "uint256"
        }
      ],
      "stateMutability": "view",
      "type": "function"
    },
    {
      "inputs": [
        {
          "internalType": "address",
          "name": "account",
          "type": "address"
        },
        {
          "internalType": "uint256",
          "name": "amount",
          "type": "uint256"
        }
      ],
      "name": "burn",
      "outputs": [],
      "stateMutability": "nonpayable",
      "type": "function"
    },
    {
      "inputs": [],
      "name": "decimals",
      "outputs": [
        {
          "internalType": "uint8",
          "name": "",
          "type": "uint8"
        }
      ],
      "stateMutability": "view",
      "type": "function"
    },
    {
      "inputs": [],
      "name": "decimalsOverride",
      "outputs": [
        {
          "internalType": "uint8",
          "name": "",
          "type": "uint8"
        }
      ],
      "stateMutability": "view",
      "type": "function"
    },
    {
      "inputs": [],
      "name": "fundVault",
      "outputs": [
        {
          "internalType": "address",
          "name": "",
          "type": "address"
        }
      ],
      "stateMutability": "view",
      "type": "function"
    },
    {
      "inputs": [
        {
          "internalType": "bytes32",
          "name": "role",
          "type": "bytes32"
        }
      ],
      "name": "getRoleAdmin",
      "outputs": [
        {
          "internalType": "bytes32",
          "name": "",
          "type": "bytes32"
        }
      ],
      "stateMutability": "view",
      "type": "function"
    },
    {
      "inputs": [
        {
          "internalType": "bytes32",
          "name": "role",
          "type": "bytes32"
        },
        {
          "internalType": "uint256",
          "name": "index",
          "type": "uint256"
        }
      ],
      "name": "getRoleMember",
      "outputs": [
        {
          "internalType": "address",
          "name": "",
          "type": "address"
        }
      ],
      "stateMutability": "view",
      "type": "function"
    },
    {
      "inputs": [
        {
          "internalType": "bytes32",
          "name": "role",
          "type": "bytes32"
        }
      ],
      "name": "getRoleMemberCount",
      "outputs": [
        {
          "internalType": "uint256",
          "name": "",
          "type": "uint256"
        }
      ],
      "stateMutability": "view",
      "type": "function"
    },
    {
      "inputs": [
        {
          "internalType": "bytes32",
          "name": "role",
          "type": "bytes32"
        }
      ],
      "name": "getRoleMembers",
      "outputs": [
        {
          "internalType": "address[]",
          "name": "",
          "type": "address[]"
        }
      ],
      "stateMutability": "view",
      "type": "function"
    },
    {
      "inputs": [
        {
          "internalType": "bytes32",
          "name": "role",
          "type": "bytes32"
        },
        {
          "internalType": "address",
          "name": "account",
          "type": "address"
        }
      ],
      "name": "grantRole",
      "outputs": [],
      "stateMutability": "nonpayable",
      "type": "function"
    },
    {
      "inputs": [
        {
          "internalType": "bytes32",
          "name": "role",
          "type": "bytes32"
        },
        {
          "internalType": "address",
          "name": "account",
          "type": "address"
        }
      ],
      "name": "hasRole",
      "outputs": [
        {
          "internalType": "bool",
          "name": "",
          "type": "bool"
        }
      ],
      "stateMutability": "view",
      "type": "function"
    },
    {
      "inputs": [
        {
          "internalType": "address",
          "name": "fundVault_",
          "type": "address"
        },
        {
          "internalType": "address",
          "name": "admin_",
          "type": "address"
        },
        {
          "internalType": "string",
          "name": "name_",
          "type": "string"
        },
        {
          "internalType": "string",
          "name": "symbol_",
          "type": "string"
        },
        {
          "internalType": "uint8",
          "name": "decimals_",
          "type": "uint8"
        }
      ],
      "name": "initialize",
      "outputs": [],
      "stateMutability": "nonpayable",
      "type": "function"
    },
    {
      "inputs": [
        {
          "internalType": "address",
          "name": "_sender",
          "type": "address"
        }
      ],
      "name": "isAdmin",
      "outputs": [
        {
          "internalType": "bool",
          "name": "",
          "type": "bool"
        }
      ],
      "stateMutability": "view",
      "type": "function"
    },
    {
      "inputs": [
        {
          "internalType": "address",
          "name": "_sender",
          "type": "address"
        }
      ],
      "name": "isDelegateAdmin",
      "outputs": [
        {
          "internalType": "bool",
          "name": "",
          "type": "bool"
        }
      ],
      "stateMutability": "view",
      "type": "function"
    },
    {
      "inputs": [
        {
          "internalType": "address",
          "name": "_sender",
          "type": "address"
        }
      ],
      "name": "isOperator",
      "outputs": [
        {
          "internalType": "bool",
          "name": "",
          "type": "bool"
        }
      ],
      "stateMutability": "view",
      "type": "function"
    },
    {
      "inputs": [
        {
          "internalType": "address",
          "name": "_sender",
          "type": "address"
        }
      ],
      "name": "isSigner",
      "outputs": [
        {
          "internalType": "bool",
          "name": "",
          "type": "bool"
        }
      ],
      "stateMutability": "view",
      "type": "function"
    },
    {
      "inputs": [
        {
          "internalType": "address",
          "name": "account",
          "type": "address"
        },
        {
          "internalType": "uint256",
          "name": "amount",
          "type": "uint256"
        }
      ],
      "name": "mint",
      "outputs": [],
      "stateMutability": "nonpayable",
      "type": "function"
    },
    {
      "inputs": [],
      "name": "name",
      "outputs": [
        {
          "internalType": "string",
          "name": "",
          "type": "string"
        }
      ],
      "stateMutability": "view",
      "type": "function"
    },
    {
      "inputs": [],
      "name": "proxiableUUID",
      "outputs": [
        {
          "internalType": "bytes32",
          "name": "",
          "type": "bytes32"
        }
      ],
      "stateMutability": "view",
      "type": "function"
    },
    {
      "inputs": [
        {
          "internalType": "bytes32",
          "name": "role",
          "type": "bytes32"
        },
        {
          "internalType": "address",
          "name": "callerConfirmation",
          "type": "address"
        }
      ],
      "name": "renounceRole",
      "outputs": [],
      "stateMutability": "nonpayable",
      "type": "function"
    },
    {
      "inputs": [
        {
          "internalType": "bytes32",
          "name": "role",
          "type": "bytes32"
        },
        {
          "internalType": "address",
          "name": "account",
          "type": "address"
        }
      ],
      "name": "revokeRole",
      "outputs": [],
      "stateMutability": "nonpayable",
      "type": "function"
    },
    {
      "inputs": [
        {
          "internalType": "bytes4",
          "name": "interfaceId",
          "type": "bytes4"
        }
      ],
      "name": "supportsInterface",
      "outputs": [
        {
          "internalType": "bool",
          "name": "",
          "type": "bool"
        }
      ],
      "stateMutability": "view",
      "type": "function"
    },
    {
      "inputs": [],
      "name": "symbol",
      "outputs": [
        {
          "internalType": "string",
          "name": "",
          "type": "string"
        }
      ],
      "stateMutability": "view",
      "type": "function"
    },
    {
      "inputs": [],
      "name": "totalSupply",
      "outputs": [
        {
          "internalType": "uint256",
          "name": "",
          "type": "uint256"
        }
      ],
      "stateMutability": "view",
      "type": "function"
    },
    {
      "inputs": [
        {
          "internalType": "address",
          "name": "to",
          "type": "address"
        },
        {
          "internalType": "uint256",
          "name": "value",
          "type": "uint256"
        }
      ],
      "name": "transfer",
      "outputs": [
        {
          "internalType": "bool",
          "name": "",
          "type": "bool"
        }
      ],
      "stateMutability": "nonpayable",
      "type": "function"
    },
    {
      "inputs": [
        {
          "internalType": "address",
          "name": "from",
          "type": "address"
        },
        {
          "internalType": "address",
          "name": "to",
          "type": "address"
        },
        {
          "internalType": "uint256",
          "name": "value",
          "type": "uint256"
        }
      ],
      "name": "transferFrom",
      "outputs": [
        {
          "internalType": "bool",
          "name": "",
          "type": "bool"
        }
      ],
      "stateMutability": "nonpayable",
      "type": "function"
    },
    {
      "inputs": [
        {
          "internalType": "address",
          "name": "newImplementation",
          "type": "address"
        },
        {
          "internalType": "bytes",
          "name": "data",
          "type": "bytes"
        }
      ],
      "name": "upgradeToAndCall",
      "outputs": [],
      "stateMutability": "payable",
      "type": "function"
    }
  ],
  "bytecode": "0x60a060405230608052348015610013575f80fd5b5061001c610021565b6100d3565b7ff0c57e16840df040f15088dc2f81fe391c3923bec73e23a9662efc9c229c6a00805468010000000000000000900460ff16156100715760405163f92ee8a960e01b815260040160405180910390fd5b80546001600160401b03908116146100d05780546001600160401b0319166001600160401b0390811782556040519081527fc7f505b2f371ae2175ee4913f4499e1f2633a7b5936321eed1cdaeb6115181d29060200160405180910390a15b50565b608051611fd36100f95f395f8181610df001528181610e190152610f780152611fd35ff3fe6080604052600436106101fc575f3560e01c806375b238fc11610113578063a217fddf1161009d578063ca15c8731161006d578063ca15c87314610616578063ccd12eee14610635578063d547741f14610654578063dd62ed3e14610673578063f7800e6914610692575f80fd5b8063a217fddf14610588578063a3246ad31461059b578063a9059cbb146105c7578063ad3cb1cc146105e6575f80fd5b806391d14854116100e357806391d14854146104f757806395d89b4114610516578063983d27371461052a5780639dc29fac1461054a578063a16a95f314610569575f80fd5b806375b238fc146104625780637df73e27146104825780638420ce99146104a15780639010d07c146104c0575f80fd5b80632f2ff15d116101945780634f1ef286116101645780634f1ef286146103bc57806352d1902d146103cf578063582abd12146103e35780636d70f7ae1461040357806370a0823114610422575f80fd5b80632f2ff15d14610332578063313ce5671461035357806336568abe1461037e57806340c10f191461039d575f80fd5b806318160ddd116101cf57806318160ddd146102a257806323b872dd146102d5578063248a9ca3146102f457806324d7806c14610313575f80fd5b806301ffc9a71461020057806306fdde03146102345780630952ff5414610255578063095ea7b314610283575b5f80fd5b34801561020b575f80fd5b5061021f61021a36600461196c565b6106b0565b60405190151581526020015b60405180910390f35b34801561023f575f80fd5b506102486106da565b60405161022b9190611993565b348015610260575f80fd5b506102755f80516020611ede83398151915281565b60405190815260200161022b565b34801561028e575f80fd5b5061021f61029d3660046119e3565b61079a565b3480156102ad575f80fd5b507f52c63247e1f47db19d5ce0460030c497f067ca4cebf71ba98eeadabe20bace0254610275565b3480156102e0575f80fd5b5061021f6102ef366004611a0b565b6107b1565b3480156102ff575f80fd5b5061027561030e366004611a45565b6107d6565b34801561031e575f80fd5b5061021f61032d366004611a5c565b6107f6565b34801561033d575f80fd5b5061035161034c366004611a75565b61080e565b005b34801561035e575f80fd5b505f54600160a01b900460ff165b60405160ff909116815260200161022b565b348015610389575f80fd5b50610351610398366004611a75565b610830565b3480156103a8575f80fd5b506103516103b73660046119e3565b610868565b6103516103ca366004611b2a565b6108a0565b3480156103da575f80fd5b506102756108bb565b3480156103ee575f80fd5b506102755f80516020611e9e83398151915281565b34801561040e575f80fd5b5061021f61041d366004611a5c565b6108d6565b34801561042d575f80fd5b5061027561043c366004611a5c565b6001600160a01b03165f9081525f80516020611efe833981519152602052604090205490565b34801561046d575f80fd5b506102755f80516020611f1e83398151915281565b34801561048d575f80fd5b5061021f61049c366004611a5c565b6108ee565b3480156104ac575f80fd5b506103516104bb366004611ba6565b610906565b3480156104cb575f80fd5b506104df6104da366004611c44565b610a3c565b6040516001600160a01b03909116815260200161022b565b348015610502575f80fd5b5061021f610511366004611a75565b610a69565b348015610521575f80fd5b50610248610a9f565b348015610535575f80fd5b506102755f80516020611f5e83398151915281565b348015610555575f80fd5b506103516105643660046119e3565b610add565b348015610574575f80fd5b5061021f610583366004611a5c565b610b11565b348015610593575f80fd5b506102755f81565b3480156105a6575f80fd5b506105ba6105b5366004611a45565b610b29565b60405161022b9190611c64565b3480156105d2575f80fd5b5061021f6105e13660046119e3565b610b52565b3480156105f1575f80fd5b50610248604051806040016040528060058152602001640352e302e360dc1b81525081565b348015610621575f80fd5b50610275610630366004611a45565b610b5f565b348015610640575f80fd5b505f5461036c90600160a01b900460ff1681565b34801561065f575f80fd5b5061035161066e366004611a75565b610b83565b34801561067e575f80fd5b5061027561068d366004611caf565b610b9f565b34801561069d575f80fd5b505f546104df906001600160a01b031681565b5f6001600160e01b03198216635a05180f60e01b14806106d457506106d482610be8565b92915050565b7f52c63247e1f47db19d5ce0460030c497f067ca4cebf71ba98eeadabe20bace0380546060915f80516020611efe8339815191529161071890611cd7565b80601f016020809104026020016040519081016040528092919081815260200182805461074490611cd7565b801561078f5780601f106107665761010080835404028352916020019161078f565b820191905f5260205f20905b81548152906001019060200180831161077257829003601f168201915b505050505091505090565b5f336107a7818585610c1c565b5060019392505050565b5f336107be858285610c29565b6107c9858585610ccc565b60019150505b9392505050565b5f9081525f80516020611f7e833981519152602052604090206001015490565b5f6106d45f80516020611f1e83398151915283610a69565b610817826107d6565b61082081610d29565b61082a8383610d36565b50505050565b6001600160a01b03811633146108595760405163334bd91960e11b815260040160405180910390fd5b6108638282610d78565b505050565b5f546001600160a01b031633146108925760405163399279a360e21b815260040160405180910390fd5b61089c8282610db1565b5050565b6108a8610de5565b6108b182610e8b565b61089c8282610eb1565b5f6108c4610f6d565b505f80516020611f3e83398151915290565b5f6106d45f80516020611f5e83398151915283610a69565b5f6106d45f80516020611e9e83398151915283610a69565b5f61090f610fb6565b805490915060ff600160401b820416159067ffffffffffffffff165f811580156109365750825b90505f8267ffffffffffffffff1660011480156109525750303b155b905081158015610960575080155b1561097e5760405163f92ee8a960e01b815260040160405180910390fd5b845467ffffffffffffffff1916600117855583156109a857845460ff60401b1916600160401b1785555b6109b28888610fde565b6109bb89610ff0565b6109c36110e3565b5f805460ff8816600160a01b026001600160a81b03199091166001600160a01b038d16171790558315610a3057845460ff60401b19168555604051600181527fc7f505b2f371ae2175ee4913f4499e1f2633a7b5936321eed1cdaeb6115181d29060200160405180910390a15b50505050505050505050565b5f8281525f80516020611ebe833981519152602081905260408220610a6190846110eb565b949350505050565b5f9182525f80516020611f7e833981519152602090815260408084206001600160a01b0393909316845291905290205460ff1690565b7f52c63247e1f47db19d5ce0460030c497f067ca4cebf71ba98eeadabe20bace0480546060915f80516020611efe8339815191529161071890611cd7565b5f546001600160a01b03163314610b075760405163399279a360e21b815260040160405180910390fd5b61089c82826110f6565b5f6106d45f80516020611ede83398151915283610a69565b5f8181525f80516020611ebe83398151915260208190526040909120606091906107cf9061112a565b5f336107a7818585610ccc565b5f8181525f80516020611ebe8339815191526020819052604082206107cf90611136565b610b8c826107d6565b610b9581610d29565b61082a8383610d78565b6001600160a01b039182165f9081527f52c63247e1f47db19d5ce0460030c497f067ca4cebf71ba98eeadabe20bace016020908152604080832093909416825291909152205490565b5f6001600160e01b03198216637965db0b60e01b14806106d457506301ffc9a760e01b6001600160e01b03198316146106d4565b610863838383600161113f565b5f546001600160a01b03163314610c535760405163399279a360e21b815260040160405180910390fd5b5f610c5e8484610b9f565b90505f1981101561082a578181108015610c8257505f546001600160a01b03163314155b15610cbe57604051637dc7a0d960e11b81526001600160a01b038416600482015260248101829052604481018390526064015b60405180910390fd5b61082a84848484035f61113f565b6001600160a01b038316610cf557604051634b637e8f60e11b81525f6004820152602401610cb5565b6001600160a01b038216610d1e5760405163ec442f0560e01b81525f6004820152602401610cb5565b610863838383611223565b610d338133611258565b50565b5f5f80516020611ebe83398151915281610d508585611291565b90508015610a61575f858152602083905260409020610d6f9085611332565b50949350505050565b5f5f80516020611ebe83398151915281610d928585611346565b90508015610a61575f858152602083905260409020610d6f90856113bf565b6001600160a01b038216610dda5760405163ec442f0560e01b81525f6004820152602401610cb5565b61089c5f8383611223565b306001600160a01b037f0000000000000000000000000000000000000000000000000000000000000000161480610e6b57507f00000000000000000000000000000000000000000000000000000000000000006001600160a01b0316610e5f5f80516020611f3e833981519152546001600160a01b031690565b6001600160a01b031614155b15610e895760405163703e46dd60e11b815260040160405180910390fd5b565b610e9433610b11565b610d335760405163dade674960e01b815260040160405180910390fd5b816001600160a01b03166352d1902d6040518163ffffffff1660e01b8152600401602060405180830381865afa925050508015610f0b575060408051601f3d908101601f19168201909252610f0891810190611d0f565b60015b610f3357604051634c9c8ce360e01b81526001600160a01b0383166004820152602401610cb5565b5f80516020611f3e8339815191528114610f6357604051632a87526960e21b815260048101829052602401610cb5565b61086383836113d3565b306001600160a01b037f00000000000000000000000000000000000000000000000000000000000000001614610e895760405163703e46dd60e11b815260040160405180910390fd5b5f807ff0c57e16840df040f15088dc2f81fe391c3923bec73e23a9662efc9c229c6a006106d4565b610fe6611428565b61089c828261144d565b610ff8611428565b6110006110e3565b6110175f80516020611f5e83398151915282610d36565b5061102f5f80516020611f1e83398151915282610d36565b506110475f80516020611ede83398151915282610d36565b5061105f5f80516020611e9e83398151915282610d36565b506110775f80516020611f1e8339815191528061149d565b61109b5f80516020611ede8339815191525f80516020611f1e83398151915261149d565b6110bf5f80516020611f5e8339815191525f80516020611ede83398151915261149d565b610d335f80516020611e9e8339815191525f80516020611ede83398151915261149d565b610e89611428565b5f6107cf83836114fd565b6001600160a01b03821661111f57604051634b637e8f60e11b81525f6004820152602401610cb5565b61089c825f83611223565b60605f6107cf83611523565b5f6106d4825490565b5f80516020611efe8339815191526001600160a01b0385166111765760405163e602df0560e01b81525f6004820152602401610cb5565b6001600160a01b03841661119f57604051634a1406b160e11b81525f6004820152602401610cb5565b6001600160a01b038086165f9081526001830160209081526040808320938816835292905220839055811561121c57836001600160a01b0316856001600160a01b03167f8c5be1e5ebec7d5bd14f71427d1e84f3dd0314c0f7b2291e5b200ac8c7c3b9258560405161121391815260200190565b60405180910390a35b5050505050565b5f546001600160a01b0316331461124d5760405163399279a360e21b815260040160405180910390fd5b61086383838361157c565b6112628282610a69565b61089c5760405163e2517d3f60e01b81526001600160a01b038216600482015260248101839052604401610cb5565b5f5f80516020611f7e8339815191526112aa8484610a69565b611329575f848152602082815260408083206001600160a01b03871684529091529020805460ff191660011790556112df3390565b6001600160a01b0316836001600160a01b0316857f2f8788117e7eff1d82e926ec794901d17c78024a50270940304540a733656f0d60405160405180910390a460019150506106d4565b5f9150506106d4565b5f6107cf836001600160a01b0384166116b5565b5f5f80516020611f7e83398151915261135f8484610a69565b15611329575f848152602082815260408083206001600160a01b0387168085529252808320805460ff1916905551339287917ff6391f5c32d9c69d2a47ea670b442974b53935d1edc7fd64eb21e047a839171b9190a460019150506106d4565b5f6107cf836001600160a01b038416611701565b6113dc826117db565b6040516001600160a01b038316907fbc7cd75a20ee27fd9adebab32041f755214dbc6bffa90cc0225b39da2e5c2d3b905f90a280511561142057610863828261183e565b61089c6118b0565b6114306118cf565b610e8957604051631afcd79f60e31b815260040160405180910390fd5b611455611428565b5f80516020611efe8339815191527f52c63247e1f47db19d5ce0460030c497f067ca4cebf71ba98eeadabe20bace0361148e8482611d6a565b506004810161082a8382611d6a565b5f80516020611f7e8339815191525f6114b5846107d6565b5f85815260208490526040808220600101869055519192508491839187917fbd79b86ffe0ab8e8776151514217cd7cacd52c909f66475c3af44e129f0b00ff9190a450505050565b5f825f01828154811061151257611512611e25565b905f5260205f200154905092915050565b6060815f0180548060200260200160405190810160405280929190818152602001828054801561157057602002820191905f5260205f20905b81548152602001906001019080831161155c575b50505050509050919050565b5f80516020611efe8339815191526001600160a01b0384166115b65781816002015f8282546115ab9190611e4d565b909155506116269050565b6001600160a01b0384165f90815260208290526040902054828110156116085760405163391434e360e21b81526001600160a01b03861660048201526024810182905260448101849052606401610cb5565b6001600160a01b0385165f9081526020839052604090209083900390555b6001600160a01b038316611644576002810180548390039055611662565b6001600160a01b0383165f9081526020829052604090208054830190555b826001600160a01b0316846001600160a01b03167fddf252ad1be2c89b69c2b068fc378daa952ba7f163c4a11628f55a4df523b3ef846040516116a791815260200190565b60405180910390a350505050565b5f8181526001830160205260408120546116fa57508154600181810184555f8481526020808220909301849055845484825282860190935260409020919091556106d4565b505f6106d4565b5f8181526001830160205260408120548015611329575f611723600183611e60565b85549091505f9061173690600190611e60565b9050808214611795575f865f01828154811061175457611754611e25565b905f5260205f200154905080875f01848154811061177457611774611e25565b5f918252602080832090910192909255918252600188019052604090208390555b85548690806117a6576117a6611e73565b600190038181905f5260205f20015f90559055856001015f8681526020019081526020015f205f9055600193505050506106d4565b806001600160a01b03163b5f0361181057604051634c9c8ce360e01b81526001600160a01b0382166004820152602401610cb5565b5f80516020611f3e83398151915280546001600160a01b0319166001600160a01b0392909216919091179055565b60605f80846001600160a01b03168460405161185a9190611e87565b5f60405180830381855af49150503d805f8114611892576040519150601f19603f3d011682016040523d82523d5f602084013e611897565b606091505b50915091506118a78583836118e8565b95945050505050565b3415610e895760405163b398979f60e01b815260040160405180910390fd5b5f6118d8610fb6565b54600160401b900460ff16919050565b6060826118fd576118f882611944565b6107cf565b815115801561191457506001600160a01b0384163b155b1561193d57604051639996b31560e01b81526001600160a01b0385166004820152602401610cb5565b50806107cf565b80511561195357805160208201fd5b60405163d6bda27560e01b815260040160405180910390fd5b5f6020828403121561197c575f80fd5b81356001600160e01b0319811681146107cf575f80fd5b602081525f82518060208401528060208501604085015e5f604082850101526040601f19601f83011684010191505092915050565b80356001600160a01b03811681146119de575f80fd5b919050565b5f80604083850312156119f4575f80fd5b6119fd836119c8565b946020939093013593505050565b5f805f60608486031215611a1d575f80fd5b611a26846119c8565b9250611a34602085016119c8565b929592945050506040919091013590565b5f60208284031215611a55575f80fd5b5035919050565b5f60208284031215611a6c575f80fd5b6107cf826119c8565b5f8060408385031215611a86575f80fd5b82359150611a96602084016119c8565b90509250929050565b634e487b7160e01b5f52604160045260245ffd5b5f8067ffffffffffffffff841115611acd57611acd611a9f565b50604051601f19601f85018116603f0116810181811067ffffffffffffffff82111715611afc57611afc611a9f565b604052838152905080828401851015611b13575f80fd5b838360208301375f60208583010152509392505050565b5f8060408385031215611b3b575f80fd5b611b44836119c8565b9150602083013567ffffffffffffffff811115611b5f575f80fd5b8301601f81018513611b6f575f80fd5b611b7e85823560208401611ab3565b9150509250929050565b5f82601f830112611b97575f80fd5b6107cf83833560208501611ab3565b5f805f805f60a08688031215611bba575f80fd5b611bc3866119c8565b9450611bd1602087016119c8565b9350604086013567ffffffffffffffff811115611bec575f80fd5b611bf888828901611b88565b935050606086013567ffffffffffffffff811115611c14575f80fd5b611c2088828901611b88565b925050608086013560ff81168114611c36575f80fd5b809150509295509295909350565b5f8060408385031215611c55575f80fd5b50508035926020909101359150565b602080825282518282018190525f918401906040840190835b81811015611ca45783516001600160a01b0316835260209384019390920191600101611c7d565b509095945050505050565b5f8060408385031215611cc0575f80fd5b611cc9836119c8565b9150611a96602084016119c8565b600181811c90821680611ceb57607f821691505b602082108103611d0957634e487b7160e01b5f52602260045260245ffd5b50919050565b5f60208284031215611d1f575f80fd5b5051919050565b601f82111561086357805f5260205f20601f840160051c81016020851015611d4b5750805b601f840160051c820191505b8181101561121c575f8155600101611d57565b815167ffffffffffffffff811115611d8457611d84611a9f565b611d9881611d928454611cd7565b84611d26565b6020601f821160018114611dca575f8315611db35750848201515b5f19600385901b1c1916600184901b17845561121c565b5f84815260208120601f198516915b82811015611df95787850151825560209485019460019092019101611dd9565b5084821015611e1657868401515f19600387901b60f8161c191681555b50505050600190811b01905550565b634e487b7160e01b5f52603260045260245ffd5b634e487b7160e01b5f52601160045260245ffd5b808201808211156106d4576106d4611e39565b818103818111156106d4576106d4611e39565b634e487b7160e01b5f52603160045260245ffd5b5f82518060208501845e5f92019182525091905056fe6c8d7f768a6bb4aafe85e8a2f5a9680355239c7e14646ed62b044e39de154512c1f6fe24621ce81ec5827caf0253cadb74709b061630e6b55e82371705932000c171260023d22a25a00a2789664c9334017843b831138c8ef03cc8897e5873d752c63247e1f47db19d5ce0460030c497f067ca4cebf71ba98eeadabe20bace00f23ec0bb4210edd5cba85afd05127efcd2fc6a781bfed49188da1081670b22d8360894a13ba1a3210667c828492db98dca3e2076cc3735a920a3ca505d382bbc46a52cf33029de9f84853745a87af28464c80bf0346df1b32e205fc73319f62202dd7bc7dec4dceedda775e58dd541e08a116c6c53815c0bd028192f7b626800a26469706673582212205476c768770ccecc67afea43ec983584460ac0a028000758ed96160261c362fd64736f6c634300081a0033",
  "linkReferences": {},
  "deployedLinkReferences": {}
}