{
  "_format": "hh-sol-artifact-1",
  "contractName": "MoneyFiFundVault",
  "sourceName": "contracts/MoneyFiFundVault.sol",
  "abi": [
    {
      "inputs": [],
      "stateMutability": "nonpayable",
      "type": "constructor"
    },
    {
      "inputs": [],
      "name": "AccessControlBadConfirmation",
      "type": "error"
    },
    {
      "inputs": [
        {
          "internalType": "address",
          "name": "account",
          "type": "address"
        },
        {
          "internalType": "bytes32",
          "name": "neededRole",
          "type": "bytes32"
        }
      ],
      "name": "AccessControlUnauthorizedAccount",
      "type": "error"
    },
    {
      "inputs": [
        {
          "internalType": "address",
          "name": "target",
          "type": "address"
        }
      ],
      "name": "AddressEmptyCode",
      "type": "error"
    },
    {
      "inputs": [
        {
          "internalType": "address",
          "name": "implementation",
          "type": "address"
        }
      ],
      "name": "ERC1967InvalidImplementation",
      "type": "error"
    },
    {
      "inputs": [],
      "name": "ERC1967NonPayable",
      "type": "error"
    },
    {
      "inputs": [],
      "name": "EnforcedPause",
      "type": "error"
    },
    {
      "inputs": [],
      "name": "ExpectedPause",
      "type": "error"
    },
    {
      "inputs": [],
      "name": "FailedCall",
      "type": "error"
    },
    {
      "inputs": [],
      "name": "InsufficientAmount",
      "type": "error"
    },
    {
      "inputs": [],
      "name": "InvalidAdminRole",
      "type": "error"
    },
    {
      "inputs": [],
      "name": "InvalidAmount",
      "type": "error"
    },
    {
      "inputs": [],
      "name": "InvalidAtLeastOperatorRole",
      "type": "error"
    },
    {
      "inputs": [],
      "name": "InvalidDelegateRole",
      "type": "error"
    },
    {
      "inputs": [],
      "name": "InvalidDistributionFee",
      "type": "error"
    },
    {
      "inputs": [],
      "name": "InvalidInitialization",
      "type": "error"
    },
    {
      "inputs": [],
      "name": "InvalidInternalChainToken",
      "type": "error"
    },
    {
      "inputs": [],
      "name": "InvalidLpAmount",
      "type": "error"
    },
    {
      "inputs": [],
      "name": "InvalidLpToken",
      "type": "error"
    },
    {
      "inputs": [],
      "name": "InvalidParam",
      "type": "error"
    },
    {
      "inputs": [],
      "name": "InvalidRebalanceFundSameChainAmount",
      "type": "error"
    },
    {
      "inputs": [],
      "name": "InvalidRouter",
      "type": "error"
    },
    {
      "inputs": [],
      "name": "InvalidSignerRole",
      "type": "error"
    },
    {
      "inputs": [],
      "name": "InvalidSupportedTokenInternal",
      "type": "error"
    },
    {
      "inputs": [],
      "name": "NotInitializing",
      "type": "error"
    },
    {
      "inputs": [],
      "name": "ReentrancyGuardReentrantCall",
      "type": "error"
    },
    {
      "inputs": [],
      "name": "RequiredAddressNotNull",
      "type": "error"
    },
    {
      "inputs": [
        {
          "internalType": "address",
          "name": "token",
          "type": "address"
        }
      ],
      "name": "SafeERC20FailedOperation",
      "type": "error"
    },
    {
      "inputs": [],
      "name": "UUPSUnauthorizedCallContext",
      "type": "error"
    },
    {
      "inputs": [
        {
          "internalType": "bytes32",
          "name": "slot",
          "type": "bytes32"
        }
      ],
      "name": "UUPSUnsupportedProxiableUUID",
      "type": "error"
    },
    {
      "anonymous": false,
      "inputs": [
        {
          "indexed": false,
          "internalType": "address",
          "name": "tokenAddress",
          "type": "address"
        },
        {
          "indexed": false,
          "internalType": "address",
          "name": "receiver",
          "type": "address"
        },
        {
          "indexed": false,
          "internalType": "uint256",
          "name": "depositAmount",
          "type": "uint256"
        },
        {
          "indexed": false,
          "internalType": "uint256",
          "name": "actualDepositAmount",
          "type": "uint256"
        },
        {
          "indexed": false,
          "internalType": "uint256",
          "name": "depositedAt",
          "type": "uint256"
        }
      ],
      "name": "DepositFundVault",
      "type": "event"
    },
    {
      "anonymous": false,
      "inputs": [
        {
          "indexed": false,
          "internalType": "uint64",
          "name": "version",
          "type": "uint64"
        }
      ],
      "name": "Initialized",
      "type": "event"
    },
    {
      "anonymous": false,
      "inputs": [
        {
          "indexed": false,
          "internalType": "address",
          "name": "account",
          "type": "address"
        }
      ],
      "name": "Paused",
      "type": "event"
    },
    {
      "anonymous": false,
      "inputs": [
        {
          "indexed": true,
          "internalType": "address",
          "name": "token",
          "type": "address"
        },
        {
          "indexed": true,
          "internalType": "address",
          "name": "receiver",
          "type": "address"
        },
        {
          "indexed": false,
          "internalType": "uint256",
          "name": "rebalanceAmount",
          "type": "uint256"
        },
        {
          "indexed": false,
          "internalType": "uint256",
          "name": "protocolFee",
          "type": "uint256"
        },
        {
          "indexed": false,
          "internalType": "uint256",
          "name": "referralFee",
          "type": "uint256"
        },
        {
          "indexed": false,
          "internalType": "uint256",
          "name": "rebalanceFee",
          "type": "uint256"
        },
        {
          "indexed": false,
          "internalType": "uint256",
          "name": "timestamp",
          "type": "uint256"
        }
      ],
      "name": "RebalanceFundSameChainFundVault",
      "type": "event"
    },
    {
      "anonymous": false,
      "inputs": [
        {
          "indexed": true,
          "internalType": "bytes32",
          "name": "role",
          "type": "bytes32"
        },
        {
          "indexed": true,
          "internalType": "bytes32",
          "name": "previousAdminRole",
          "type": "bytes32"
        },
        {
          "indexed": true,
          "internalType": "bytes32",
          "name": "newAdminRole",
          "type": "bytes32"
        }
      ],
      "name": "RoleAdminChanged",
      "type": "event"
    },
    {
      "anonymous": false,
      "inputs": [
        {
          "indexed": true,
          "internalType": "bytes32",
          "name": "role",
          "type": "bytes32"
        },
        {
          "indexed": true,
          "internalType": "address",
          "name": "account",
          "type": "address"
        },
        {
          "indexed": true,
          "internalType": "address",
          "name": "sender",
          "type": "address"
        }
      ],
      "name": "RoleGranted",
      "type": "event"
    },
    {
      "anonymous": false,
      "inputs": [
        {
          "indexed": true,
          "internalType": "bytes32",
          "name": "role",
          "type": "bytes32"
        },
        {
          "indexed": true,
          "internalType": "address",
          "name": "account",
          "type": "address"
        },
        {
          "indexed": true,
          "internalType": "address",
          "name": "sender",
          "type": "address"
        }
      ],
      "name": "RoleRevoked",
      "type": "event"
    },
    {
      "anonymous": false,
      "inputs": [
        {
          "indexed": true,
          "internalType": "address",
          "name": "tokenAddress",
          "type": "address"
        },
        {
          "indexed": false,
          "internalType": "uint256",
          "name": "amount",
          "type": "uint256"
        },
        {
          "indexed": false,
          "internalType": "uint256",
          "name": "timestamp",
          "type": "uint256"
        }
      ],
      "name": "TransferFundFromRouterToFundVault",
      "type": "event"
    },
    {
      "anonymous": false,
      "inputs": [
        {
          "indexed": false,
          "internalType": "address",
          "name": "tokenAddress",
          "type": "address"
        },
        {
          "indexed": false,
          "internalType": "uint256",
          "name": "distributionAmount",
          "type": "uint256"
        },
        {
          "indexed": false,
          "internalType": "uint256",
          "name": "actualDistributionAmount",
          "type": "uint256"
        },
        {
          "indexed": false,
          "internalType": "uint256",
          "name": "transferdAt",
          "type": "uint256"
        }
      ],
      "name": "TransferFundToRouterFundVault",
      "type": "event"
    },
    {
      "anonymous": false,
      "inputs": [
        {
          "indexed": false,
          "internalType": "address",
          "name": "tokenAddress",
          "type": "address"
        },
        {
          "indexed": false,
          "internalType": "uint256",
          "name": "distributionAmount",
          "type": "uint256"
        },
        {
          "indexed": false,
          "internalType": "uint256",
          "name": "actualDistributionAmount",
          "type": "uint256"
        },
        {
          "indexed": false,
          "internalType": "uint256",
          "name": "minusOriginAmount",
          "type": "uint256"
        },
        {
          "indexed": false,
          "internalType": "uint256",
          "name": "transferdAt",
          "type": "uint256"
        }
      ],
      "name": "TransferFundToRouterFundVaultCrossChain",
      "type": "event"
    },
    {
      "anonymous": false,
      "inputs": [
        {
          "indexed": false,
          "internalType": "address",
          "name": "account",
          "type": "address"
        }
      ],
      "name": "Unpaused",
      "type": "event"
    },
    {
      "anonymous": false,
      "inputs": [
        {
          "indexed": true,
          "internalType": "address",
          "name": "implementation",
          "type": "address"
        }
      ],
      "name": "Upgraded",
      "type": "event"
    },
    {
      "anonymous": false,
      "inputs": [
        {
          "indexed": false,
          "internalType": "address",
          "name": "token",
          "type": "address"
        },
        {
          "indexed": false,
          "internalType": "uint256",
          "name": "amount",
          "type": "uint256"
        },
        {
          "indexed": false,
          "internalType": "uint256",
          "name": "withdrawAt",
          "type": "uint256"
        }
      ],
      "name": "WithDrawDistributeFee",
      "type": "event"
    },
    {
      "anonymous": false,
      "inputs": [
        {
          "indexed": false,
          "internalType": "address",
          "name": "token",
          "type": "address"
        },
        {
          "indexed": false,
          "internalType": "uint256",
          "name": "amount",
          "type": "uint256"
        },
        {
          "indexed": false,
          "internalType": "uint256",
          "name": "withdrawAt",
          "type": "uint256"
        }
      ],
      "name": "WithDrawProtocolFee",
      "type": "event"
    },
    {
      "anonymous": false,
      "inputs": [
        {
          "indexed": false,
          "internalType": "address",
          "name": "token",
          "type": "address"
        },
        {
          "indexed": false,
          "internalType": "uint256",
          "name": "amount",
          "type": "uint256"
        },
        {
          "indexed": false,
          "internalType": "uint256",
          "name": "withdrawAt",
          "type": "uint256"
        }
      ],
      "name": "WithDrawRebalanceFee",
      "type": "event"
    },
    {
      "anonymous": false,
      "inputs": [
        {
          "indexed": false,
          "internalType": "address",
          "name": "token",
          "type": "address"
        },
        {
          "indexed": false,
          "internalType": "uint256",
          "name": "amount",
          "type": "uint256"
        },
        {
          "indexed": false,
          "internalType": "uint256",
          "name": "withdrawAt",
          "type": "uint256"
        }
      ],
      "name": "WithDrawReferralFee",
      "type": "event"
    },
    {
      "anonymous": false,
      "inputs": [
        {
          "indexed": false,
          "internalType": "address",
          "name": "token",
          "type": "address"
        },
        {
          "indexed": false,
          "internalType": "uint256",
          "name": "amount",
          "type": "uint256"
        },
        {
          "indexed": false,
          "internalType": "uint256",
          "name": "withdrawAt",
          "type": "uint256"
        }
      ],
      "name": "WithDrawWithdrawalFee",
      "type": "event"
    },
    {
      "anonymous": false,
      "inputs": [
        {
          "indexed": false,
          "internalType": "address",
          "name": "userAddress",
          "type": "address"
        },
        {
          "indexed": false,
          "internalType": "address",
          "name": "tokenAddress",
          "type": "address"
        },
        {
          "indexed": false,
          "internalType": "uint256",
          "name": "amount",
          "type": "uint256"
        },
        {
          "indexed": false,
          "internalType": "uint256",
          "name": "withdrawAt",
          "type": "uint256"
        }
      ],
      "name": "WithdrawUnDistributedFundToUserFundVault",
      "type": "event"
    },
    {
      "inputs": [],
      "name": "ADMIN_DELEGATE_ROLE",
      "outputs": [
        {
          "internalType": "bytes32",
          "name": "",
          "type": "bytes32"
        }
      ],
      "stateMutability": "view",
      "type": "function"
    },
    {
      "inputs": [],
      "name": "ADMIN_ROLE",
      "outputs": [
        {
          "internalType": "bytes32",
          "name": "",
          "type": "bytes32"
        }
      ],
      "stateMutability": "view",
      "type": "function"
    },
    {
      "inputs": [],
      "name": "DEFAULT_ADMIN_ROLE",
      "outputs": [
        {
          "internalType": "bytes32",
          "name": "",
          "type": "bytes32"
        }
      ],
      "stateMutability": "view",
      "type": "function"
    },
    {
      "inputs": [],
      "name": "OPERATOR",
      "outputs": [
        {
          "internalType": "bytes32",
          "name": "",
          "type": "bytes32"
        }
      ],
      "stateMutability": "view",
      "type": "function"
    },
    {
      "inputs": [],
      "name": "SIGNER",
      "outputs": [
        {
          "internalType": "bytes32",
          "name": "",
          "type": "bytes32"
        }
      ],
      "stateMutability": "view",
      "type": "function"
    },
    {
      "inputs": [],
      "name": "UPGRADE_INTERFACE_VERSION",
      "outputs": [
        {
          "internalType": "string",
          "name": "",
          "type": "string"
        }
      ],
      "stateMutability": "view",
      "type": "function"
    },
    {
      "inputs": [],
      "name": "controller",
      "outputs": [
        {
          "internalType": "address",
          "name": "",
          "type": "address"
        }
      ],
      "stateMutability": "view",
      "type": "function"
    },
    {
      "inputs": [
        {
          "internalType": "address",
          "name": "_tokenAddress",
          "type": "address"
        },
        {
          "internalType": "address",
          "name": "_receiver",
          "type": "address"
        },
        {
          "internalType": "uint256",
          "name": "_amount",
          "type": "uint256"
        }
      ],
      "name": "depositFund",
      "outputs": [
        {
          "internalType": "uint256",
          "name": "",
          "type": "uint256"
        }
      ],
      "stateMutability": "nonpayable",
      "type": "function"
    },
    {
      "inputs": [
        {
          "internalType": "address",
          "name": "token",
          "type": "address"
        }
      ],
      "name": "distributeFee",
      "outputs": [
        {
          "internalType": "uint256",
          "name": "fee",
          "type": "uint256"
        }
      ],
      "stateMutability": "view",
      "type": "function"
    },
    {
      "inputs": [],
      "name": "feeTo",
      "outputs": [
        {
          "internalType": "address",
          "name": "",
          "type": "address"
        }
      ],
      "stateMutability": "view",
      "type": "function"
    },
    {
      "inputs": [
        {
          "internalType": "bytes32",
          "name": "role",
          "type": "bytes32"
        }
      ],
      "name": "getRoleAdmin",
      "outputs": [
        {
          "internalType": "bytes32",
          "name": "",
          "type": "bytes32"
        }
      ],
      "stateMutability": "view",
      "type": "function"
    },
    {
      "inputs": [
        {
          "internalType": "bytes32",
          "name": "role",
          "type": "bytes32"
        },
        {
          "internalType": "uint256",
          "name": "index",
          "type": "uint256"
        }
      ],
      "name": "getRoleMember",
      "outputs": [
        {
          "internalType": "address",
          "name": "",
          "type": "address"
        }
      ],
      "stateMutability": "view",
      "type": "function"
    },
    {
      "inputs": [
        {
          "internalType": "bytes32",
          "name": "role",
          "type": "bytes32"
        }
      ],
      "name": "getRoleMemberCount",
      "outputs": [
        {
          "internalType": "uint256",
          "name": "",
          "type": "uint256"
        }
      ],
      "stateMutability": "view",
      "type": "function"
    },
    {
      "inputs": [
        {
          "internalType": "bytes32",
          "name": "role",
          "type": "bytes32"
        }
      ],
      "name": "getRoleMembers",
      "outputs": [
        {
          "internalType": "address[]",
          "name": "",
          "type": "address[]"
        }
      ],
      "stateMutability": "view",
      "type": "function"
    },
    {
      "inputs": [
        {
          "internalType": "address",
          "name": "_token",
          "type": "address"
        },
        {
          "internalType": "address",
          "name": "_user",
          "type": "address"
        }
      ],
      "name": "getUserDepositInfor",
      "outputs": [
        {
          "components": [
            {
              "internalType": "uint256",
              "name": "originalDepositAmount",
              "type": "uint256"
            },
            {
              "internalType": "uint256",
              "name": "currentDepositAmount",
              "type": "uint256"
            },
            {
              "internalType": "uint256",
              "name": "durationDeposit",
              "type": "uint256"
            },
            {
              "internalType": "uint256",
              "name": "updatedAt",
              "type": "uint256"
            }
          ],
          "internalType": "struct MoneyFiFundVaultType.UserDepositInfor",
          "name": "",
          "type": "tuple"
        }
      ],
      "stateMutability": "view",
      "type": "function"
    },
    {
      "inputs": [
        {
          "internalType": "bytes32",
          "name": "role",
          "type": "bytes32"
        },
        {
          "internalType": "address",
          "name": "account",
          "type": "address"
        }
      ],
      "name": "grantRole",
      "outputs": [],
      "stateMutability": "nonpayable",
      "type": "function"
    },
    {
      "inputs": [
        {
          "internalType": "bytes32",
          "name": "role",
          "type": "bytes32"
        },
        {
          "internalType": "address",
          "name": "account",
          "type": "address"
        }
      ],
      "name": "hasRole",
      "outputs": [
        {
          "internalType": "bool",
          "name": "",
          "type": "bool"
        }
      ],
      "stateMutability": "view",
      "type": "function"
    },
    {
      "inputs": [
        {
          "internalType": "address",
          "name": "_token",
          "type": "address"
        },
        {
          "internalType": "uint256",
          "name": "_protocolFee",
          "type": "uint256"
        },
        {
          "internalType": "uint256",
          "name": "_referralFee",
          "type": "uint256"
        }
      ],
      "name": "increaseProtocolAndReferralFee",
      "outputs": [],
      "stateMutability": "nonpayable",
      "type": "function"
    },
    {
      "inputs": [
        {
          "internalType": "address",
          "name": "admin_",
          "type": "address"
        },
        {
          "internalType": "address",
          "name": "controller_",
          "type": "address"
        },
        {
          "internalType": "address",
          "name": "feeTo_",
          "type": "address"
        }
      ],
      "name": "initialize",
      "outputs": [],
      "stateMutability": "nonpayable",
      "type": "function"
    },
    {
      "inputs": [
        {
          "internalType": "address",
          "name": "_sender",
          "type": "address"
        }
      ],
      "name": "isAdmin",
      "outputs": [
        {
          "internalType": "bool",
          "name": "",
          "type": "bool"
        }
      ],
      "stateMutability": "view",
      "type": "function"
    },
    {
      "inputs": [
        {
          "internalType": "address",
          "name": "_sender",
          "type": "address"
        }
      ],
      "name": "isDelegateAdmin",
      "outputs": [
        {
          "internalType": "bool",
          "name": "",
          "type": "bool"
        }
      ],
      "stateMutability": "view",
      "type": "function"
    },
    {
      "inputs": [
        {
          "internalType": "address",
          "name": "_sender",
          "type": "address"
        }
      ],
      "name": "isOperator",
      "outputs": [
        {
          "internalType": "bool",
          "name": "",
          "type": "bool"
        }
      ],
      "stateMutability": "view",
      "type": "function"
    },
    {
      "inputs": [
        {
          "internalType": "address",
          "name": "_sender",
          "type": "address"
        }
      ],
      "name": "isSigner",
      "outputs": [
        {
          "internalType": "bool",
          "name": "",
          "type": "bool"
        }
      ],
      "stateMutability": "view",
      "type": "function"
    },
    {
      "inputs": [],
      "name": "pause",
      "outputs": [],
      "stateMutability": "nonpayable",
      "type": "function"
    },
    {
      "inputs": [],
      "name": "paused",
      "outputs": [
        {
          "internalType": "bool",
          "name": "",
          "type": "bool"
        }
      ],
      "stateMutability": "view",
      "type": "function"
    },
    {
      "inputs": [],
      "name": "proxiableUUID",
      "outputs": [
        {
          "internalType": "bytes32",
          "name": "",
          "type": "bytes32"
        }
      ],
      "stateMutability": "view",
      "type": "function"
    },
    {
      "inputs": [
        {
          "internalType": "address",
          "name": "token",
          "type": "address"
        }
      ],
      "name": "rebalanceFee",
      "outputs": [
        {
          "internalType": "uint256",
          "name": "fee",
          "type": "uint256"
        }
      ],
      "stateMutability": "view",
      "type": "function"
    },
    {
      "inputs": [
        {
          "internalType": "address",
          "name": "_token",
          "type": "address"
        },
        {
          "internalType": "address",
          "name": "_receiver",
          "type": "address"
        },
        {
          "internalType": "uint256",
          "name": "_rebalanceAmount",
          "type": "uint256"
        },
        {
          "internalType": "uint256",
          "name": "_protocolFee",
          "type": "uint256"
        },
        {
          "internalType": "uint256",
          "name": "_referralFee",
          "type": "uint256"
        },
        {
          "internalType": "uint256",
          "name": "_rebalanceFee",
          "type": "uint256"
        }
      ],
      "name": "rebalanceFundSameChain",
      "outputs": [],
      "stateMutability": "nonpayable",
      "type": "function"
    },
    {
      "inputs": [
        {
          "internalType": "address",
          "name": "_tokenAddress",
          "type": "address"
        },
        {
          "internalType": "uint256",
          "name": "_amount",
          "type": "uint256"
        }
      ],
      "name": "receiveWithdrawFee",
      "outputs": [],
      "stateMutability": "nonpayable",
      "type": "function"
    },
    {
      "inputs": [
        {
          "internalType": "address",
          "name": "token",
          "type": "address"
        }
      ],
      "name": "referralFee",
      "outputs": [
        {
          "internalType": "uint256",
          "name": "fee",
          "type": "uint256"
        }
      ],
      "stateMutability": "view",
      "type": "function"
    },
    {
      "inputs": [
        {
          "internalType": "bytes32",
          "name": "role",
          "type": "bytes32"
        },
        {
          "internalType": "address",
          "name": "callerConfirmation",
          "type": "address"
        }
      ],
      "name": "renounceRole",
      "outputs": [],
      "stateMutability": "nonpayable",
      "type": "function"
    },
    {
      "inputs": [
        {
          "internalType": "bytes32",
          "name": "role",
          "type": "bytes32"
        },
        {
          "internalType": "address",
          "name": "account",
          "type": "address"
        }
      ],
      "name": "revokeRole",
      "outputs": [],
      "stateMutability": "nonpayable",
      "type": "function"
    },
    {
      "inputs": [
        {
          "internalType": "address",
          "name": "_moneyFiController",
          "type": "address"
        }
      ],
      "name": "setController",
      "outputs": [],
      "stateMutability": "nonpayable",
      "type": "function"
    },
    {
      "inputs": [
        {
          "internalType": "address",
          "name": "_feeTo",
          "type": "address"
        }
      ],
      "name": "setFeeTo",
      "outputs": [],
      "stateMutability": "nonpayable",
      "type": "function"
    },
    {
      "inputs": [
        {
          "internalType": "bytes4",
          "name": "interfaceId",
          "type": "bytes4"
        }
      ],
      "name": "supportsInterface",
      "outputs": [
        {
          "internalType": "bool",
          "name": "",
          "type": "bool"
        }
      ],
      "stateMutability": "view",
      "type": "function"
    },
    {
      "inputs": [
        {
          "internalType": "address",
          "name": "token",
          "type": "address"
        }
      ],
      "name": "totalProtocolFee",
      "outputs": [
        {
          "internalType": "uint256",
          "name": "totalFee",
          "type": "uint256"
        }
      ],
      "stateMutability": "view",
      "type": "function"
    },
    {
      "inputs": [
        {
          "internalType": "address",
          "name": "_tokenAddress",
          "type": "address"
        },
        {
          "internalType": "address",
          "name": "_depositor",
          "type": "address"
        },
        {
          "internalType": "uint256",
          "name": "_amount",
          "type": "uint256"
        }
      ],
      "name": "transferFundFromRouterToFundVault",
      "outputs": [],
      "stateMutability": "nonpayable",
      "type": "function"
    },
    {
      "inputs": [
        {
          "internalType": "address",
          "name": "_tokenAddress",
          "type": "address"
        },
        {
          "internalType": "address",
          "name": "_userAddress",
          "type": "address"
        },
        {
          "internalType": "uint256",
          "name": "_amount",
          "type": "uint256"
        },
        {
          "internalType": "uint256",
          "name": "_distributionFee",
          "type": "uint256"
        }
      ],
      "name": "transferFundToRouter",
      "outputs": [],
      "stateMutability": "nonpayable",
      "type": "function"
    },
    {
      "inputs": [
        {
          "internalType": "address",
          "name": "_tokenAddress",
          "type": "address"
        },
        {
          "internalType": "address",
          "name": "_userAddress",
          "type": "address"
        },
        {
          "internalType": "uint256",
          "name": "_amount",
          "type": "uint256"
        },
        {
          "internalType": "uint256",
          "name": "_distributionFee",
          "type": "uint256"
        }
      ],
      "name": "transferFundToRouterCrossChain",
      "outputs": [],
      "stateMutability": "nonpayable",
      "type": "function"
    },
    {
      "inputs": [],
      "name": "unpause",
      "outputs": [],
      "stateMutability": "nonpayable",
      "type": "function"
    },
    {
      "inputs": [
        {
          "internalType": "address",
          "name": "newImplementation",
          "type": "address"
        },
        {
          "internalType": "bytes",
          "name": "data",
          "type": "bytes"
        }
      ],
      "name": "upgradeToAndCall",
      "outputs": [],
      "stateMutability": "payable",
      "type": "function"
    },
    {
      "inputs": [
        {
          "internalType": "address",
          "name": "user",
          "type": "address"
        },
        {
          "internalType": "uint256",
          "name": "",
          "type": "uint256"
        }
      ],
      "name": "userStrategy",
      "outputs": [
        {
          "internalType": "address",
          "name": "strategy",
          "type": "address"
        }
      ],
      "stateMutability": "view",
      "type": "function"
    },
    {
      "inputs": [
        {
          "internalType": "address[]",
          "name": "supportedTokens",
          "type": "address[]"
        }
      ],
      "name": "withdrawDistributeFee",
      "outputs": [],
      "stateMutability": "nonpayable",
      "type": "function"
    },
    {
      "inputs": [
        {
          "internalType": "address",
          "name": "token",
          "type": "address"
        }
      ],
      "name": "withdrawFee",
      "outputs": [
        {
          "internalType": "uint256",
          "name": "fee",
          "type": "uint256"
        }
      ],
      "stateMutability": "view",
      "type": "function"
    },
    {
      "inputs": [
        {
          "internalType": "address[]",
          "name": "supportedTokens",
          "type": "address[]"
        }
      ],
      "name": "withdrawProtocolFee",
      "outputs": [],
      "stateMutability": "nonpayable",
      "type": "function"
    },
    {
      "inputs": [
        {
          "internalType": "address[]",
          "name": "supportedTokens",
          "type": "address[]"
        }
      ],
      "name": "withdrawRebalanceFee",
      "outputs": [],
      "stateMutability": "nonpayable",
      "type": "function"
    },
    {
      "inputs": [
        {
          "internalType": "address[]",
          "name": "supportedTokens",
          "type": "address[]"
        }
      ],
      "name": "withdrawReferralFee",
      "outputs": [],
      "stateMutability": "nonpayable",
      "type": "function"
    },
    {
      "inputs": [
        {
          "internalType": "address",
          "name": "_userAddress",
          "type": "address"
        },
        {
          "internalType": "address",
          "name": "_receiver",
          "type": "address"
        },
        {
          "internalType": "address",
          "name": "_tokenAddress",
          "type": "address"
        },
        {
          "internalType": "uint256",
          "name": "_amount",
          "type": "uint256"
        }
      ],
      "name": "withdrawUnDistributedFundToUser",
      "outputs": [],
      "stateMutability": "nonpayable",
      "type": "function"
    },
    {
      "inputs": [
        {
          "internalType": "address[]",
          "name": "supportedTokens",
          "type": "address[]"
        }
      ],
      "name": "withdrawWithdrawalFee",
      "outputs": [],
      "stateMutability": "nonpayable",
      "type": "function"
    }
  ],
  "bytecode": "0x60a060405230608052348015610013575f80fd5b5061001c610021565b6100d3565b7ff0c57e16840df040f15088dc2f81fe391c3923bec73e23a9662efc9c229c6a00805468010000000000000000900460ff16156100715760405163f92ee8a960e01b815260040160405180910390fd5b80546001600160401b03908116146100d05780546001600160401b0319166001600160401b0390811782556040519081527fc7f505b2f371ae2175ee4913f4499e1f2633a7b5936321eed1cdaeb6115181d29060200160405180910390a15b50565b608051613cc76100f95f395f8181612968015281816129910152612af30152613cc75ff3fe6080604052600436106102a5575f3560e01c80636d70f7ae1161016f57806392eefe9b116100d8578063bd45040911610092578063d547741f1161006d578063d547741f146108c2578063e1f16713146108e1578063f46901ed14610900578063f77c47911461091f575f80fd5b8063bd45040914610865578063c0c53b8b14610884578063ca15c873146108a3575f80fd5b806392eefe9b1461078b578063983d2737146107aa578063a16a95f3146107ca578063a217fddf146107e9578063a3246ad3146107fc578063ad3cb1cc14610828575f80fd5b80637f00e41f116101295780637f00e41f146106a95780638456cb59146106c8578063850ba8ea146106dc57806387cb191c146106fb5780639010d07c1461074d57806391d148541461076c575f80fd5b80636d70f7ae146105ee578063745e87f71461060d57806375b238fc1461062c578063787e16211461064c5780637df73e271461066b5780637e20cf711461068a575f80fd5b80632f2ff15d11610211578063582abd12116101cb578063582abd12146105235780635a0e9940146105435780635c975abb1461056e5780635d0724f3146105915780636ce1558b146105b05780636d3ac990146105cf575f80fd5b80632f2ff15d1461047f57806336568abe1461049e5780633f4ba83a146104bd5780634e281a7b146104d15780634f1ef286146104fc57806352d1902d1461050f575f80fd5b80631ac3ddeb116102625780631ac3ddeb146103ad5780632174981c146103d8578063248a9ca31461040357806324d7806c146104225780632960c0c4146104415780632efeb46514610460575f80fd5b8063017e7e58146102a957806301ffc9a7146102e55780630952ff54146103145780630a766ab81461034257806316c30d751461036d57806318139f471461038e575b5f80fd5b3480156102b4575f80fd5b506001546102c8906001600160a01b031681565b6040516001600160a01b0390911681526020015b60405180910390f35b3480156102f0575f80fd5b506103046102ff366004613576565b61093d565b60405190151581526020016102dc565b34801561031f575f80fd5b506103345f80516020613bd283398151915281565b6040519081526020016102dc565b34801561034d575f80fd5b5061033461035c3660046135b1565b60036020525f908152604090205481565b348015610378575f80fd5b5061038c610387366004613611565b610967565b005b348015610399575f80fd5b5061038c6103a83660046136c5565b610a54565b3480156103b8575f80fd5b506103346103c73660046135b1565b60086020525f908152604090205481565b3480156103e3575f80fd5b506103346103f23660046135b1565b60076020525f908152604090205481565b34801561040e575f80fd5b5061033461041d36600461371a565b610d37565b34801561042d575f80fd5b5061030461043c3660046135b1565b610d57565b34801561044c575f80fd5b5061038c61045b366004613611565b610d6f565b34801561046b575f80fd5b5061038c61047a366004613731565b610e57565b34801561048a575f80fd5b5061038c610499366004613774565b610ffc565b3480156104a9575f80fd5b5061038c6104b8366004613774565b61101e565b3480156104c8575f80fd5b5061038c611051565b3480156104dc575f80fd5b506103346104eb3660046135b1565b60056020525f908152604090205481565b61038c61050a3660046137a2565b611081565b34801561051a575f80fd5b506103346110a0565b34801561052e575f80fd5b506103345f80516020613b9283398151915281565b34801561054e575f80fd5b5061033461055d3660046135b1565b60066020525f908152604090205481565b348015610579575f80fd5b505f80516020613c728339815191525460ff16610304565b34801561059c575f80fd5b5061038c6105ab366004613611565b6110bb565b3480156105bb575f80fd5b5061038c6105ca366004613731565b6111a3565b3480156105da575f80fd5b5061038c6105e9366004613849565b611344565b3480156105f9575f80fd5b506103046106083660046135b1565b6114cb565b348015610618575f80fd5b50610334610627366004613873565b6114e3565b348015610637575f80fd5b506103345f80516020613bf283398151915281565b348015610657575f80fd5b5061038c6106663660046138b1565b61164c565b348015610676575f80fd5b506103046106853660046135b1565b6118c7565b348015610695575f80fd5b5061038c6106a43660046138ff565b6118df565b3480156106b4575f80fd5b5061038c6106c3366004613873565b611aa3565b3480156106d3575f80fd5b5061038c611dd8565b3480156106e7575f80fd5b5061038c6106f6366004613611565b611e06565b348015610706575f80fd5b5061071a610715366004613931565b611eee565b6040516102dc91908151815260208083015190820152604080830151908201526060918201519181019190915260800190565b348015610758575f80fd5b506102c861076736600461395d565b611f6f565b348015610777575f80fd5b50610304610786366004613774565b611f9c565b348015610796575f80fd5b5061038c6107a53660046135b1565b611fd2565b3480156107b5575f80fd5b506103345f80516020613c3283398151915281565b3480156107d5575f80fd5b506103046107e43660046135b1565b612040565b3480156107f4575f80fd5b506103345f81565b348015610807575f80fd5b5061081b61081636600461371a565b612058565b6040516102dc919061397d565b348015610833575f80fd5b50610858604051806040016040528060058152602001640352e302e360dc1b81525081565b6040516102dc91906139c8565b348015610870575f80fd5b506102c861087f366004613849565b612081565b34801561088f575f80fd5b5061038c61089e3660046139fd565b6120b5565b3480156108ae575f80fd5b506103346108bd36600461371a565b6121f7565b3480156108cd575f80fd5b5061038c6108dc366004613774565b61221b565b3480156108ec575f80fd5b5061038c6108fb366004613611565b612237565b34801561090b575f80fd5b5061038c61091a3660046135b1565b61231f565b34801561092a575f80fd5b505f546102c8906001600160a01b031681565b5f6001600160e01b03198216635a05180f60e01b148061096157506109618261238e565b92915050565b61097033612040565b61098d5760405163dade674960e01b815260040160405180910390fd5b6109956123c2565b80515f5b81811015610a4f575f8382815181106109b4576109b4613a45565b6020908102919091018101516001600160a01b0381165f90815260079092526040909120549091508015610a45576001600160a01b038083165f81815260076020526040812055600154610a099216836123f2565b7f11fcf3e92e7d98739b6c74166ba1cb615c8d0e04a8ebf6c66520b21f9550cb4d828242604051610a3c93929190613a59565b60405180910390a15b5050600101610999565b505050565b5f8054906101000a90046001600160a01b03166001600160a01b031663f887ea406040518163ffffffff1660e01b8152600401602060405180830381865afa158015610aa2573d5f803e3d5ffd5b505050506040513d601f19601f82011682018060405250810190610ac69190613a7a565b6001600160a01b0316336001600160a01b031614158015610b6a57505f8054906101000a90046001600160a01b03166001600160a01b03166348db35096040518163ffffffff1660e01b8152600401602060405180830381865afa158015610b30573d5f803e3d5ffd5b505050506040513d601f19601f82011682018060405250810190610b549190613a7a565b6001600160a01b0316336001600160a01b031614155b15610b885760405163466d7fef60e01b815260040160405180910390fd5b610b9186612451565b5f81610b9d8587613aa9565b610ba79190613aa9565b9050610bbe6001600160a01b0388163330846124e0565b6001600160a01b038088165f908152600260209081526040808320938a1683529290529081206001018054879290610bf7908490613aa9565b90915550506001600160a01b038088165f908152600260209081526040808320938a16835292905220426003909101558215610c5a576001600160a01b0387165f9081526007602052604081208054859290610c54908490613aa9565b90915550505b6001600160a01b0387165f9081526006602052604081208054849290610c81908490613aa9565b909155505082841115610cc557610c988385613abc565b6001600160a01b0388165f9081526003602052604081208054909190610cbf908490613aa9565b90915550505b610cd0878787612519565b6040805186815260208101869052908101849052606081018390524260808201526001600160a01b0380881691908916907f299daeb24948430e310f3dfcd7f626ef2e09091dd6961557b8e63cb015cfaebc9060a00160405180910390a350505050505050565b5f9081525f80516020613c52833981519152602052604090206001015490565b5f6109615f80516020613bf283398151915283611f9c565b610d7833612040565b610d955760405163dade674960e01b815260040160405180910390fd5b610d9d6123c2565b80515f5b81811015610a4f575f838281518110610dbc57610dbc613a45565b6020908102919091018101516001600160a01b0381165f90815260059092526040909120549091508015610e4d576001600160a01b038083165f81815260056020526040812055600154610e119216836123f2565b7fa847405bc06d6d01d553be51a9ffa520e6c699bb72f95838e27ab25abeb8191a828242604051610e4493929190613a59565b60405180910390a15b5050600101610da1565b5f8054906101000a90046001600160a01b03166001600160a01b031663f887ea406040518163ffffffff1660e01b8152600401602060405180830381865afa158015610ea5573d5f803e3d5ffd5b505050506040513d601f19601f82011682018060405250810190610ec99190613a7a565b6001600160a01b0316336001600160a01b031614158015610f6d57505f8054906101000a90046001600160a01b03166001600160a01b03166348db35096040518163ffffffff1660e01b8152600401602060405180830381865afa158015610f33573d5f803e3d5ffd5b505050506040513d601f19601f82011682018060405250810190610f579190613a7a565b6001600160a01b0316336001600160a01b031614155b15610f8b5760405163466d7fef60e01b815260040160405180910390fd5b610f936123c2565b5f610fa18585855f86612616565b604080516001600160a01b0388168152602081018690529081018290524260608201529091507f25b36cab002fd7e1c1a1391667fe774813e66d6be03c9126e6d940dc4fbb801f906080015b60405180910390a15050505050565b61100582610d37565b61100e81612879565b6110188383612883565b50505050565b6001600160a01b03811633146110475760405163334bd91960e11b815260040160405180910390fd5b610a4f82826128c5565b61105a33612040565b6110775760405163dade674960e01b815260040160405180910390fd5b61107f6128fe565b565b61108961295d565b61109282612a01565b61109c8282612a27565b5050565b5f6110a9612ae8565b505f80516020613c1283398151915290565b6110c433612040565b6110e15760405163dade674960e01b815260040160405180910390fd5b6110e96123c2565b80515f5b81811015610a4f575f83828151811061110857611108613a45565b6020908102919091018101516001600160a01b0381165f90815260069092526040909120549091508015611199576001600160a01b038083165f8181526006602052604081205560015461115d9216836123f2565b7f10eb2094ea20fb9195159ef517870f95d8d4cb518de33ee575d94f1b7e3f675d82824260405161119093929190613a59565b60405180910390a15b50506001016110ed565b5f8054906101000a90046001600160a01b03166001600160a01b031663f887ea406040518163ffffffff1660e01b8152600401602060405180830381865afa1580156111f1573d5f803e3d5ffd5b505050506040513d601f19601f820116820180604052508101906112159190613a7a565b6001600160a01b0316336001600160a01b0316141580156112b957505f8054906101000a90046001600160a01b03166001600160a01b03166348db35096040518163ffffffff1660e01b8152600401602060405180830381865afa15801561127f573d5f803e3d5ffd5b505050506040513d601f19601f820116820180604052508101906112a39190613a7a565b6001600160a01b0316336001600160a01b031614155b156112d75760405163466d7fef60e01b815260040160405180910390fd5b6112df6123c2565b5f6112ed8585858686612616565b604080516001600160a01b038816815260208101869052908101829052606081018590524260808201529091507fdab8d8127a8b6b8b7861f4f8d6cc11e3f1de9a8c916c415891c4179fe3fc040b9060a001610fed565b5f8054906101000a90046001600160a01b03166001600160a01b031663f887ea406040518163ffffffff1660e01b8152600401602060405180830381865afa158015611392573d5f803e3d5ffd5b505050506040513d601f19601f820116820180604052508101906113b69190613a7a565b6001600160a01b0316336001600160a01b03161415801561145a57505f8054906101000a90046001600160a01b03166001600160a01b03166348db35096040518163ffffffff1660e01b8152600401602060405180830381865afa158015611420573d5f803e3d5ffd5b505050506040513d601f19601f820116820180604052508101906114449190613a7a565b6001600160a01b0316336001600160a01b031614155b156114785760405163466d7fef60e01b815260040160405180910390fd5b6114806123c2565b61148982612451565b6001600160a01b0382165f90815260086020526040812080548392906114b0908490613aa9565b9091555061109c90506001600160a01b0383163330846124e0565b5f6109615f80516020613c3283398151915283611f9c565b5f6114ec6123c2565b6114f4612b31565b6114fe8285612b7b565b6001600160a01b038085165f90815260026020908152604080832093871683529290529081208054849290611534908490613aa9565b90915550506001600160a01b038085165f90815260026020908152604080832093871683529290529081206001018054849290611572908490613aa9565b90915550506001600160a01b038085165f908152600260209081526040808320938716835292905220426003909101556115ad848484612519565b6115c26001600160a01b0385163330856124e0565b604080516001600160a01b03808716825285166020820152908101839052606081018390524260808201527f490c69fa910b4830e34634a0039f574de1662911de63700086cc286ea83ca68a9060a00160405180910390a1508061164560017f9b779b17422d0df92223018b32b4d1fa46e071723d6817e2486d003becc55f0055565b9392505050565b5f8054906101000a90046001600160a01b03166001600160a01b031663f887ea406040518163ffffffff1660e01b8152600401602060405180830381865afa15801561169a573d5f803e3d5ffd5b505050506040513d601f19601f820116820180604052508101906116be9190613a7a565b6001600160a01b0316336001600160a01b03161415801561176257505f8054906101000a90046001600160a01b03166001600160a01b03166348db35096040518163ffffffff1660e01b8152600401602060405180830381865afa158015611728573d5f803e3d5ffd5b505050506040513d601f19601f8201168201806040525081019061174c9190613a7a565b6001600160a01b0316336001600160a01b031614155b156117805760405163466d7fef60e01b815260040160405180910390fd5b6117886123c2565b5f81116117a85760405163162908e360e11b815260040160405180910390fd5b6001600160a01b038083165f90815260026020908152604080832093881683529290522060010154818110156117f157604051632ca2f52b60e11b815260040160405180910390fd5b6001600160a01b038084165f9081526002602090815260408083209389168352929052908120600101805484929061182a908490613abc565b90915550506001600160a01b038084165f90815260026020908152604080832093891683529290522042600390910155611865838684612c56565b6118796001600160a01b03841685846123f2565b604080516001600160a01b038088168252851660208201529081018390524260608201527f82b3e8ab6b1751482b438411703f519770d1bb8a45755d848056e1d9323dbd7f90608001610fed565b5f6109615f80516020613b9283398151915283611f9c565b5f8054906101000a90046001600160a01b03166001600160a01b031663f887ea406040518163ffffffff1660e01b8152600401602060405180830381865afa15801561192d573d5f803e3d5ffd5b505050506040513d601f19601f820116820180604052508101906119519190613a7a565b6001600160a01b0316336001600160a01b0316141580156119f557505f8054906101000a90046001600160a01b03166001600160a01b03166348db35096040518163ffffffff1660e01b8152600401602060405180830381865afa1580156119bb573d5f803e3d5ffd5b505050506040513d601f19601f820116820180604052508101906119df9190613a7a565b6001600160a01b0316336001600160a01b031614155b15611a135760405163466d7fef60e01b815260040160405180910390fd5b611a1c83612451565b8015611a4f576001600160a01b0383165f9081526007602052604081208054839290611a49908490613aa9565b90915550505b80821115611a8e57611a618183613abc565b6001600160a01b0384165f9081526003602052604081208054909190611a88908490613aa9565b90915550505b610a4f6001600160a01b0384163330856124e0565b5f8054906101000a90046001600160a01b03166001600160a01b031663f887ea406040518163ffffffff1660e01b8152600401602060405180830381865afa158015611af1573d5f803e3d5ffd5b505050506040513d601f19601f82011682018060405250810190611b159190613a7a565b6001600160a01b0316336001600160a01b031614158015611bb957505f8054906101000a90046001600160a01b03166001600160a01b03166348db35096040518163ffffffff1660e01b8152600401602060405180830381865afa158015611b7f573d5f803e3d5ffd5b505050506040513d601f19601f82011682018060405250810190611ba39190613a7a565b6001600160a01b0316336001600160a01b031614155b15611bd75760405163466d7fef60e01b815260040160405180910390fd5b611bdf6123c2565b611be883612451565b5f8111611c085760405163162908e360e11b815260040160405180910390fd5b6040516370a0823160e01b81523060048201525f906001600160a01b038516906370a0823190602401602060405180830381865afa158015611c4c573d5f803e3d5ffd5b505050506040513d601f19601f82011682018060405250810190611c709190613acf565b9050611c876001600160a01b0385163330856124e0565b6040516370a0823160e01b81523060048201525f906001600160a01b038616906370a0823190602401602060405180830381865afa158015611ccb573d5f803e3d5ffd5b505050506040513d601f19601f82011682018060405250810190611cef9190613acf565b905082611cfc8383613abc565b14611d1a5760405163162908e360e11b815260040160405180910390fd5b6001600160a01b038086165f90815260026020908152604080832093881683529290529081206001018054859290611d53908490613aa9565b90915550506001600160a01b038086165f90815260026020908152604080832093881683529290522042600390910155611d8e858585612519565b604080518481524260208201526001600160a01b038716917fff0446d0db6817af7fe360f2bbe34034f64fdb46c3df0d02fe97d7c10d0ebbed910160405180910390a25050505050565b611de133612040565b611dfe5760405163dade674960e01b815260040160405180910390fd5b61107f612dad565b611e0f33612040565b611e2c5760405163dade674960e01b815260040160405180910390fd5b611e346123c2565b80515f5b81811015610a4f575f838281518110611e5357611e53613a45565b6020908102919091018101516001600160a01b0381165f90815260089092526040909120549091508015611ee4576001600160a01b038083165f81815260086020526040812055600154611ea89216836123f2565b7fc9c9639b55013cade6e83a53a51404fb3719afdb5f8cc2d783064962e0504f5d828242604051611edb93929190613a59565b60405180910390a15b5050600101611e38565b611f1560405180608001604052805f81526020015f81526020015f81526020015f81525090565b506001600160a01b039182165f908152600260208181526040808420949095168352928352908390208351608081018552815481526001820154938101939093529081015492820192909252600390910154606082015290565b5f8281525f80516020613bb2833981519152602081905260408220611f949084612df5565b949350505050565b5f9182525f80516020613c52833981519152602090815260408084206001600160a01b0393909316845291905290205460ff1690565b611fdb33610d57565b611ff857604051632d4d7bb360e01b815260040160405180910390fd5b6001600160a01b03811661201f5760405163706e379b60e11b815260040160405180910390fd5b5f80546001600160a01b0319166001600160a01b0392909216919091179055565b5f6109615f80516020613bd283398151915283611f9c565b5f8181525f80516020613bb2833981519152602081905260409091206060919061164590612e00565b6004602052815f5260405f20818154811061209a575f80fd5b5f918252602090912001546001600160a01b03169150829050565b5f6120be612e0c565b805490915060ff600160401b820416159067ffffffffffffffff165f811580156120e55750825b90505f8267ffffffffffffffff1660011480156121015750303b155b90508115801561210f575080155b1561212d5760405163f92ee8a960e01b815260040160405180910390fd5b845467ffffffffffffffff19166001178555831561215757845460ff60401b1916600160401b1785555b61215f612e34565b612167612e34565b61216f612e3c565b61217888612e4c565b5f80546001600160a01b03808a166001600160a01b031992831617909255600180549289169290911691909117905583156121ed57845460ff60401b19168555604051600181527fc7f505b2f371ae2175ee4913f4499e1f2633a7b5936321eed1cdaeb6115181d29060200160405180910390a15b5050505050505050565b5f8181525f80516020613bb283398151915260208190526040822061164590612f3f565b61222482610d37565b61222d81612879565b61101883836128c5565b61224033612040565b61225d5760405163dade674960e01b815260040160405180910390fd5b6122656123c2565b80515f5b81811015610a4f575f83828151811061228457612284613a45565b6020908102919091018101516001600160a01b0381165f90815260039092526040909120549091508015612315576001600160a01b038083165f818152600360205260408120556001546122d99216836123f2565b7f0902e9241db9db18e79db88b0c4de3ad9d8ad0e0c38b4ee4ff61fa7cc73d3bfa82824260405161230c93929190613a59565b60405180910390a15b5050600101612269565b61232833610d57565b61234557604051632d4d7bb360e01b815260040160405180910390fd5b6001600160a01b03811661236c5760405163706e379b60e11b815260040160405180910390fd5b600180546001600160a01b0319166001600160a01b0392909216919091179055565b5f6001600160e01b03198216637965db0b60e01b148061096157506301ffc9a760e01b6001600160e01b0319831614610961565b5f80516020613c728339815191525460ff161561107f5760405163d93c066560e01b815260040160405180910390fd5b6040516001600160a01b03838116602483015260448201839052610a4f91859182169063a9059cbb906064015b604051602081830303815290604052915060e01b6020820180516001600160e01b038381831617835250505050612f48565b5f546040516313a7f86f60e21b81526001600160a01b03838116600483015290911690634e9fe1bc9060240160a060405180830381865afa158015612498573d5f803e3d5ffd5b505050506040513d601f19601f820116820180604052508101906124bc9190613ae6565b608001516124dd576040516333084a1960e01b815260040160405180910390fd5b50565b6040516001600160a01b0384811660248301528381166044830152606482018390526110189186918216906323b872dd9060840161241f565b5f80546040516313a7f86f60e21b81526001600160a01b03868116600483015290911690634e9fe1bc9060240160a060405180830381865afa158015612561573d5f803e3d5ffd5b505050506040513d601f19601f820116820180604052508101906125859190613ae6565b80519091506001600160a01b0381166125b1576040516337de6bdf60e01b815260040160405180910390fd5b6040516340c10f1960e01b81526001600160a01b038581166004830152602482018590528216906340c10f19906044015b5f604051808303815f87803b1580156125f9575f80fd5b505af115801561260b573d5f803e3d5ffd5b505050505050505050565b5f61261f6123c2565b5f841161263f5760405163162908e360e11b815260040160405180910390fd5b81841161265f5760405163c3832bbf60e01b815260040160405180910390fd5b6126698285613abc565b905061267486612451565b6001600160a01b038087165f908152600260208181526040808420948a168452938152918390208351608081018552815481526001820154938101849052918101549382019390935260039092015460608301528791908611156126eb57604051632ca2f52b60e11b815260040160405180910390fd5b5f8682602001516126fc9190613abc565b6040516370a0823160e01b815230600482015290915087906001600160a01b038516906370a0823190602401602060405180830381865afa158015612743573d5f803e3d5ffd5b505050506040513d601f19601f820116820180604052508101906127679190613acf565b101561278657604051632ca2f52b60e11b815260040160405180910390fd5b6001600160a01b03808a165f908152600260209081526040808320938c168352929052205486118015906127b8575060015b156127f9576001600160a01b03808a165f908152600260209081526040808320938c16835292905290812080548892906127f3908490613abc565b90915550505b6001600160a01b03808a165f818152600260209081526040808320948d168352938152838220600181018690554260039091015591815260059091529081208054879290612848908490613aa9565b909155506128599050898989612c56565b61286d6001600160a01b03841633866123f2565b50505095945050505050565b6124dd8133612fb4565b5f5f80516020613bb28339815191528161289d8585612fed565b90508015611f94575f8581526020839052604090206128bc908561308e565b50949350505050565b5f5f80516020613bb2833981519152816128df85856130a2565b90508015611f94575f8581526020839052604090206128bc908561311b565b61290661312f565b5f80516020613c72833981519152805460ff191681557f5db9ee0a495bf2e6ff9c91a7834c1ba4fdd244a5e8aa4e537bd38aeae4b073aa335b6040516001600160a01b03909116815260200160405180910390a150565b306001600160a01b037f00000000000000000000000000000000000000000000000000000000000000001614806129e357507f00000000000000000000000000000000000000000000000000000000000000006001600160a01b03166129d75f80516020613c12833981519152546001600160a01b031690565b6001600160a01b031614155b1561107f5760405163703e46dd60e11b815260040160405180910390fd5b612a0a33612040565b6124dd5760405163dade674960e01b815260040160405180910390fd5b816001600160a01b03166352d1902d6040518163ffffffff1660e01b8152600401602060405180830381865afa925050508015612a81575060408051601f3d908101601f19168201909252612a7e91810190613acf565b60015b612aae57604051634c9c8ce360e01b81526001600160a01b03831660048201526024015b60405180910390fd5b5f80516020613c128339815191528114612ade57604051632a87526960e21b815260048101829052602401612aa5565b610a4f838361315e565b306001600160a01b037f0000000000000000000000000000000000000000000000000000000000000000161461107f5760405163703e46dd60e11b815260040160405180910390fd5b7f9b779b17422d0df92223018b32b4d1fa46e071723d6817e2486d003becc55f00805460011901612b7557604051633ee5aeb560e01b815260040160405180910390fd5b60029055565b5f80546040516313a7f86f60e21b81526001600160a01b03848116600483015290911690634e9fe1bc9060240160a060405180830381865afa158015612bc3573d5f803e3d5ffd5b505050506040513d601f19601f82011682018060405250810190612be79190613ae6565b90508060800151612c0b576040516333084a1960e01b815260040160405180910390fd5b8281602001511115610a4f5760405163162908e360e11b815260040160405180910390fd5b60017f9b779b17422d0df92223018b32b4d1fa46e071723d6817e2486d003becc55f0055565b5f80546040516313a7f86f60e21b81526001600160a01b03868116600483015290911690634e9fe1bc9060240160a060405180830381865afa158015612c9e573d5f803e3d5ffd5b505050506040513d601f19601f82011682018060405250810190612cc29190613ae6565b80519091506001600160a01b038116612cee576040516337de6bdf60e01b815260040160405180910390fd5b6040516370a0823160e01b81526001600160a01b0385811660048301528491908316906370a0823190602401602060405180830381865afa158015612d35573d5f803e3d5ffd5b505050506040513d601f19601f82011682018060405250810190612d599190613acf565b1015612d78576040516304d1b6eb60e51b815260040160405180910390fd5b604051632770a7eb60e21b81526001600160a01b03858116600483015260248201859052821690639dc29fac906044016125e2565b612db56123c2565b5f80516020613c72833981519152805460ff191660011781557f62e78cea01bee320cd4e420270b5ea74000d11b0c9f74754ebdbfc544b05a2583361293f565b5f61164583836131b3565b60605f611645836131d9565b5f807ff0c57e16840df040f15088dc2f81fe391c3923bec73e23a9662efc9c229c6a00610961565b61107f613232565b612e44613232565b61107f613257565b612e54613232565b612e5c612e34565b612e735f80516020613c3283398151915282612883565b50612e8b5f80516020613bf283398151915282612883565b50612ea35f80516020613bd283398151915282612883565b50612ebb5f80516020613b9283398151915282612883565b50612ed35f80516020613bf28339815191528061325f565b612ef75f80516020613bd28339815191525f80516020613bf283398151915261325f565b612f1b5f80516020613c328339815191525f80516020613bd283398151915261325f565b6124dd5f80516020613b928339815191525f80516020613bd283398151915261325f565b5f610961825490565b5f8060205f8451602086015f885af180612f67576040513d5f823e3d81fd5b50505f513d91508115612f7e578060011415612f8b565b6001600160a01b0384163b155b1561101857604051635274afe760e01b81526001600160a01b0385166004820152602401612aa5565b612fbe8282611f9c565b61109c5760405163e2517d3f60e01b81526001600160a01b038216600482015260248101839052604401612aa5565b5f5f80516020613c528339815191526130068484611f9c565b613085575f848152602082815260408083206001600160a01b03871684529091529020805460ff1916600117905561303b3390565b6001600160a01b0316836001600160a01b0316857f2f8788117e7eff1d82e926ec794901d17c78024a50270940304540a733656f0d60405160405180910390a46001915050610961565b5f915050610961565b5f611645836001600160a01b0384166132bf565b5f5f80516020613c528339815191526130bb8484611f9c565b15613085575f848152602082815260408083206001600160a01b0387168085529252808320805460ff1916905551339287917ff6391f5c32d9c69d2a47ea670b442974b53935d1edc7fd64eb21e047a839171b9190a46001915050610961565b5f611645836001600160a01b03841661330b565b5f80516020613c728339815191525460ff1661107f57604051638dfc202b60e01b815260040160405180910390fd5b613167826133e5565b6040516001600160a01b038316907fbc7cd75a20ee27fd9adebab32041f755214dbc6bffa90cc0225b39da2e5c2d3b905f90a28051156131ab57610a4f8282613448565b61109c6134ba565b5f825f0182815481106131c8576131c8613a45565b905f5260205f200154905092915050565b6060815f0180548060200260200160405190810160405280929190818152602001828054801561322657602002820191905f5260205f20905b815481526020019060010190808311613212575b50505050509050919050565b61323a6134d9565b61107f57604051631afcd79f60e31b815260040160405180910390fd5b612c30613232565b5f80516020613c528339815191525f61327784610d37565b5f85815260208490526040808220600101869055519192508491839187917fbd79b86ffe0ab8e8776151514217cd7cacd52c909f66475c3af44e129f0b00ff9190a450505050565b5f81815260018301602052604081205461330457508154600181810184555f848152602080822090930184905584548482528286019093526040902091909155610961565b505f610961565b5f8181526001830160205260408120548015613085575f61332d600183613abc565b85549091505f9061334090600190613abc565b905080821461339f575f865f01828154811061335e5761335e613a45565b905f5260205f200154905080875f01848154811061337e5761337e613a45565b5f918252602080832090910192909255918252600188019052604090208390555b85548690806133b0576133b0613b67565b600190038181905f5260205f20015f90559055856001015f8681526020019081526020015f205f905560019350505050610961565b806001600160a01b03163b5f0361341a57604051634c9c8ce360e01b81526001600160a01b0382166004820152602401612aa5565b5f80516020613c1283398151915280546001600160a01b0319166001600160a01b0392909216919091179055565b60605f80846001600160a01b0316846040516134649190613b7b565b5f60405180830381855af49150503d805f811461349c576040519150601f19603f3d011682016040523d82523d5f602084013e6134a1565b606091505b50915091506134b18583836134f2565b95945050505050565b341561107f5760405163b398979f60e01b815260040160405180910390fd5b5f6134e2612e0c565b54600160401b900460ff16919050565b606082613507576135028261354e565b611645565b815115801561351e57506001600160a01b0384163b155b1561354757604051639996b31560e01b81526001600160a01b0385166004820152602401612aa5565b5080611645565b80511561355d57805160208201fd5b60405163d6bda27560e01b815260040160405180910390fd5b5f60208284031215613586575f80fd5b81356001600160e01b031981168114611645575f80fd5b6001600160a01b03811681146124dd575f80fd5b5f602082840312156135c1575f80fd5b81356116458161359d565b634e487b7160e01b5f52604160045260245ffd5b604051601f8201601f1916810167ffffffffffffffff81118282101715613609576136096135cc565b604052919050565b5f60208284031215613621575f80fd5b813567ffffffffffffffff811115613637575f80fd5b8201601f81018413613647575f80fd5b803567ffffffffffffffff811115613661576136616135cc565b8060051b613671602082016135e0565b9182526020818401810192908101908784111561368c575f80fd5b6020850194505b838510156136ba57843592506136a88361359d565b82825260209485019490910190613693565b979650505050505050565b5f805f805f8060c087890312156136da575f80fd5b86356136e58161359d565b955060208701356136f58161359d565b95989597505050506040840135936060810135936080820135935060a0909101359150565b5f6020828403121561372a575f80fd5b5035919050565b5f805f8060808587031215613744575f80fd5b843561374f8161359d565b9350602085013561375f8161359d565b93969395505050506040820135916060013590565b5f8060408385031215613785575f80fd5b8235915060208301356137978161359d565b809150509250929050565b5f80604083850312156137b3575f80fd5b82356137be8161359d565b9150602083013567ffffffffffffffff8111156137d9575f80fd5b8301601f810185136137e9575f80fd5b803567ffffffffffffffff811115613803576138036135cc565b613816601f8201601f19166020016135e0565b81815286602083850101111561382a575f80fd5b816020840160208301375f602083830101528093505050509250929050565b5f806040838503121561385a575f80fd5b82356138658161359d565b946020939093013593505050565b5f805f60608486031215613885575f80fd5b83356138908161359d565b925060208401356138a08161359d565b929592945050506040919091013590565b5f805f80608085870312156138c4575f80fd5b84356138cf8161359d565b935060208501356138df8161359d565b925060408501356138ef8161359d565b9396929550929360600135925050565b5f805f60608486031215613911575f80fd5b833561391c8161359d565b95602085013595506040909401359392505050565b5f8060408385031215613942575f80fd5b823561394d8161359d565b915060208301356137978161359d565b5f806040838503121561396e575f80fd5b50508035926020909101359150565b602080825282518282018190525f918401906040840190835b818110156139bd5783516001600160a01b0316835260209384019390920191600101613996565b509095945050505050565b602081525f82518060208401528060208501604085015e5f604082850101526040601f19601f83011684010191505092915050565b5f805f60608486031215613a0f575f80fd5b8335613a1a8161359d565b92506020840135613a2a8161359d565b91506040840135613a3a8161359d565b809150509250925092565b634e487b7160e01b5f52603260045260245ffd5b6001600160a01b039390931683526020830191909152604082015260600190565b5f60208284031215613a8a575f80fd5b81516116458161359d565b634e487b7160e01b5f52601160045260245ffd5b8082018082111561096157610961613a95565b8181038181111561096157610961613a95565b5f60208284031215613adf575f80fd5b5051919050565b5f60a0828403128015613af7575f80fd5b5060405160a0810167ffffffffffffffff81118282101715613b1b57613b1b6135cc565b6040528251613b298161359d565b815260208381015190820152604080840151908201526060808401519082015260808301518015158114613b5b575f80fd5b60808201529392505050565b634e487b7160e01b5f52603160045260245ffd5b5f82518060208501845e5f92019182525091905056fe6c8d7f768a6bb4aafe85e8a2f5a9680355239c7e14646ed62b044e39de154512c1f6fe24621ce81ec5827caf0253cadb74709b061630e6b55e82371705932000c171260023d22a25a00a2789664c9334017843b831138c8ef03cc8897e5873d7f23ec0bb4210edd5cba85afd05127efcd2fc6a781bfed49188da1081670b22d8360894a13ba1a3210667c828492db98dca3e2076cc3735a920a3ca505d382bbc46a52cf33029de9f84853745a87af28464c80bf0346df1b32e205fc73319f62202dd7bc7dec4dceedda775e58dd541e08a116c6c53815c0bd028192f7b626800cd5ed15c6e187e77e9aee88184c21f4f2182ab5827cb3b7e07fbedcd63f03300a264697066735822122028b7239d0c70d30076841a02093587118bdbca6f98625efdc59cc09eb97f60f864736f6c634300081a0033",
  "linkReferences": {},
  "deployedLinkReferences": {}
}