{
  "_format": "hh-sol-artifact-1",
  "contractName": "MoneyFiRouter",
  "sourceName": "contracts/MoneyFiRouter.sol",
  "abi": [
    {
      "inputs": [],
      "stateMutability": "nonpayable",
      "type": "constructor"
    },
    {
      "inputs": [],
      "name": "AccessControlBadConfirmation",
      "type": "error"
    },
    {
      "inputs": [
        {
          "internalType": "address",
          "name": "account",
          "type": "address"
        },
        {
          "internalType": "bytes32",
          "name": "neededRole",
          "type": "bytes32"
        }
      ],
      "name": "AccessControlUnauthorizedAccount",
      "type": "error"
    },
    {
      "inputs": [
        {
          "internalType": "address",
          "name": "target",
          "type": "address"
        }
      ],
      "name": "AddressEmptyCode",
      "type": "error"
    },
    {
      "inputs": [],
      "name": "CanNotSwapToUnderLyToken",
      "type": "error"
    },
    {
      "inputs": [
        {
          "internalType": "address",
          "name": "implementation",
          "type": "address"
        }
      ],
      "name": "ERC1967InvalidImplementation",
      "type": "error"
    },
    {
      "inputs": [],
      "name": "ERC1967NonPayable",
      "type": "error"
    },
    {
      "inputs": [],
      "name": "EnforcedPause",
      "type": "error"
    },
    {
      "inputs": [],
      "name": "ExpectedPause",
      "type": "error"
    },
    {
      "inputs": [],
      "name": "FailedCall",
      "type": "error"
    },
    {
      "inputs": [],
      "name": "InsufficientBalance",
      "type": "error"
    },
    {
      "inputs": [],
      "name": "InvalidAdminRole",
      "type": "error"
    },
    {
      "inputs": [],
      "name": "InvalidAtLeastOperatorRole",
      "type": "error"
    },
    {
      "inputs": [],
      "name": "InvalidDelegateRole",
      "type": "error"
    },
    {
      "inputs": [],
      "name": "InvalidDexCrossChainExternal",
      "type": "error"
    },
    {
      "inputs": [],
      "name": "InvalidDexCrossChainInternal",
      "type": "error"
    },
    {
      "inputs": [],
      "name": "InvalidDexSwapExternalChain",
      "type": "error"
    },
    {
      "inputs": [],
      "name": "InvalidDexSwapInternalChain",
      "type": "error"
    },
    {
      "inputs": [],
      "name": "InvalidInitialization",
      "type": "error"
    },
    {
      "inputs": [],
      "name": "InvalidRebalanceAmount",
      "type": "error"
    },
    {
      "inputs": [],
      "name": "InvalidShare",
      "type": "error"
    },
    {
      "inputs": [],
      "name": "InvalidSignerRole",
      "type": "error"
    },
    {
      "inputs": [],
      "name": "InvalidStrategy",
      "type": "error"
    },
    {
      "inputs": [],
      "name": "InvalidStrategyExternalChain",
      "type": "error"
    },
    {
      "inputs": [],
      "name": "InvalidStrategyInternalChain",
      "type": "error"
    },
    {
      "inputs": [],
      "name": "InvalidStrategyToken",
      "type": "error"
    },
    {
      "inputs": [],
      "name": "InvalidSupportedTokenExternal",
      "type": "error"
    },
    {
      "inputs": [],
      "name": "InvalidSupportedTokenInternal",
      "type": "error"
    },
    {
      "inputs": [],
      "name": "InvalidSwapParam",
      "type": "error"
    },
    {
      "inputs": [],
      "name": "InvalidSystemFee",
      "type": "error"
    },
    {
      "inputs": [],
      "name": "InvalidTypeDexCrossChainSenderReceiver",
      "type": "error"
    },
    {
      "inputs": [],
      "name": "InvalidUnderlyingStrategyAsset",
      "type": "error"
    },
    {
      "inputs": [],
      "name": "InvalidWithdrawRequestArg",
      "type": "error"
    },
    {
      "inputs": [],
      "name": "NotInitializing",
      "type": "error"
    },
    {
      "inputs": [],
      "name": "ReentrancyGuardReentrantCall",
      "type": "error"
    },
    {
      "inputs": [],
      "name": "RequireDexActive",
      "type": "error"
    },
    {
      "inputs": [],
      "name": "RequiredAddressNotNull",
      "type": "error"
    },
    {
      "inputs": [
        {
          "internalType": "address",
          "name": "token",
          "type": "address"
        }
      ],
      "name": "SafeERC20FailedOperation",
      "type": "error"
    },
    {
      "inputs": [],
      "name": "SwapFailed",
      "type": "error"
    },
    {
      "inputs": [],
      "name": "UUPSUnauthorizedCallContext",
      "type": "error"
    },
    {
      "inputs": [
        {
          "internalType": "bytes32",
          "name": "slot",
          "type": "bytes32"
        }
      ],
      "name": "UUPSUnsupportedProxiableUUID",
      "type": "error"
    },
    {
      "inputs": [],
      "name": "WithdrawRateLimit",
      "type": "error"
    },
    {
      "anonymous": false,
      "inputs": [
        {
          "indexed": true,
          "internalType": "address",
          "name": "receiver",
          "type": "address"
        },
        {
          "indexed": true,
          "internalType": "address",
          "name": "tokenAddress",
          "type": "address"
        },
        {
          "indexed": false,
          "internalType": "uint256",
          "name": "depositAmount",
          "type": "uint256"
        },
        {
          "indexed": false,
          "internalType": "uint256",
          "name": "actualDepositAmount",
          "type": "uint256"
        },
        {
          "indexed": false,
          "internalType": "uint256",
          "name": "depositedAt",
          "type": "uint256"
        }
      ],
      "name": "DepositFund",
      "type": "event"
    },
    {
      "anonymous": false,
      "inputs": [
        {
          "indexed": true,
          "internalType": "address",
          "name": "strategyAddress",
          "type": "address"
        },
        {
          "indexed": true,
          "internalType": "address",
          "name": "depositor",
          "type": "address"
        },
        {
          "indexed": true,
          "internalType": "address",
          "name": "depositedTokenAddress",
          "type": "address"
        },
        {
          "indexed": false,
          "internalType": "uint256",
          "name": "amount",
          "type": "uint256"
        },
        {
          "indexed": false,
          "internalType": "address",
          "name": "swapContract",
          "type": "address"
        },
        {
          "indexed": false,
          "internalType": "address",
          "name": "underlyingAsset",
          "type": "address"
        },
        {
          "indexed": false,
          "internalType": "uint256",
          "name": "actualAmountOut",
          "type": "uint256"
        },
        {
          "indexed": false,
          "internalType": "uint256",
          "name": "strategyShare",
          "type": "uint256"
        },
        {
          "indexed": false,
          "internalType": "uint256",
          "name": "distributedFee",
          "type": "uint256"
        },
        {
          "indexed": false,
          "internalType": "uint256",
          "name": "distributedAt",
          "type": "uint256"
        }
      ],
      "name": "DistributeUserFund",
      "type": "event"
    },
    {
      "anonymous": false,
      "inputs": [
        {
          "indexed": false,
          "internalType": "uint64",
          "name": "version",
          "type": "uint64"
        }
      ],
      "name": "Initialized",
      "type": "event"
    },
    {
      "anonymous": false,
      "inputs": [
        {
          "indexed": false,
          "internalType": "address",
          "name": "account",
          "type": "address"
        }
      ],
      "name": "Paused",
      "type": "event"
    },
    {
      "anonymous": false,
      "inputs": [
        {
          "indexed": true,
          "internalType": "address",
          "name": "strategyAddress",
          "type": "address"
        },
        {
          "indexed": true,
          "internalType": "address",
          "name": "userAddress",
          "type": "address"
        },
        {
          "indexed": true,
          "internalType": "address",
          "name": "underlyingAsset",
          "type": "address"
        },
        {
          "indexed": false,
          "internalType": "uint256",
          "name": "receivedAmount",
          "type": "uint256"
        },
        {
          "indexed": false,
          "internalType": "int256",
          "name": "receivedReward",
          "type": "int256"
        },
        {
          "indexed": false,
          "internalType": "uint256",
          "name": "protocolFee",
          "type": "uint256"
        },
        {
          "indexed": false,
          "internalType": "uint256",
          "name": "referralFee",
          "type": "uint256"
        },
        {
          "indexed": false,
          "internalType": "uint256",
          "name": "rebalanceFee",
          "type": "uint256"
        },
        {
          "indexed": false,
          "internalType": "uint256",
          "name": "rebalancedAt",
          "type": "uint256"
        }
      ],
      "name": "RebalanceFundSameChain",
      "type": "event"
    },
    {
      "anonymous": false,
      "inputs": [
        {
          "indexed": true,
          "internalType": "bytes32",
          "name": "role",
          "type": "bytes32"
        },
        {
          "indexed": true,
          "internalType": "bytes32",
          "name": "previousAdminRole",
          "type": "bytes32"
        },
        {
          "indexed": true,
          "internalType": "bytes32",
          "name": "newAdminRole",
          "type": "bytes32"
        }
      ],
      "name": "RoleAdminChanged",
      "type": "event"
    },
    {
      "anonymous": false,
      "inputs": [
        {
          "indexed": true,
          "internalType": "bytes32",
          "name": "role",
          "type": "bytes32"
        },
        {
          "indexed": true,
          "internalType": "address",
          "name": "account",
          "type": "address"
        },
        {
          "indexed": true,
          "internalType": "address",
          "name": "sender",
          "type": "address"
        }
      ],
      "name": "RoleGranted",
      "type": "event"
    },
    {
      "anonymous": false,
      "inputs": [
        {
          "indexed": true,
          "internalType": "bytes32",
          "name": "role",
          "type": "bytes32"
        },
        {
          "indexed": true,
          "internalType": "address",
          "name": "account",
          "type": "address"
        },
        {
          "indexed": true,
          "internalType": "address",
          "name": "sender",
          "type": "address"
        }
      ],
      "name": "RoleRevoked",
      "type": "event"
    },
    {
      "anonymous": false,
      "inputs": [
        {
          "indexed": true,
          "internalType": "address",
          "name": "sender",
          "type": "address"
        },
        {
          "indexed": true,
          "internalType": "address",
          "name": "receiver",
          "type": "address"
        },
        {
          "indexed": true,
          "internalType": "address",
          "name": "tokenAddress",
          "type": "address"
        }
      ],
      "name": "SubmitWithdrawFundCrossChain",
      "type": "event"
    },
    {
      "anonymous": false,
      "inputs": [
        {
          "indexed": false,
          "internalType": "address",
          "name": "account",
          "type": "address"
        }
      ],
      "name": "Unpaused",
      "type": "event"
    },
    {
      "anonymous": false,
      "inputs": [
        {
          "indexed": true,
          "internalType": "address",
          "name": "implementation",
          "type": "address"
        }
      ],
      "name": "Upgraded",
      "type": "event"
    },
    {
      "anonymous": false,
      "inputs": [
        {
          "indexed": true,
          "internalType": "address",
          "name": "receiver",
          "type": "address"
        },
        {
          "indexed": true,
          "internalType": "address",
          "name": "user",
          "type": "address"
        },
        {
          "indexed": true,
          "internalType": "address",
          "name": "strategyAddress",
          "type": "address"
        },
        {
          "indexed": false,
          "internalType": "address",
          "name": "tokenAddress",
          "type": "address"
        },
        {
          "indexed": false,
          "internalType": "uint256",
          "name": "share",
          "type": "uint256"
        },
        {
          "indexed": false,
          "internalType": "uint256",
          "name": "actualWithdrawAmount",
          "type": "uint256"
        },
        {
          "indexed": false,
          "internalType": "uint256",
          "name": "protocolFee",
          "type": "uint256"
        },
        {
          "indexed": false,
          "internalType": "uint256",
          "name": "referralFee",
          "type": "uint256"
        },
        {
          "indexed": false,
          "internalType": "uint256",
          "name": "withdrawAt",
          "type": "uint256"
        }
      ],
      "name": "WithDrawFundSameChain",
      "type": "event"
    },
    {
      "anonymous": false,
      "inputs": [
        {
          "indexed": true,
          "internalType": "address",
          "name": "user",
          "type": "address"
        },
        {
          "indexed": true,
          "internalType": "uint256",
          "name": "chainId",
          "type": "uint256"
        },
        {
          "components": [
            {
              "internalType": "address",
              "name": "strategyAddress",
              "type": "address"
            },
            {
              "internalType": "uint256",
              "name": "share",
              "type": "uint256"
            },
            {
              "internalType": "bytes",
              "name": "externalCallData",
              "type": "bytes"
            }
          ],
          "indexed": false,
          "internalType": "struct RouterCommonType.WithdrawStrategySameChain[]",
          "name": "withdrawStrategySameChains",
          "type": "tuple[]"
        },
        {
          "components": [
            {
              "internalType": "address",
              "name": "tokenAddress",
              "type": "address"
            },
            {
              "internalType": "uint256",
              "name": "unDistributedAmount",
              "type": "uint256"
            }
          ],
          "indexed": false,
          "internalType": "struct RouterCommonType.WithdrawStrategySameChainUndistributed[]",
          "name": "unDistributedWithdraw",
          "type": "tuple[]"
        },
        {
          "indexed": false,
          "internalType": "address",
          "name": "tokenOut",
          "type": "address"
        },
        {
          "indexed": false,
          "internalType": "uint256",
          "name": "requestedAt",
          "type": "uint256"
        }
      ],
      "name": "WithdrawRequest",
      "type": "event"
    },
    {
      "inputs": [],
      "name": "ADMIN_DELEGATE_ROLE",
      "outputs": [
        {
          "internalType": "bytes32",
          "name": "",
          "type": "bytes32"
        }
      ],
      "stateMutability": "view",
      "type": "function"
    },
    {
      "inputs": [],
      "name": "ADMIN_ROLE",
      "outputs": [
        {
          "internalType": "bytes32",
          "name": "",
          "type": "bytes32"
        }
      ],
      "stateMutability": "view",
      "type": "function"
    },
    {
      "inputs": [],
      "name": "DEFAULT_ADMIN_ROLE",
      "outputs": [
        {
          "internalType": "bytes32",
          "name": "",
          "type": "bytes32"
        }
      ],
      "stateMutability": "view",
      "type": "function"
    },
    {
      "inputs": [],
      "name": "OPERATOR",
      "outputs": [
        {
          "internalType": "bytes32",
          "name": "",
          "type": "bytes32"
        }
      ],
      "stateMutability": "view",
      "type": "function"
    },
    {
      "inputs": [],
      "name": "SIGNER",
      "outputs": [
        {
          "internalType": "bytes32",
          "name": "",
          "type": "bytes32"
        }
      ],
      "stateMutability": "view",
      "type": "function"
    },
    {
      "inputs": [],
      "name": "UPGRADE_INTERFACE_VERSION",
      "outputs": [
        {
          "internalType": "string",
          "name": "",
          "type": "string"
        }
      ],
      "stateMutability": "view",
      "type": "function"
    },
    {
      "inputs": [],
      "name": "coolDownPeriodWithdrawRequest",
      "outputs": [
        {
          "internalType": "uint256",
          "name": "",
          "type": "uint256"
        }
      ],
      "stateMutability": "view",
      "type": "function"
    },
    {
      "inputs": [
        {
          "components": [
            {
              "components": [
                {
                  "internalType": "address",
                  "name": "strategyAddress",
                  "type": "address"
                },
                {
                  "internalType": "uint256",
                  "name": "share",
                  "type": "uint256"
                },
                {
                  "internalType": "bytes",
                  "name": "externalCallData",
                  "type": "bytes"
                }
              ],
              "internalType": "struct RouterCommonType.WithdrawStrategySameChain[]",
              "name": "withdrawStrategySameChains",
              "type": "tuple[]"
            },
            {
              "components": [
                {
                  "internalType": "address",
                  "name": "tokenAddress",
                  "type": "address"
                },
                {
                  "internalType": "uint256",
                  "name": "unDistributedAmount",
                  "type": "uint256"
                }
              ],
              "internalType": "struct RouterCommonType.WithdrawStrategySameChainUndistributed[]",
              "name": "unDistributedWithdraw",
              "type": "tuple[]"
            },
            {
              "internalType": "uint256",
              "name": "chainId",
              "type": "uint256"
            },
            {
              "internalType": "address",
              "name": "tokenOut",
              "type": "address"
            }
          ],
          "internalType": "struct RouterCommonType.WithdrawStrategyMultipleChains[]",
          "name": "_withdrawStrategyMultipleChains",
          "type": "tuple[]"
        }
      ],
      "name": "createWithdrawRequestOnAnotherChain",
      "outputs": [],
      "stateMutability": "nonpayable",
      "type": "function"
    },
    {
      "inputs": [
        {
          "components": [
            {
              "internalType": "address",
              "name": "tokenAddress",
              "type": "address"
            },
            {
              "internalType": "uint256",
              "name": "amount",
              "type": "uint256"
            }
          ],
          "internalType": "struct RouterCommonType.DepositParam",
          "name": "_depositParam",
          "type": "tuple"
        }
      ],
      "name": "depositFund",
      "outputs": [],
      "stateMutability": "nonpayable",
      "type": "function"
    },
    {
      "inputs": [
        {
          "components": [
            {
              "internalType": "address",
              "name": "strategyAddress",
              "type": "address"
            },
            {
              "internalType": "address",
              "name": "depositor",
              "type": "address"
            },
            {
              "internalType": "address",
              "name": "depositedTokenAddress",
              "type": "address"
            },
            {
              "internalType": "uint256",
              "name": "amount",
              "type": "uint256"
            },
            {
              "internalType": "uint256",
              "name": "distributionFee",
              "type": "uint256"
            },
            {
              "internalType": "bytes",
              "name": "externalCallData",
              "type": "bytes"
            }
          ],
          "internalType": "struct RouterCommonType.DepositToStrategySameChain",
          "name": "_depositToStrategy",
          "type": "tuple"
        },
        {
          "components": [
            {
              "internalType": "address",
              "name": "swapContract",
              "type": "address"
            },
            {
              "internalType": "uint256",
              "name": "amountOutMin",
              "type": "uint256"
            },
            {
              "internalType": "bool",
              "name": "isV3",
              "type": "bool"
            },
            {
              "internalType": "bytes",
              "name": "externalCallData",
              "type": "bytes"
            }
          ],
          "internalType": "struct RouterCommonType.SwapTokenWhenDepositParam",
          "name": "_swapTokenParam",
          "type": "tuple"
        }
      ],
      "name": "depositFundToStrategySameChainFromOperator",
      "outputs": [],
      "stateMutability": "nonpayable",
      "type": "function"
    },
    {
      "inputs": [
        {
          "internalType": "address",
          "name": "strategyAddress",
          "type": "address"
        }
      ],
      "name": "emergencyWithdrawFund",
      "outputs": [],
      "stateMutability": "nonpayable",
      "type": "function"
    },
    {
      "inputs": [
        {
          "internalType": "address",
          "name": "user",
          "type": "address"
        }
      ],
      "name": "getNextWithdrawRequestTime",
      "outputs": [
        {
          "internalType": "uint256",
          "name": "nextAllowedTimestamp",
          "type": "uint256"
        }
      ],
      "stateMutability": "view",
      "type": "function"
    },
    {
      "inputs": [
        {
          "internalType": "bytes32",
          "name": "role",
          "type": "bytes32"
        }
      ],
      "name": "getRoleAdmin",
      "outputs": [
        {
          "internalType": "bytes32",
          "name": "",
          "type": "bytes32"
        }
      ],
      "stateMutability": "view",
      "type": "function"
    },
    {
      "inputs": [
        {
          "internalType": "bytes32",
          "name": "role",
          "type": "bytes32"
        },
        {
          "internalType": "uint256",
          "name": "index",
          "type": "uint256"
        }
      ],
      "name": "getRoleMember",
      "outputs": [
        {
          "internalType": "address",
          "name": "",
          "type": "address"
        }
      ],
      "stateMutability": "view",
      "type": "function"
    },
    {
      "inputs": [
        {
          "internalType": "bytes32",
          "name": "role",
          "type": "bytes32"
        }
      ],
      "name": "getRoleMemberCount",
      "outputs": [
        {
          "internalType": "uint256",
          "name": "",
          "type": "uint256"
        }
      ],
      "stateMutability": "view",
      "type": "function"
    },
    {
      "inputs": [
        {
          "internalType": "bytes32",
          "name": "role",
          "type": "bytes32"
        }
      ],
      "name": "getRoleMembers",
      "outputs": [
        {
          "internalType": "address[]",
          "name": "",
          "type": "address[]"
        }
      ],
      "stateMutability": "view",
      "type": "function"
    },
    {
      "inputs": [
        {
          "internalType": "bytes32",
          "name": "role",
          "type": "bytes32"
        },
        {
          "internalType": "address",
          "name": "account",
          "type": "address"
        }
      ],
      "name": "grantRole",
      "outputs": [],
      "stateMutability": "nonpayable",
      "type": "function"
    },
    {
      "inputs": [
        {
          "internalType": "bytes32",
          "name": "role",
          "type": "bytes32"
        },
        {
          "internalType": "address",
          "name": "account",
          "type": "address"
        }
      ],
      "name": "hasRole",
      "outputs": [
        {
          "internalType": "bool",
          "name": "",
          "type": "bool"
        }
      ],
      "stateMutability": "view",
      "type": "function"
    },
    {
      "inputs": [
        {
          "internalType": "address",
          "name": "admin_",
          "type": "address"
        },
        {
          "internalType": "address",
          "name": "moneyFiController_",
          "type": "address"
        },
        {
          "internalType": "address",
          "name": "moneyFundVault_",
          "type": "address"
        }
      ],
      "name": "initialize",
      "outputs": [],
      "stateMutability": "nonpayable",
      "type": "function"
    },
    {
      "inputs": [
        {
          "internalType": "address",
          "name": "_sender",
          "type": "address"
        }
      ],
      "name": "isAdmin",
      "outputs": [
        {
          "internalType": "bool",
          "name": "",
          "type": "bool"
        }
      ],
      "stateMutability": "view",
      "type": "function"
    },
    {
      "inputs": [
        {
          "internalType": "address",
          "name": "_sender",
          "type": "address"
        }
      ],
      "name": "isDelegateAdmin",
      "outputs": [
        {
          "internalType": "bool",
          "name": "",
          "type": "bool"
        }
      ],
      "stateMutability": "view",
      "type": "function"
    },
    {
      "inputs": [
        {
          "internalType": "address",
          "name": "_sender",
          "type": "address"
        }
      ],
      "name": "isOperator",
      "outputs": [
        {
          "internalType": "bool",
          "name": "",
          "type": "bool"
        }
      ],
      "stateMutability": "view",
      "type": "function"
    },
    {
      "inputs": [
        {
          "internalType": "address",
          "name": "_sender",
          "type": "address"
        }
      ],
      "name": "isSigner",
      "outputs": [
        {
          "internalType": "bool",
          "name": "",
          "type": "bool"
        }
      ],
      "stateMutability": "view",
      "type": "function"
    },
    {
      "inputs": [
        {
          "internalType": "address",
          "name": "user",
          "type": "address"
        }
      ],
      "name": "lastRequestTimestamp",
      "outputs": [
        {
          "internalType": "uint256",
          "name": "timestamp",
          "type": "uint256"
        }
      ],
      "stateMutability": "view",
      "type": "function"
    },
    {
      "inputs": [],
      "name": "moneyFiController",
      "outputs": [
        {
          "internalType": "contract IMoneyFiController",
          "name": "",
          "type": "address"
        }
      ],
      "stateMutability": "view",
      "type": "function"
    },
    {
      "inputs": [],
      "name": "moneyFiFundVault",
      "outputs": [
        {
          "internalType": "contract IMoneyFiFundVault",
          "name": "",
          "type": "address"
        }
      ],
      "stateMutability": "view",
      "type": "function"
    },
    {
      "inputs": [],
      "name": "pause",
      "outputs": [],
      "stateMutability": "nonpayable",
      "type": "function"
    },
    {
      "inputs": [],
      "name": "paused",
      "outputs": [
        {
          "internalType": "bool",
          "name": "",
          "type": "bool"
        }
      ],
      "stateMutability": "view",
      "type": "function"
    },
    {
      "inputs": [],
      "name": "proxiableUUID",
      "outputs": [
        {
          "internalType": "bytes32",
          "name": "",
          "type": "bytes32"
        }
      ],
      "stateMutability": "view",
      "type": "function"
    },
    {
      "inputs": [
        {
          "components": [
            {
              "internalType": "address",
              "name": "strategyAddress",
              "type": "address"
            },
            {
              "internalType": "address",
              "name": "userAddress",
              "type": "address"
            },
            {
              "internalType": "bool",
              "name": "isReferral",
              "type": "bool"
            },
            {
              "internalType": "uint256",
              "name": "rebalancesFee",
              "type": "uint256"
            }
          ],
          "internalType": "struct RouterCommonType.RebalanceStrategySameChain",
          "name": "_rebalanceParam",
          "type": "tuple"
        }
      ],
      "name": "rebalanceFundSameChain",
      "outputs": [],
      "stateMutability": "nonpayable",
      "type": "function"
    },
    {
      "inputs": [
        {
          "internalType": "bytes32",
          "name": "role",
          "type": "bytes32"
        },
        {
          "internalType": "address",
          "name": "callerConfirmation",
          "type": "address"
        }
      ],
      "name": "renounceRole",
      "outputs": [],
      "stateMutability": "nonpayable",
      "type": "function"
    },
    {
      "inputs": [
        {
          "internalType": "bytes32",
          "name": "role",
          "type": "bytes32"
        },
        {
          "internalType": "address",
          "name": "account",
          "type": "address"
        }
      ],
      "name": "revokeRole",
      "outputs": [],
      "stateMutability": "nonpayable",
      "type": "function"
    },
    {
      "inputs": [
        {
          "internalType": "uint256",
          "name": "_newPeriod",
          "type": "uint256"
        }
      ],
      "name": "setCoolDownPeriodWithdrawRequest",
      "outputs": [],
      "stateMutability": "nonpayable",
      "type": "function"
    },
    {
      "inputs": [
        {
          "internalType": "address",
          "name": "strategyAddress",
          "type": "address"
        },
        {
          "internalType": "bool",
          "name": "isEmergencyStop",
          "type": "bool"
        }
      ],
      "name": "setEmergencyStop",
      "outputs": [],
      "stateMutability": "nonpayable",
      "type": "function"
    },
    {
      "inputs": [
        {
          "internalType": "bytes4",
          "name": "interfaceId",
          "type": "bytes4"
        }
      ],
      "name": "supportsInterface",
      "outputs": [
        {
          "internalType": "bool",
          "name": "",
          "type": "bool"
        }
      ],
      "stateMutability": "view",
      "type": "function"
    },
    {
      "inputs": [],
      "name": "unpause",
      "outputs": [],
      "stateMutability": "nonpayable",
      "type": "function"
    },
    {
      "inputs": [
        {
          "internalType": "address",
          "name": "moneyFiController_",
          "type": "address"
        },
        {
          "internalType": "address",
          "name": "moneyFundVault_",
          "type": "address"
        }
      ],
      "name": "upgradeControllerAndFundVault",
      "outputs": [],
      "stateMutability": "nonpayable",
      "type": "function"
    },
    {
      "inputs": [
        {
          "internalType": "address",
          "name": "newImplementation",
          "type": "address"
        },
        {
          "internalType": "bytes",
          "name": "data",
          "type": "bytes"
        }
      ],
      "name": "upgradeToAndCall",
      "outputs": [],
      "stateMutability": "payable",
      "type": "function"
    },
    {
      "inputs": [
        {
          "components": [
            {
              "internalType": "address",
              "name": "strategyAddress",
              "type": "address"
            },
            {
              "internalType": "uint256",
              "name": "share",
              "type": "uint256"
            },
            {
              "internalType": "bytes",
              "name": "externalCallData",
              "type": "bytes"
            }
          ],
          "internalType": "struct RouterCommonType.WithdrawStrategySameChain[]",
          "name": "_withdrawStrategySameChains",
          "type": "tuple[]"
        },
        {
          "components": [
            {
              "internalType": "address",
              "name": "tokenAddress",
              "type": "address"
            },
            {
              "internalType": "uint256",
              "name": "unDistributedAmount",
              "type": "uint256"
            }
          ],
          "internalType": "struct RouterCommonType.WithdrawStrategySameChainUndistributed[]",
          "name": "_unDistributedWithdraw",
          "type": "tuple[]"
        },
        {
          "internalType": "bool",
          "name": "_isReferral",
          "type": "bool"
        },
        {
          "internalType": "bytes",
          "name": "_signature",
          "type": "bytes"
        },
        {
          "components": [
            {
              "internalType": "address",
              "name": "tokenReceive",
              "type": "address"
            },
            {
              "internalType": "address",
              "name": "swapImpl",
              "type": "address"
            },
            {
              "internalType": "bytes",
              "name": "externalCallData",
              "type": "bytes"
            },
            {
              "internalType": "uint256",
              "name": "amountOutMin",
              "type": "uint256"
            },
            {
              "internalType": "bool",
              "name": "isV3",
              "type": "bool"
            }
          ],
          "internalType": "struct RouterCommonType.SwapParam",
          "name": "swapParam",
          "type": "tuple"
        }
      ],
      "name": "withdrawFundSameChain",
      "outputs": [],
      "stateMutability": "nonpayable",
      "type": "function"
    }
  ],
  "bytecode": "0x60a060405230608052348015610013575f80fd5b5061001c610021565b6100d3565b7ff0c57e16840df040f15088dc2f81fe391c3923bec73e23a9662efc9c229c6a00805468010000000000000000900460ff16156100715760405163f92ee8a960e01b815260040160405180910390fd5b80546001600160401b03908116146100d05780546001600160401b0319166001600160401b0390811782556040519081527fc7f505b2f371ae2175ee4913f4499e1f2633a7b5936321eed1cdaeb6115181d29060200160405180910390a15b50565b608051614a426100f95f395f8181611d7601528181611d9f0152611f010152614a425ff3fe608060405260043610610228575f3560e01c80637df73e2711610129578063a3246ad3116100a8578063ca15c8731161006d578063ca15c8731461068c578063d547741f146106ab578063dabc93c0146106ca578063e7ab7a1c146106e9578063ee00240f146106fe575f80fd5b8063a3246ad3146105c6578063ad3cb1cc146105f2578063c0c53b8b1461062f578063c114ce5c1461064e578063c7b283f71461066d575f80fd5b806390598919116100ee578063905989191461052a57806391d1485414610555578063983d273714610574578063a16a95f314610594578063a217fddf146105b3575f80fd5b80637df73e271461049a5780637f5d2a2a146104b95780638456cb59146104d8578063879e7d4e146104ec5780639010d07c1461050b575f80fd5b80633f4ba83a116101b5578063579893141161017a57806357989314146103f9578063582abd12146104185780635c975abb146104385780636d70f7ae1461045b57806375b238fc1461047a575f80fd5b80633f4ba83a1461038157806349251fd5146103955780634c974c00146103b35780634f1ef286146103d257806352d1902d146103e5575f80fd5b806324d7806c116101fb57806324d7806c146102e4578063285072c6146103035780632f2ff15d1461032457806336568abe1461034357806338a90cf514610362575f80fd5b806301ffc9a71461022c5780630952ff54146102605780631ecccbe31461028e578063248a9ca3146102c5575b5f80fd5b348015610237575f80fd5b5061024b610246366004613b86565b61071d565b60405190151581526020015b60405180910390f35b34801561026b575f80fd5b506102805f8051602061494d83398151915281565b604051908152602001610257565b348015610299575f80fd5b506001546102ad906001600160a01b031681565b6040516001600160a01b039091168152602001610257565b3480156102d0575f80fd5b506102806102df366004613bad565b610747565b3480156102ef575f80fd5b5061024b6102fe366004613bd8565b610767565b34801561030e575f80fd5b5061032261031d366004613c00565b61077f565b005b34801561032f575f80fd5b5061032261033e366004613c37565b610887565b34801561034e575f80fd5b5061032261035d366004613c37565b6108a9565b34801561036d575f80fd5b5061032261037c366004613bd8565b6108e1565b34801561038c575f80fd5b506103226109e0565b3480156103a0575f80fd5b505f546102ad906001600160a01b031681565b3480156103be575f80fd5b506103226103cd366004613de9565b610a10565b6103226103e0366004613eca565b610e00565b3480156103f0575f80fd5b50610280610e1f565b348015610404575f80fd5b50610322610413366004614172565b610e3a565b348015610423575f80fd5b506102805f8051602061490d83398151915281565b348015610443575f80fd5b505f805160206149ed8339815191525460ff1661024b565b348015610466575f80fd5b5061024b610475366004613bd8565b610f23565b348015610485575f80fd5b506102805f8051602061496d83398151915281565b3480156104a5575f80fd5b5061024b6104b4366004613bd8565b610f3b565b3480156104c4575f80fd5b506103226104d3366004614239565b610f53565b3480156104e3575f80fd5b506103226110b0565b3480156104f7575f80fd5b50610322610506366004614253565b6110de565b348015610516575f80fd5b506102ad6105253660046142b3565b611521565b348015610535575f80fd5b50610280610544366004613bd8565b60026020525f908152604090205481565b348015610560575f80fd5b5061024b61056f366004613c37565b61154e565b34801561057f575f80fd5b506102805f805160206149ad83398151915281565b34801561059f575f80fd5b5061024b6105ae366004613bd8565b611584565b3480156105be575f80fd5b506102805f81565b3480156105d1575f80fd5b506105e56105e0366004613bad565b61159c565b60405161025791906142d3565b3480156105fd575f80fd5b50610622604051806040016040528060058152602001640352e302e360dc1b81525081565b604051610257919061434c565b34801561063a575f80fd5b5061032261064936600461435e565b6115cc565b348015610659575f80fd5b50610322610668366004613bad565b61170c565b348015610678575f80fd5b506103226106873660046143a6565b611737565b348015610697575f80fd5b506102806106a6366004613bad565b6117c5565b3480156106b6575f80fd5b506103226106c5366004613c37565b6117e9565b3480156106d5575f80fd5b506102806106e4366004613bd8565b611805565b3480156106f4575f80fd5b5061028060035481565b348015610709575f80fd5b506103226107183660046143d2565b61182b565b5f6001600160e01b03198216635a05180f60e01b14806107415750610741826119b8565b92915050565b5f9081525f805160206149cd833981519152602052604090206001015490565b5f6107415f8051602061496d8339815191528361154e565b61078833611584565b6107a55760405163dade674960e01b815260040160405180910390fd5b5f5460405163adcf5b6960e01b81526001600160a01b0384811660048301529091169063adcf5b6990602401602060405180830381865afa1580156107ec573d5f803e3d5ffd5b505050506040513d601f19601f820116820180604052508101906108109190614507565b61082d5760405163251ffdf560e11b815260040160405180910390fd5b60405163c73d7c7b60e01b815281151560048201526001600160a01b0383169063c73d7c7b906024015f604051808303815f87803b15801561086d575f80fd5b505af115801561087f573d5f803e3d5ffd5b505050505050565b61089082610747565b610899816119ec565b6108a383836119f6565b50505050565b6001600160a01b03811633146108d25760405163334bd91960e11b815260040160405180910390fd5b6108dc8282611a38565b505050565b6108ea33611584565b6109075760405163dade674960e01b815260040160405180910390fd5b5f5460405163adcf5b6960e01b81526001600160a01b0383811660048301529091169063adcf5b6990602401602060405180830381865afa15801561094e573d5f803e3d5ffd5b505050506040513d601f19601f820116820180604052508101906109729190614507565b61098f5760405163251ffdf560e11b815260040160405180910390fd5b806001600160a01b031663db2e21bc6040518163ffffffff1660e01b81526004015f604051808303815f87803b1580156109c7575f80fd5b505af11580156109d9573d5f803e3d5ffd5b5050505050565b6109e933611584565b610a065760405163dade674960e01b815260040160405180910390fd5b610a0e611a71565b565b610a1933610f23565b610a3657604051631784501560e11b815260040160405180910390fd5b610a3e611ad0565b5f54825160405163adcf5b6960e01b81526001600160a01b03918216600482015291169063adcf5b6990602401602060405180830381865afa158015610a86573d5f803e3d5ffd5b505050506040513d601f19601f82011682018060405250810190610aaa9190614507565b610ac75760405163251ffdf560e11b815260040160405180910390fd5b5f825f01516001600160a01b03166338d52e0f6040518163ffffffff1660e01b8152600401602060405180830381865afa158015610b07573d5f803e3d5ffd5b505050506040513d601f19601f82011682018060405250810190610b2b9190614522565b90505f610b3c846080015183611b00565b600154604086810151602088015160608901519251632efeb46560e01b81526001600160a01b0392831660048201529082166024820152604481019290925260648201849052929350911690632efeb465906084015f604051808303815f87803b158015610ba8575f80fd5b505af1158015610bba573d5f803e3d5ffd5b505050505f610bda858585858960600151610bd59190614551565b611c3c565b6040516370a0823160e01b81523060048201529091505f906001600160a01b038516906370a0823190602401602060405180830381865afa158015610c21573d5f803e3d5ffd5b505050506040513d601f19601f82011682018060405250810190610c459190614564565b5f548751602089015160405163a81207e960e01b81526001600160a01b039283166004820152908216602482015260448101849052929350169063a81207e9906064015f604051808303815f87803b158015610c9f575f80fd5b505af1158015610cb1573d5f803e3d5ffd5b505050508460200151811015610cda57604051631e9acf1760e31b815260040160405180910390fd5b8551610cf1906001600160a01b0386169083611ce4565b8551602087015160a088015160405163faa9bce960e01b81525f936001600160a01b03169263faa9bce992610d2c928792919060040161457b565b6020604051808303815f875af1158015610d48573d5f803e3d5ffd5b505050506040513d601f19601f82011682018060405250810190610d6c9190614564565b6040808901516020808b01518b516060808e01518d5187519182526001600160a01b03908116958201959095528c85169681019690965285018990526080850186905260a085018a90524260c086015294955091811693918116929116907f6a651115cc5aa2801b031e6fd7c6e2adb7334e4e2dff54ba36968d9ad9f4b0919060e00160405180910390a450505050505050565b610e08611d6b565b610e1182611e0f565b610e1b8282611e35565b5050565b5f610e28611ef6565b505f8051602061498d83398151915290565b335f90815260026020526040812054600354909190610e5990836145a4565b905080421015610e7c576040516332ab94fd60e11b815260040160405180910390fd5b610e84611ad0565b5f5460405163f77065d560e01b81526001600160a01b039091169063f77065d590610eb7908890889033906004016145b7565b5f604051808303815f87803b158015610ece575f80fd5b505af1158015610ee0573d5f803e3d5ffd5b505050505f86511115610ef757610ef78684611f3f565b865115610f0957610f0987848761227b565b5050335f9081526002602052604090204290555050505050565b5f6107415f805160206149ad8339815191528361154e565b5f6107415f8051602061490d8339815191528361154e565b610f5b611ad0565b610f63612a7c565b60208101518151610f83916001600160a01b039091169033903090612ac6565b60015460208201518251610fa5926001600160a01b0391821692911690611ce4565b6001548151602083015160405163745e87f760e01b81526001600160a01b03928316600482015233602482015260448101919091525f92919091169063745e87f7906064016020604051808303815f875af1158015611006573d5f803e3d5ffd5b505050506040513d601f19601f8201168201806040525081019061102a9190614564565b82516020808501516040805191825291810184905242918101919091529192506001600160a01b03169033907fc79467b8234137e0f5558b9b5b234c6a277ddb4d3e05415864e2300bf4b325d39060600160405180910390a3506110ad60017f9b779b17422d0df92223018b32b4d1fa46e071723d6817e2486d003becc55f0055565b50565b6110b933611584565b6110d65760405163dade674960e01b815260040160405180910390fd5b610a0e612b53565b6110e733610f23565b61110457604051631784501560e11b815260040160405180910390fd5b61110c611ad0565b805160208201516040516370a0823160e01b81526001600160a01b0391821660048201525f918316906370a0823190602401602060405180830381865afa158015611159573d5f803e3d5ffd5b505050506040513d601f19601f8201168201806040525081019061117d9190614564565b90505f826001600160a01b03166338d52e0f6040518163ffffffff1660e01b8152600401602060405180830381865afa1580156111bc573d5f803e3d5ffd5b505050506040513d601f19601f820116820180604052508101906111e09190614522565b5f5460405163116f80c560e01b81526001600160a01b03808416600483015292935091169063116f80c590602401602060405180830381865afa158015611229573d5f803e3d5ffd5b505050506040513d601f19601f8201168201806040525081019061124d9190614507565b61126a576040516333084a1960e01b815260040160405180910390fd5b5f821161128a5760405163040357dd60e21b815260040160405180910390fd5b602084015160405163520ab54d60e01b81526001600160a01b0391821660048201525f9185169063520ab54d90602401602060405180830381865afa1580156112d5573d5f803e3d5ffd5b505050506040513d601f19601f820116820180604052508101906112f99190614564565b90505f8061130b838860400151612b9b565b602089015160405163087515b960e41b8152600481018990523060248201526001600160a01b039182166044820152608060648201525f608482018190529395509193508816906387515b909060a4016020604051808303815f875af1158015611377573d5f803e3d5ffd5b505050506040513d601f19601f8201168201806040525081019061139b9190614564565b90505f61140b8960600151896001600160a01b03166338d52e0f6040518163ffffffff1660e01b8152600401602060405180830381865afa1580156113e2573d5f803e3d5ffd5b505050506040513d601f19601f820116820180604052508101906114069190614522565b611b00565b905061141784826145a4565b82101561143757604051630f4b703960e01b815260040160405180910390fd5b6115166040518061010001604052808a6001600160a01b031681526020018a6001600160a01b03166338d52e0f6040518163ffffffff1660e01b8152600401602060405180830381865afa158015611491573d5f803e3d5ffd5b505050506040513d601f19601f820116820180604052508101906114b59190614522565b6001600160a01b031681526020018b602001516001600160a01b031681526020018387866114e39190614551565b6114ed9190614551565b81526020016114fc87896145e9565b815260200186815260200185815260200183815250612ca5565b505050505050505050565b5f8281525f8051602061492d8339815191526020819052604082206115469084612ebb565b949350505050565b5f9182525f805160206149cd833981519152602090815260408084206001600160a01b0393909316845291905290205460ff1690565b5f6107415f8051602061494d8339815191528361154e565b5f8181525f8051602061492d83398151915260208190526040909120606091906115c590612ec6565b9392505050565b5f6115d5612ed2565b805490915060ff600160401b82041615906001600160401b03165f811580156115fb5750825b90505f826001600160401b031660011480156116165750303b155b905081158015611624575080155b156116425760405163f92ee8a960e01b815260040160405180910390fd5b845467ffffffffffffffff19166001178555831561166c57845460ff60401b1916600160401b1785555b611674612efa565b61167c612efa565b611684612f02565b61168d88612f12565b5f80546001600160a01b03808a166001600160a01b0319928316179092556001805492891692909116919091179055831561170257845460ff60401b19168555604051600181527fc7f505b2f371ae2175ee4913f4499e1f2633a7b5936321eed1cdaeb6115181d29060200160405180910390a15b5050505050505050565b61171533611584565b6117325760405163dade674960e01b815260040160405180910390fd5b600355565b61174033610767565b61175d57604051632d4d7bb360e01b815260040160405180910390fd5b6001600160a01b038216158061177a57506001600160a01b038116155b156117985760405163706e379b60e11b815260040160405180910390fd5b5f80546001600160a01b039384166001600160a01b03199182161790915560018054929093169116179055565b5f8181525f8051602061492d8339815191526020819052604082206115c590613005565b6117f282610747565b6117fb816119ec565b6108a38383611a38565b6003546001600160a01b0382165f908152600260205260408120549091610741916145a4565b335f9081526002602052604081205460035490919061184a90836145a4565b90508042101561186d576040516332ab94fd60e11b815260040160405180910390fd5b611875611ad0565b825180611895576040516305eeffdf60e31b815260040160405180910390fd5b5f5b8161ffff168161ffff1610156119a0576118cd858261ffff16815181106118c0576118c0614608565b602002602001015161300e565b848161ffff16815181106118e3576118e3614608565b602002602001015160400151336001600160a01b03167f2bb282ce5b59140f3e8ad31e83210c95604a6301fd24da724a8e4eb05770aa2c878461ffff168151811061193057611930614608565b60200260200101515f0151888561ffff168151811061195157611951614608565b602002602001015160200151898661ffff168151811061197357611973614608565b60200260200101516060015142604051611990949392919061466b565b60405180910390a3600101611897565b5050335f908152600260205260409020429055505050565b5f6001600160e01b03198216637965db0b60e01b148061074157506301ffc9a760e01b6001600160e01b0319831614610741565b6110ad81336131ac565b5f5f8051602061492d83398151915281611a1085856131e5565b90508015611546575f858152602083905260409020611a2f9085613286565b50949350505050565b5f5f8051602061492d83398151915281611a52858561329a565b90508015611546575f858152602083905260409020611a2f9085613313565b611a79613327565b5f805160206149ed833981519152805460ff191681557f5db9ee0a495bf2e6ff9c91a7834c1ba4fdd244a5e8aa4e537bd38aeae4b073aa335b6040516001600160a01b03909116815260200160405180910390a150565b5f805160206149ed8339815191525460ff1615610a0e5760405163d93c066560e01b815260040160405180910390fd5b5f805f9054906101000a90046001600160a01b03166001600160a01b031663ec39ded16040518163ffffffff1660e01b8152600401602060405180830381865afa158015611b50573d5f803e3d5ffd5b505050506040513d601f19601f82011682018060405250810190611b749190614564565b831115611b94576040516317bbcaeb60e31b815260040160405180910390fd5b5f826001600160a01b031663313ce5676040518163ffffffff1660e01b8152600401602060405180830381865afa158015611bd1573d5f803e3d5ffd5b505050506040513d601f19601f82011682018060405250810190611bf59190614729565b60ff16905080601214611c31575f611c0e826012614551565b9050611c296001611c2083600a61482c565b8791905f613356565b925050611c35565b8391505b5092915050565b5f826001600160a01b031685604001516001600160a01b031614611cdc57611cd5604051806101000160405280865f01516001600160a01b0316815260200187604001516001600160a01b03168152602001856001600160a01b03168152602001306001600160a01b031681526020018481526020018660200151815260200186606001518152602001866040015115158152506133a1565b9050611546565b509392505050565b604051636eb1769f60e11b81523060048201526001600160a01b0383811660248301525f919085169063dd62ed3e90604401602060405180830381865afa158015611d31573d5f803e3d5ffd5b505050506040513d601f19601f82011682018060405250810190611d559190614564565b90506108a38484611d6685856145a4565b6134f9565b306001600160a01b037f0000000000000000000000000000000000000000000000000000000000000000161480611df157507f00000000000000000000000000000000000000000000000000000000000000006001600160a01b0316611de55f8051602061498d833981519152546001600160a01b031690565b6001600160a01b031614155b15610a0e5760405163703e46dd60e11b815260040160405180910390fd5b611e1833611584565b6110ad5760405163dade674960e01b815260040160405180910390fd5b816001600160a01b03166352d1902d6040518163ffffffff1660e01b8152600401602060405180830381865afa925050508015611e8f575060408051601f3d908101601f19168201909252611e8c91810190614564565b60015b611ebc57604051634c9c8ce360e01b81526001600160a01b03831660048201526024015b60405180910390fd5b5f8051602061498d8339815191528114611eec57604051632a87526960e21b815260048101829052602401611eb3565b6108dc8383613588565b306001600160a01b037f00000000000000000000000000000000000000000000000000000000000000001614610a0e5760405163703e46dd60e11b815260040160405180910390fd5b81515f5b818110156108a35782516001600160a01b031615801590611f70575060208301516001600160a01b031615155b156120f85760015484516001600160a01b039091169063787e16219033903090889086908110611fa257611fa2614608565b60200260200101515f0151888681518110611fbf57611fbf614608565b60209081029190910181015101516040516001600160e01b031960e087901b1681526001600160a01b03948516600482015292841660248401529216604482015260648101919091526084015f604051808303815f87803b158015612022575f80fd5b505af1158015612034573d5f803e3d5ffd5b505050506120f260405180610100016040528085602001516001600160a01b0316815260200186848151811061206c5761206c614608565b60200260200101515f01516001600160a01b03168152602001855f01516001600160a01b03168152602001336001600160a01b031681526020018684815181106120b8576120b8614608565b60200260200101516020015181526020015f815260200160405180602001604052805f8152508152602001856080015115158152506133a1565b506121bc565b60015484516001600160a01b039091169063787e1621903390819088908690811061212557612125614608565b60200260200101515f015188868151811061214257612142614608565b60209081029190910181015101516040516001600160e01b031960e087901b1681526001600160a01b03948516600482015292841660248401529216604482015260648101919091526084015f604051808303815f87803b1580156121a5575f80fd5b505af11580156121b7573d5f803e3d5ffd5b505050505b5f6001600160a01b0316336001600160a01b0316336001600160a01b03167f0ef3d126bf20ddcaf11c634d4c7532a352e7b29ecb19853e4ed62f651490185887858151811061220d5761220d614608565b60200260200101515f01515f89878151811061222b5761222b614608565b602090810291909101810151810151604080516001600160a01b039095168552918401929092528201525f6060820181905260808201524260a082015260c00160405180910390a4600101611f43565b5f5b83518110156108a3575f84828151811061229957612299614608565b6020908102919091010151516040516370a0823160e01b81523360048201529091505f906001600160a01b038316906370a0823190602401602060405180830381865afa1580156122ec573d5f803e3d5ffd5b505050506040513d601f19601f820116820180604052508101906123109190614564565b90505f86848151811061232557612325614608565b60200260200101516020015111158061235a575085838151811061234b5761234b614608565b60200260200101516020015181105b156123785760405163040357dd60e21b815260040160405180910390fd5b60405163520ab54d60e01b81523360048201525f906001600160a01b0384169063520ab54d90602401602060405180830381865afa1580156123bc573d5f803e3d5ffd5b505050506040513d601f19601f820116820180604052508101906123e09190614564565b90505f806123ee8388612b9b565b60405163087515b960e41b815260048101879052306024820152336044820152608060648201525f608482018190529294509092506001600160a01b038716906387515b909060a4016020604051808303815f875af1158015612453573d5f803e3d5ffd5b505050506040513d601f19601f820116820180604052508101906124779190614564565b90505f858b898151811061248d5761248d614608565b602002602001015160200151146124d7576124d28b89815181106124b3576124b3614608565b602002602001015160200151875f85613356909392919063ffffffff16565b6124d9565b815b90505f841180156124ea5750838210155b1561266c5761257860015f9054906101000a90046001600160a01b031685896001600160a01b03166338d52e0f6040518163ffffffff1660e01b8152600401602060405180830381865afa158015612544573d5f803e3d5ffd5b505050506040513d601f19601f820116820180604052508101906125689190614522565b6001600160a01b03169190611ce4565b60015f9054906101000a90046001600160a01b03166001600160a01b0316637e20cf71886001600160a01b03166338d52e0f6040518163ffffffff1660e01b8152600401602060405180830381865afa1580156125d7573d5f803e3d5ffd5b505050506040513d601f19601f820116820180604052508101906125fb9190614522565b6040516001600160e01b031960e084901b1681526001600160a01b03909116600482015260248101879052604481018690526064015f604051808303815f87803b158015612647575f80fd5b505af1158015612659573d5f803e3d5ffd5b5050505083826126699190614551565b91505b81811061267b57505f90612688565b6126858183614551565b91505b811561274b5761274b604051806101000160405280896001600160a01b03168152602001896001600160a01b03166338d52e0f6040518163ffffffff1660e01b8152600401602060405180830381865afa1580156126e8573d5f803e3d5ffd5b505050506040513d601f19601f8201168201806040525081019061270c9190614522565b6001600160a01b031681523360208201526040810185905260600161273187896145e9565b81526020015f81526020015f81526020015f815250612ca5565b60208a01516001600160a01b031615801590612770575089516001600160a01b031615155b156128555761284f6040518061010001604052808c602001516001600160a01b03168152602001896001600160a01b03166338d52e0f6040518163ffffffff1660e01b8152600401602060405180830381865afa1580156127d3573d5f803e3d5ffd5b505050506040513d601f19601f820116820180604052508101906127f79190614522565b6001600160a01b031681526020018c5f01516001600160a01b03168152602001336001600160a01b031681526020018381526020018c6060015181526020018c6040015181526020018c6080015115158152506133a1565b506128ca565b6128ca3382896001600160a01b03166338d52e0f6040518163ffffffff1660e01b8152600401602060405180830381865afa158015612896573d5f803e3d5ffd5b505050506040513d601f19601f820116820180604052508101906128ba9190614522565b6001600160a01b031691906135dd565b8a88815181106128dc576128dc614608565b60200260200101515f01516001600160a01b0316336001600160a01b0316336001600160a01b03167f0ef3d126bf20ddcaf11c634d4c7532a352e7b29ecb19853e4ed62f65149018588a6001600160a01b03166338d52e0f6040518163ffffffff1660e01b8152600401602060405180830381865afa158015612961573d5f803e3d5ffd5b505050506040513d601f19601f820116820180604052508101906129859190614522565b8f8d8151811061299757612997614608565b60200260200101516020015186612a306127105f8054906101000a90046001600160a01b03166001600160a01b03166384ae2bc66040518163ffffffff1660e01b8152600401602060405180830381865afa1580156129f8573d5f803e3d5ffd5b505050506040513d601f19601f82011682018060405250810190612a1c9190614564565b612a279060016145a4565b8c91905f613356565b604080516001600160a01b0390951685526020850193909352918301526060820152608081018890524260a082015260c00160405180910390a48760010197505050505050505061227d565b7f9b779b17422d0df92223018b32b4d1fa46e071723d6817e2486d003becc55f00805460011901612ac057604051633ee5aeb560e01b815260040160405180910390fd5b60029055565b6040516001600160a01b0384811660248301528381166044830152606482018390526108a39186918216906323b872dd906084015b604051602081830303815290604052915060e01b6020820180516001600160e01b03838183161783525050505061360e565b60017f9b779b17422d0df92223018b32b4d1fa46e071723d6817e2486d003becc55f0055565b612b5b611ad0565b5f805160206149ed833981519152805460ff191660011781557f62e78cea01bee320cd4e420270b5ea74000d11b0c9f74754ebdbfc544b05a25833611ab2565b5f805f841315612c9e575f54604080516358710f4560e11b81529051612c1c926001600160a01b03169163b0e21e8a9160048083019260209291908290030181865afa158015612bed573d5f803e3d5ffd5b505050506040513d601f19601f82011682018060405250810190612c119190614564565b85906127105f613356565b91508215612c9e575f546040805163425715e360e11b81529051612c9b926001600160a01b0316916384ae2bc69160048083019260209291908290030181865afa158015612c6c573d5f803e3d5ffd5b505050506040513d601f19601f82011682018060405250810190612c909190614564565b83906127105f613356565b90505b9250929050565b805f01516001600160a01b031663c0b538f86040518163ffffffff1660e01b81526004015f604051808303815f87803b158015612ce0575f80fd5b505af1158015612cf2573d5f803e3d5ffd5b505060015460e084015160a08501516060860151612d4395506001600160a01b0390931693509091612d2491906145a4565b612d2e91906145a4565b60208401516001600160a01b03169190611ce4565b6001546020820151604080840151606085015160a086015160c087015160e088015194516318139f4760e01b81526001600160a01b039687166004820152938616602485015260448401929092526064830152608482015260a48101919091529116906318139f479060c4015f604051808303815f87803b158015612dc6575f80fd5b505af1158015612dd8573d5f803e3d5ffd5b5050505080602001516001600160a01b031681604001516001600160a01b0316825f01516001600160a01b03167e7cb892d68cd3723baea36a5d32331d221b1455154a0741fa57358ae4f8a77f846060015185608001518660c001518760a00151612e439190614551565b60c08881015160e08a015160408051968752602087019590955285850193909352606085015260808401919091524260a08401529051918290030190a4805f01516001600160a01b0316631c5561ea6040518163ffffffff1660e01b81526004015f604051808303815f87803b1580156109c7575f80fd5b5f6115c5838361367a565b60605f6115c5836136a0565b5f807ff0c57e16840df040f15088dc2f81fe391c3923bec73e23a9662efc9c229c6a00610741565b610a0e6136f9565b612f0a6136f9565b610a0e61371e565b612f1a6136f9565b612f22612efa565b612f395f805160206149ad833981519152826119f6565b50612f515f8051602061496d833981519152826119f6565b50612f695f8051602061494d833981519152826119f6565b50612f815f8051602061490d833981519152826119f6565b50612f995f8051602061496d83398151915280613726565b612fbd5f8051602061494d8339815191525f8051602061496d833981519152613726565b612fe15f805160206149ad8339815191525f8051602061494d833981519152613726565b6110ad5f8051602061490d8339815191525f8051602061494d833981519152613726565b5f610741825490565b8051511580156130215750602081015151155b1561303f576040516305eeffdf60e31b815260040160405180910390fd5b60608101516001600160a01b031661306a5760405163706e379b60e11b815260040160405180910390fd5b8051516020820151515f5b8261ffff168161ffff16101561310a575f845f01518261ffff168151811061309f5761309f614608565b6020026020010151602001511115806130e45750835180515f919061ffff84169081106130ce576130ce614608565b60200260200101515f01516001600160a01b0316145b15613102576040516305eeffdf60e31b815260040160405180910390fd5b600101613075565b505f5b8161ffff168161ffff1610156108a3575f84602001518261ffff168151811061313857613138614608565b60200260200101516020015111158061318657505f6001600160a01b031684602001518261ffff168151811061317057613170614608565b60200260200101515f01516001600160a01b0316145b156131a4576040516305eeffdf60e31b815260040160405180910390fd5b60010161310d565b6131b6828261154e565b610e1b5760405163e2517d3f60e01b81526001600160a01b038216600482015260248101839052604401611eb3565b5f5f805160206149cd8339815191526131fe848461154e565b61327d575f848152602082815260408083206001600160a01b03871684529091529020805460ff191660011790556132333390565b6001600160a01b0316836001600160a01b0316857f2f8788117e7eff1d82e926ec794901d17c78024a50270940304540a733656f0d60405160405180910390a46001915050610741565b5f915050610741565b5f6115c5836001600160a01b038416613786565b5f5f805160206149cd8339815191526132b3848461154e565b1561327d575f848152602082815260408083206001600160a01b0387168085529252808320805460ff1916905551339287917ff6391f5c32d9c69d2a47ea670b442974b53935d1edc7fd64eb21e047a839171b9190a46001915050610741565b5f6115c5836001600160a01b0384166137d2565b5f805160206149ed8339815191525460ff16610a0e57604051638dfc202b60e01b815260040160405180910390fd5b5f613383613363836138ac565b801561337e57505f848061337957613379614837565b868809115b151590565b61338e8686866138d8565b61339891906145a4565b95945050505050565b5f805482516040516362141cf560e11b81526001600160a01b03918216600482015291169063c42839ea90602401602060405180830381865afa1580156133ea573d5f803e3d5ffd5b505050506040513d601f19601f8201168201806040525081019061340e9190614507565b61342a57604051628763ed60e31b815260040160405180910390fd5b81516080830151602084015161344b926001600160a01b0390911691611ce4565b81516020830151604080850151608086015160a0870151606088015160e089015160c08a01519551637c9eaaa960e11b81526001600160a01b039098169763f93d5552976134a2979096959493929160040161484b565b6020604051808303815f875af19250505080156134dc575060408051601f3d908101601f191682019092526134d991810190614564565b60015b6107415760405163081ceff360e41b815260040160405180910390fd5b604080516001600160a01b038416602482015260448082018490528251808303909101815260649091019091526020810180516001600160e01b031663095ea7b360e01b17905261354a8482613988565b6108a3576040516001600160a01b0384811660248301525f604483015261357e91869182169063095ea7b390606401612afb565b6108a3848261360e565b613591826139d1565b6040516001600160a01b038316907fbc7cd75a20ee27fd9adebab32041f755214dbc6bffa90cc0225b39da2e5c2d3b905f90a28051156135d5576108dc8282613a34565b610e1b613a9d565b6040516001600160a01b038381166024830152604482018390526108dc91859182169063a9059cbb90606401612afb565b5f8060205f8451602086015f885af18061362d576040513d5f823e3d81fd5b50505f513d91508115613644578060011415613651565b6001600160a01b0384163b155b156108a357604051635274afe760e01b81526001600160a01b0385166004820152602401611eb3565b5f825f01828154811061368f5761368f614608565b905f5260205f200154905092915050565b6060815f018054806020026020016040519081016040528092919081815260200182805480156136ed57602002820191905f5260205f20905b8154815260200190600101908083116136d9575b50505050509050919050565b613701613abc565b610a0e57604051631afcd79f60e31b815260040160405180910390fd5b612b2d6136f9565b5f805160206149cd8339815191525f61373e84610747565b5f85815260208490526040808220600101869055519192508491839187917fbd79b86ffe0ab8e8776151514217cd7cacd52c909f66475c3af44e129f0b00ff9190a450505050565b5f8181526001830160205260408120546137cb57508154600181810184555f848152602080822090930184905584548482528286019093526040902091909155610741565b505f610741565b5f818152600183016020526040812054801561327d575f6137f4600183614551565b85549091505f9061380790600190614551565b9050808214613866575f865f01828154811061382557613825614608565b905f5260205f200154905080875f01848154811061384557613845614608565b5f918252602080832090910192909255918252600188019052604090208390555b8554869080613877576138776148a1565b600190038181905f5260205f20015f90559055856001015f8681526020019081526020015f205f905560019350505050610741565b5f60028260038111156138c1576138c16148b5565b6138cb91906148c9565b60ff166001149050919050565b5f805f6138e58686613ad5565b91509150815f03613909578381816138ff576138ff614837565b04925050506115c5565b818411613920576139206003851502601118613af1565b5f848688095f868103871696879004966002600389028118808a02820302808a02820302808a02820302808a02820302808a02820302808a02909103029181900381900460010185841190960395909502919093039390930492909217029150509392505050565b5f805f8060205f8651602088015f8a5af192503d91505f5190508280156139c7575081156139b957806001146139c7565b5f866001600160a01b03163b115b9695505050505050565b806001600160a01b03163b5f03613a0657604051634c9c8ce360e01b81526001600160a01b0382166004820152602401611eb3565b5f8051602061498d83398151915280546001600160a01b0319166001600160a01b0392909216919091179055565b60605f80846001600160a01b031684604051613a5091906148f6565b5f60405180830381855af49150503d805f8114613a88576040519150601f19603f3d011682016040523d82523d5f602084013e613a8d565b606091505b5091509150613398858383613b02565b3415610a0e5760405163b398979f60e01b815260040160405180910390fd5b5f613ac5612ed2565b54600160401b900460ff16919050565b5f805f1983850993909202808410938190039390930393915050565b634e487b715f52806020526024601cfd5b606082613b1757613b1282613b5e565b6115c5565b8151158015613b2e57506001600160a01b0384163b155b15613b5757604051639996b31560e01b81526001600160a01b0385166004820152602401611eb3565b50806115c5565b805115613b6d57805160208201fd5b60405163d6bda27560e01b815260040160405180910390fd5b5f60208284031215613b96575f80fd5b81356001600160e01b0319811681146115c5575f80fd5b5f60208284031215613bbd575f80fd5b5035919050565b6001600160a01b03811681146110ad575f80fd5b5f60208284031215613be8575f80fd5b81356115c581613bc4565b80151581146110ad575f80fd5b5f8060408385031215613c11575f80fd5b8235613c1c81613bc4565b91506020830135613c2c81613bf3565b809150509250929050565b5f8060408385031215613c48575f80fd5b823591506020830135613c2c81613bc4565b634e487b7160e01b5f52604160045260245ffd5b604051608081016001600160401b0381118282101715613c9057613c90613c5a565b60405290565b60405160c081016001600160401b0381118282101715613c9057613c90613c5a565b604051606081016001600160401b0381118282101715613c9057613c90613c5a565b604051601f8201601f191681016001600160401b0381118282101715613d0257613d02613c5a565b604052919050565b5f82601f830112613d19575f80fd5b81356001600160401b03811115613d3257613d32613c5a565b613d45601f8201601f1916602001613cda565b818152846020838601011115613d59575f80fd5b816020850160208301375f918101602001919091529392505050565b5f60808284031215613d85575f80fd5b613d8d613c6e565b90508135613d9a81613bc4565b8152602082810135908201526040820135613db481613bf3565b604082015260608201356001600160401b03811115613dd1575f80fd5b613ddd84828501613d0a565b60608301525092915050565b5f8060408385031215613dfa575f80fd5b82356001600160401b03811115613e0f575f80fd5b830160c08186031215613e20575f80fd5b613e28613c96565b8135613e3381613bc4565b81526020820135613e4381613bc4565b60208201526040820135613e5681613bc4565b6040820152606082810135908201526080808301359082015260a08201356001600160401b03811115613e87575f80fd5b613e9387828501613d0a565b60a08301525092505060208301356001600160401b03811115613eb4575f80fd5b613ec085828601613d75565b9150509250929050565b5f8060408385031215613edb575f80fd5b8235613ee681613bc4565b915060208301356001600160401b03811115613f00575f80fd5b613ec085828601613d0a565b5f6001600160401b03821115613f2457613f24613c5a565b5060051b60200190565b5f82601f830112613f3d575f80fd5b8135613f50613f4b82613f0c565b613cda565b8082825260208201915060208360051b860101925085831115613f71575f80fd5b602085015b838110156140065780356001600160401b03811115613f93575f80fd5b86016060818903601f19011215613fa8575f80fd5b613fb0613cb8565b6020820135613fbe81613bc4565b81526040820135602082015260608201356001600160401b03811115613fe2575f80fd5b613ff18a602083860101613d0a565b60408301525084525060209283019201613f76565b5095945050505050565b5f60408284031215614020575f80fd5b604080519081016001600160401b038111828210171561404257614042613c5a565b604052905080823561405381613bc4565b8152602092830135920191909152919050565b5f82601f830112614075575f80fd5b8135614083613f4b82613f0c565b8082825260208201915060208360061b8601019250858311156140a4575f80fd5b602085015b83811015614006576140bb8782614010565b83526020909201916040016140a9565b5f60a082840312156140db575f80fd5b60405160a081016001600160401b03811182821017156140fd576140fd613c5a565b604052905080823561410e81613bc4565b8152602083013561411e81613bc4565b602082015260408301356001600160401b0381111561413b575f80fd5b61414785828601613d0a565b60408301525060608381013590820152608083013561416581613bf3565b6080919091015292915050565b5f805f805f60a08688031215614186575f80fd5b85356001600160401b0381111561419b575f80fd5b6141a788828901613f2e565b95505060208601356001600160401b038111156141c2575f80fd5b6141ce88828901614066565b94505060408601356141df81613bf3565b925060608601356001600160401b038111156141f9575f80fd5b61420588828901613d0a565b92505060808601356001600160401b03811115614220575f80fd5b61422c888289016140cb565b9150509295509295909350565b5f60408284031215614249575f80fd5b6115c58383614010565b5f6080828403128015614264575f80fd5b5061426d613c6e565b823561427881613bc4565b8152602083013561428881613bc4565b6020820152604083013561429b81613bf3565b60408201526060928301359281019290925250919050565b5f80604083850312156142c4575f80fd5b50508035926020909101359150565b602080825282518282018190525f918401906040840190835b818110156143135783516001600160a01b03168352602093840193909201916001016142ec565b509095945050505050565b5f81518084528060208401602086015e5f602082860101526020601f19601f83011685010191505092915050565b602081525f6115c5602083018461431e565b5f805f60608486031215614370575f80fd5b833561437b81613bc4565b9250602084013561438b81613bc4565b9150604084013561439b81613bc4565b809150509250925092565b5f80604083850312156143b7575f80fd5b82356143c281613bc4565b91506020830135613c2c81613bc4565b5f602082840312156143e2575f80fd5b81356001600160401b038111156143f7575f80fd5b8201601f81018413614407575f80fd5b8035614415613f4b82613f0c565b8082825260208201915060208360051b850101925086831115614436575f80fd5b602084015b838110156144fc5780356001600160401b03811115614458575f80fd5b85016080818a03601f1901121561446d575f80fd5b614475613c6e565b60208201356001600160401b0381111561448d575f80fd5b61449c8b602083860101613f2e565b82525060408201356001600160401b038111156144b7575f80fd5b6144c68b602083860101614066565b60208301525060608201356040820152608090910135906144e682613bc4565b606081019190915283526020928301920161443b565b509695505050505050565b5f60208284031215614517575f80fd5b81516115c581613bf3565b5f60208284031215614532575f80fd5b81516115c581613bc4565b634e487b7160e01b5f52601160045260245ffd5b818103818111156107415761074161453d565b5f60208284031215614574575f80fd5b5051919050565b8381526001600160a01b03831660208201526060604082018190525f906133989083018461431e565b808201808211156107415761074161453d565b8315158152606060208201525f6145d1606083018561431e565b905060018060a01b0383166040830152949350505050565b8181035f831280158383131683831282161715611c3557611c3561453d565b634e487b7160e01b5f52603260045260245ffd5b5f8151808452602084019350602083015f5b8281101561466157815180516001600160a01b03168752602090810151818801526040909601959091019060010161462e565b5093949350505050565b5f608082016080835280875180835260a08501915060a08160051b8601019250602089015f5b828110156146ec57868503609f19018452815180516001600160a01b03168652602080820151908701526040908101516060918701829052906146d69087018261431e565b9550506020938401939190910190600101614691565b505050508281036020840152614702818761461c565b91505061471a60408301856001600160a01b03169052565b82606083015295945050505050565b5f60208284031215614739575f80fd5b815160ff811681146115c5575f80fd5b6001815b6001841115614784578085048111156147685761476861453d565b600184161561477657908102905b60019390931c92800261474d565b935093915050565b5f8261479a57506001610741565b816147a657505f610741565b81600181146147bc57600281146147c6576147e2565b6001915050610741565b60ff8411156147d7576147d761453d565b50506001821b610741565b5060208310610133831016604e8410600b8410161715614805575081810a610741565b6148115f198484614749565b805f19048211156148245761482461453d565b029392505050565b5f6115c5838361478c565b634e487b7160e01b5f52601260045260245ffd5b6001600160a01b038881168252878116602083015260408201879052606082018690528416608082015282151560a082015260e060c082018190525f906148949083018461431e565b9998505050505050505050565b634e487b7160e01b5f52603160045260245ffd5b634e487b7160e01b5f52602160045260245ffd5b5f60ff8316806148e757634e487b7160e01b5f52601260045260245ffd5b8060ff84160691505092915050565b5f82518060208501845e5f92019182525091905056fe6c8d7f768a6bb4aafe85e8a2f5a9680355239c7e14646ed62b044e39de154512c1f6fe24621ce81ec5827caf0253cadb74709b061630e6b55e82371705932000c171260023d22a25a00a2789664c9334017843b831138c8ef03cc8897e5873d7f23ec0bb4210edd5cba85afd05127efcd2fc6a781bfed49188da1081670b22d8360894a13ba1a3210667c828492db98dca3e2076cc3735a920a3ca505d382bbc46a52cf33029de9f84853745a87af28464c80bf0346df1b32e205fc73319f62202dd7bc7dec4dceedda775e58dd541e08a116c6c53815c0bd028192f7b626800cd5ed15c6e187e77e9aee88184c21f4f2182ab5827cb3b7e07fbedcd63f03300a264697066735822122031e0ff86ad6535a81f0ea25c0e8a45de0f024d8acdab23787277561a05b8f6af64736f6c634300081a0033",
  "linkReferences": {},
  "deployedLinkReferences": {}
}