{
  "_format": "hh-sol-artifact-1",
  "contractName": "MoneyFiUniSwap",
  "sourceName": "contracts/dex/MoneyFiUniSwap.sol",
  "abi": [
    {
      "inputs": [],
      "stateMutability": "nonpayable",
      "type": "constructor"
    },
    {
      "inputs": [],
      "name": "AccessControlBadConfirmation",
      "type": "error"
    },
    {
      "inputs": [
        {
          "internalType": "address",
          "name": "account",
          "type": "address"
        },
        {
          "internalType": "bytes32",
          "name": "neededRole",
          "type": "bytes32"
        }
      ],
      "name": "AccessControlUnauthorizedAccount",
      "type": "error"
    },
    {
      "inputs": [
        {
          "internalType": "address",
          "name": "target",
          "type": "address"
        }
      ],
      "name": "AddressEmptyCode",
      "type": "error"
    },
    {
      "inputs": [
        {
          "internalType": "address",
          "name": "implementation",
          "type": "address"
        }
      ],
      "name": "ERC1967InvalidImplementation",
      "type": "error"
    },
    {
      "inputs": [],
      "name": "ERC1967NonPayable",
      "type": "error"
    },
    {
      "inputs": [],
      "name": "FailedCall",
      "type": "error"
    },
    {
      "inputs": [],
      "name": "InvalidAdminRole",
      "type": "error"
    },
    {
      "inputs": [],
      "name": "InvalidAtLeastOperatorRole",
      "type": "error"
    },
    {
      "inputs": [],
      "name": "InvalidDelegateRole",
      "type": "error"
    },
    {
      "inputs": [],
      "name": "InvalidInitialization",
      "type": "error"
    },
    {
      "inputs": [],
      "name": "InvalidSignerRole",
      "type": "error"
    },
    {
      "inputs": [
        {
          "internalType": "uint256",
          "name": "amount",
          "type": "uint256"
        }
      ],
      "name": "InvalidSwapAmount",
      "type": "error"
    },
    {
      "inputs": [],
      "name": "NoLiquidityInV2OrV3",
      "type": "error"
    },
    {
      "inputs": [],
      "name": "NotInitializing",
      "type": "error"
    },
    {
      "inputs": [],
      "name": "SwapError",
      "type": "error"
    },
    {
      "inputs": [],
      "name": "UUPSUnauthorizedCallContext",
      "type": "error"
    },
    {
      "inputs": [
        {
          "internalType": "bytes32",
          "name": "slot",
          "type": "bytes32"
        }
      ],
      "name": "UUPSUnsupportedProxiableUUID",
      "type": "error"
    },
    {
      "anonymous": false,
      "inputs": [
        {
          "indexed": false,
          "internalType": "uint64",
          "name": "version",
          "type": "uint64"
        }
      ],
      "name": "Initialized",
      "type": "event"
    },
    {
      "anonymous": false,
      "inputs": [
        {
          "indexed": true,
          "internalType": "bytes32",
          "name": "role",
          "type": "bytes32"
        },
        {
          "indexed": true,
          "internalType": "bytes32",
          "name": "previousAdminRole",
          "type": "bytes32"
        },
        {
          "indexed": true,
          "internalType": "bytes32",
          "name": "newAdminRole",
          "type": "bytes32"
        }
      ],
      "name": "RoleAdminChanged",
      "type": "event"
    },
    {
      "anonymous": false,
      "inputs": [
        {
          "indexed": true,
          "internalType": "bytes32",
          "name": "role",
          "type": "bytes32"
        },
        {
          "indexed": true,
          "internalType": "address",
          "name": "account",
          "type": "address"
        },
        {
          "indexed": true,
          "internalType": "address",
          "name": "sender",
          "type": "address"
        }
      ],
      "name": "RoleGranted",
      "type": "event"
    },
    {
      "anonymous": false,
      "inputs": [
        {
          "indexed": true,
          "internalType": "bytes32",
          "name": "role",
          "type": "bytes32"
        },
        {
          "indexed": true,
          "internalType": "address",
          "name": "account",
          "type": "address"
        },
        {
          "indexed": true,
          "internalType": "address",
          "name": "sender",
          "type": "address"
        }
      ],
      "name": "RoleRevoked",
      "type": "event"
    },
    {
      "anonymous": false,
      "inputs": [
        {
          "indexed": true,
          "internalType": "address",
          "name": "implementation",
          "type": "address"
        }
      ],
      "name": "Upgraded",
      "type": "event"
    },
    {
      "inputs": [],
      "name": "ADMIN_DELEGATE_ROLE",
      "outputs": [
        {
          "internalType": "bytes32",
          "name": "",
          "type": "bytes32"
        }
      ],
      "stateMutability": "view",
      "type": "function"
    },
    {
      "inputs": [],
      "name": "ADMIN_ROLE",
      "outputs": [
        {
          "internalType": "bytes32",
          "name": "",
          "type": "bytes32"
        }
      ],
      "stateMutability": "view",
      "type": "function"
    },
    {
      "inputs": [],
      "name": "DEFAULT_ADMIN_ROLE",
      "outputs": [
        {
          "internalType": "bytes32",
          "name": "",
          "type": "bytes32"
        }
      ],
      "stateMutability": "view",
      "type": "function"
    },
    {
      "inputs": [],
      "name": "OPERATOR",
      "outputs": [
        {
          "internalType": "bytes32",
          "name": "",
          "type": "bytes32"
        }
      ],
      "stateMutability": "view",
      "type": "function"
    },
    {
      "inputs": [],
      "name": "SIGNER",
      "outputs": [
        {
          "internalType": "bytes32",
          "name": "",
          "type": "bytes32"
        }
      ],
      "stateMutability": "view",
      "type": "function"
    },
    {
      "inputs": [],
      "name": "UPGRADE_INTERFACE_VERSION",
      "outputs": [
        {
          "internalType": "string",
          "name": "",
          "type": "string"
        }
      ],
      "stateMutability": "view",
      "type": "function"
    },
    {
      "inputs": [
        {
          "internalType": "address",
          "name": "tokenA",
          "type": "address"
        },
        {
          "internalType": "address",
          "name": "tokenB",
          "type": "address"
        }
      ],
      "name": "checkPoolExistsV2",
      "outputs": [
        {
          "internalType": "bool",
          "name": "",
          "type": "bool"
        }
      ],
      "stateMutability": "view",
      "type": "function"
    },
    {
      "inputs": [
        {
          "internalType": "address",
          "name": "tokenA",
          "type": "address"
        },
        {
          "internalType": "address",
          "name": "tokenB",
          "type": "address"
        },
        {
          "internalType": "uint24",
          "name": "v3Fee",
          "type": "uint24"
        }
      ],
      "name": "checkPoolExistsV3",
      "outputs": [
        {
          "internalType": "bool",
          "name": "",
          "type": "bool"
        }
      ],
      "stateMutability": "view",
      "type": "function"
    },
    {
      "inputs": [],
      "name": "factoryV2",
      "outputs": [
        {
          "internalType": "contract IUniswapV2Factory",
          "name": "",
          "type": "address"
        }
      ],
      "stateMutability": "view",
      "type": "function"
    },
    {
      "inputs": [],
      "name": "factoryV3",
      "outputs": [
        {
          "internalType": "contract IUniswapV3Factory",
          "name": "",
          "type": "address"
        }
      ],
      "stateMutability": "view",
      "type": "function"
    },
    {
      "inputs": [
        {
          "internalType": "bytes32",
          "name": "role",
          "type": "bytes32"
        }
      ],
      "name": "getRoleAdmin",
      "outputs": [
        {
          "internalType": "bytes32",
          "name": "",
          "type": "bytes32"
        }
      ],
      "stateMutability": "view",
      "type": "function"
    },
    {
      "inputs": [
        {
          "internalType": "bytes32",
          "name": "role",
          "type": "bytes32"
        },
        {
          "internalType": "uint256",
          "name": "index",
          "type": "uint256"
        }
      ],
      "name": "getRoleMember",
      "outputs": [
        {
          "internalType": "address",
          "name": "",
          "type": "address"
        }
      ],
      "stateMutability": "view",
      "type": "function"
    },
    {
      "inputs": [
        {
          "internalType": "bytes32",
          "name": "role",
          "type": "bytes32"
        }
      ],
      "name": "getRoleMemberCount",
      "outputs": [
        {
          "internalType": "uint256",
          "name": "",
          "type": "uint256"
        }
      ],
      "stateMutability": "view",
      "type": "function"
    },
    {
      "inputs": [
        {
          "internalType": "bytes32",
          "name": "role",
          "type": "bytes32"
        }
      ],
      "name": "getRoleMembers",
      "outputs": [
        {
          "internalType": "address[]",
          "name": "",
          "type": "address[]"
        }
      ],
      "stateMutability": "view",
      "type": "function"
    },
    {
      "inputs": [
        {
          "internalType": "bytes32",
          "name": "role",
          "type": "bytes32"
        },
        {
          "internalType": "address",
          "name": "account",
          "type": "address"
        }
      ],
      "name": "grantRole",
      "outputs": [],
      "stateMutability": "nonpayable",
      "type": "function"
    },
    {
      "inputs": [
        {
          "internalType": "bytes32",
          "name": "role",
          "type": "bytes32"
        },
        {
          "internalType": "address",
          "name": "account",
          "type": "address"
        }
      ],
      "name": "hasRole",
      "outputs": [
        {
          "internalType": "bool",
          "name": "",
          "type": "bool"
        }
      ],
      "stateMutability": "view",
      "type": "function"
    },
    {
      "inputs": [
        {
          "internalType": "address",
          "name": "swapRouterUniswapV3_",
          "type": "address"
        },
        {
          "internalType": "address",
          "name": "swapRouterUniswapV2_",
          "type": "address"
        },
        {
          "internalType": "address",
          "name": "factoryV3_",
          "type": "address"
        },
        {
          "internalType": "address",
          "name": "factoryV2_",
          "type": "address"
        },
        {
          "internalType": "address",
          "name": "admin_",
          "type": "address"
        }
      ],
      "name": "initialize",
      "outputs": [],
      "stateMutability": "nonpayable",
      "type": "function"
    },
    {
      "inputs": [
        {
          "internalType": "address",
          "name": "_sender",
          "type": "address"
        }
      ],
      "name": "isAdmin",
      "outputs": [
        {
          "internalType": "bool",
          "name": "",
          "type": "bool"
        }
      ],
      "stateMutability": "view",
      "type": "function"
    },
    {
      "inputs": [
        {
          "internalType": "address",
          "name": "_sender",
          "type": "address"
        }
      ],
      "name": "isDelegateAdmin",
      "outputs": [
        {
          "internalType": "bool",
          "name": "",
          "type": "bool"
        }
      ],
      "stateMutability": "view",
      "type": "function"
    },
    {
      "inputs": [
        {
          "internalType": "address",
          "name": "_sender",
          "type": "address"
        }
      ],
      "name": "isOperator",
      "outputs": [
        {
          "internalType": "bool",
          "name": "",
          "type": "bool"
        }
      ],
      "stateMutability": "view",
      "type": "function"
    },
    {
      "inputs": [
        {
          "internalType": "address",
          "name": "_sender",
          "type": "address"
        }
      ],
      "name": "isSigner",
      "outputs": [
        {
          "internalType": "bool",
          "name": "",
          "type": "bool"
        }
      ],
      "stateMutability": "view",
      "type": "function"
    },
    {
      "inputs": [],
      "name": "poolFee",
      "outputs": [
        {
          "internalType": "uint24",
          "name": "",
          "type": "uint24"
        }
      ],
      "stateMutability": "view",
      "type": "function"
    },
    {
      "inputs": [],
      "name": "proxiableUUID",
      "outputs": [
        {
          "internalType": "bytes32",
          "name": "",
          "type": "bytes32"
        }
      ],
      "stateMutability": "view",
      "type": "function"
    },
    {
      "inputs": [
        {
          "internalType": "bytes32",
          "name": "role",
          "type": "bytes32"
        },
        {
          "internalType": "address",
          "name": "callerConfirmation",
          "type": "address"
        }
      ],
      "name": "renounceRole",
      "outputs": [],
      "stateMutability": "nonpayable",
      "type": "function"
    },
    {
      "inputs": [
        {
          "internalType": "bytes32",
          "name": "role",
          "type": "bytes32"
        },
        {
          "internalType": "address",
          "name": "account",
          "type": "address"
        }
      ],
      "name": "revokeRole",
      "outputs": [],
      "stateMutability": "nonpayable",
      "type": "function"
    },
    {
      "inputs": [],
      "name": "routerV2",
      "outputs": [
        {
          "internalType": "contract IUniswapV2Router02",
          "name": "",
          "type": "address"
        }
      ],
      "stateMutability": "view",
      "type": "function"
    },
    {
      "inputs": [],
      "name": "routerV3",
      "outputs": [
        {
          "internalType": "contract IV3SwapRouterUniswap",
          "name": "",
          "type": "address"
        }
      ],
      "stateMutability": "view",
      "type": "function"
    },
    {
      "inputs": [
        {
          "internalType": "address",
          "name": "_factoryV2",
          "type": "address"
        }
      ],
      "name": "setFactoryV2",
      "outputs": [],
      "stateMutability": "nonpayable",
      "type": "function"
    },
    {
      "inputs": [
        {
          "internalType": "address",
          "name": "_factoryV3",
          "type": "address"
        }
      ],
      "name": "setFactoryV3",
      "outputs": [],
      "stateMutability": "nonpayable",
      "type": "function"
    },
    {
      "inputs": [
        {
          "internalType": "uint24",
          "name": "_poolFee",
          "type": "uint24"
        }
      ],
      "name": "setPoolFee",
      "outputs": [],
      "stateMutability": "nonpayable",
      "type": "function"
    },
    {
      "inputs": [
        {
          "internalType": "address",
          "name": "_routerV2",
          "type": "address"
        }
      ],
      "name": "setRouterV2",
      "outputs": [],
      "stateMutability": "nonpayable",
      "type": "function"
    },
    {
      "inputs": [
        {
          "internalType": "address",
          "name": "_routerV3",
          "type": "address"
        }
      ],
      "name": "setRouterV3",
      "outputs": [],
      "stateMutability": "nonpayable",
      "type": "function"
    },
    {
      "inputs": [
        {
          "internalType": "bytes4",
          "name": "interfaceId",
          "type": "bytes4"
        }
      ],
      "name": "supportsInterface",
      "outputs": [
        {
          "internalType": "bool",
          "name": "",
          "type": "bool"
        }
      ],
      "stateMutability": "view",
      "type": "function"
    },
    {
      "inputs": [
        {
          "internalType": "address",
          "name": "tokenIn",
          "type": "address"
        },
        {
          "internalType": "address",
          "name": "tokenOut",
          "type": "address"
        },
        {
          "internalType": "uint256",
          "name": "amountIn",
          "type": "uint256"
        },
        {
          "internalType": "uint256",
          "name": "amountOutMin",
          "type": "uint256"
        },
        {
          "internalType": "address",
          "name": "receiver",
          "type": "address"
        },
        {
          "internalType": "bool",
          "name": "isV3",
          "type": "bool"
        },
        {
          "internalType": "bytes",
          "name": "",
          "type": "bytes"
        }
      ],
      "name": "swapToken",
      "outputs": [
        {
          "internalType": "uint256",
          "name": "amountOut",
          "type": "uint256"
        }
      ],
      "stateMutability": "nonpayable",
      "type": "function"
    },
    {
      "inputs": [
        {
          "internalType": "address",
          "name": "newImplementation",
          "type": "address"
        },
        {
          "internalType": "bytes",
          "name": "data",
          "type": "bytes"
        }
      ],
      "name": "upgradeToAndCall",
      "outputs": [],
      "stateMutability": "payable",
      "type": "function"
    }
  ],
  "bytecode": "0x60a060405230608052348015610013575f80fd5b5061001c610021565b6100d3565b7ff0c57e16840df040f15088dc2f81fe391c3923bec73e23a9662efc9c229c6a00805468010000000000000000900460ff16156100715760405163f92ee8a960e01b815260040160405180910390fd5b80546001600160401b03908116146100d05780546001600160401b0319166001600160401b0390811782556040519081527fc7f505b2f371ae2175ee4913f4499e1f2633a7b5936321eed1cdaeb6115181d29060200160405180910390a15b50565b6080516120e76100f95f395f8181610e9201528181610ebb015261101f01526120e75ff3fe6080604052600436106101fc575f3560e01c806373dd250c11610113578063ad3cb1cc1161009d578063d547741f1161006d578063d547741f14610602578063d9af176514610621578063ecb3875114610640578063f2b3b4671461065f578063f93d55521461067d575f80fd5b8063ad3cb1cc14610568578063b08cc64c146105a5578063c68bd4be146105c4578063ca15c873146105e3575f80fd5b806391d14854116100e357806391d14854146104cb578063983d2737146104ea578063a16a95f31461050a578063a217fddf14610529578063a3246ad31461053c575f80fd5b806373dd250c1461044e57806375b238fc1461046d5780637df73e271461048d5780639010d07c146104ac575f80fd5b80632f2ff15d1161019457806352d1902d1161016457806352d1902d146103bd578063582abd12146103d157806359accd05146103f157806368e0d4e1146104105780636d70f7ae1461042f575f80fd5b80632f2ff15d1461034d57806336568abe1461036c5780634f1ef2861461038b578063502f74461461039e575f80fd5b80631459457a116101cf5780631459457a146102b95780631d5f45f5146102d8578063248a9ca31461030f57806324d7806c1461032e575f80fd5b806301ffc9a71461020057806305e4477d14610234578063089fe6aa146102555780630952ff541461028b575b5f80fd5b34801561020b575f80fd5b5061021f61021a366004611a3e565b61069c565b60405190151581526020015b60405180910390f35b34801561023f575f80fd5b5061025361024e366004611a79565b6106c6565b005b348015610260575f80fd5b5060035461027790600160a01b900462ffffff1681565b60405162ffffff909116815260200161022b565b348015610296575f80fd5b506102ab5f8051602061201283398151915281565b60405190815260200161022b565b3480156102c4575f80fd5b506102536102d3366004611a94565b61070d565b3480156102e3575f80fd5b506002546102f7906001600160a01b031681565b6040516001600160a01b03909116815260200161022b565b34801561031a575f80fd5b506102ab610329366004611b01565b610839565b348015610339575f80fd5b5061021f610348366004611a79565b610859565b348015610358575f80fd5b50610253610367366004611b18565b610871565b348015610377575f80fd5b50610253610386366004611b18565b610893565b610253610399366004611bf7565b6108cb565b3480156103a9575f80fd5b506001546102f7906001600160a01b031681565b3480156103c8575f80fd5b506102ab6108ea565b3480156103dc575f80fd5b506102ab5f80516020611fd283398151915281565b3480156103fc575f80fd5b5061025361040b366004611a79565b610905565b34801561041b575f80fd5b506003546102f7906001600160a01b031681565b34801561043a575f80fd5b5061021f610449366004611a79565b61094d565b348015610459575f80fd5b50610253610468366004611c5b565b610965565b348015610478575f80fd5b506102ab5f8051602061203283398151915281565b348015610498575f80fd5b5061021f6104a7366004611a79565b6109af565b3480156104b7575f80fd5b506102f76104c6366004611c74565b6109c7565b3480156104d6575f80fd5b5061021f6104e5366004611b18565b6109f4565b3480156104f5575f80fd5b506102ab5f8051602061207283398151915281565b348015610515575f80fd5b5061021f610524366004611a79565b610a2a565b348015610534575f80fd5b506102ab5f81565b348015610547575f80fd5b5061055b610556366004611b01565b610a42565b60405161022b9190611cd7565b348015610573575f80fd5b50610598604051806040016040528060058152602001640352e302e360dc1b81525081565b60405161022b9190611ce9565b3480156105b0575f80fd5b506102536105bf366004611a79565b610a72565b3480156105cf575f80fd5b5061021f6105de366004611d1e565b610aba565b3480156105ee575f80fd5b506102ab6105fd366004611b01565b610b43565b34801561060d575f80fd5b5061025361061c366004611b18565b610b67565b34801561062c575f80fd5b5061021f61063b366004611d4a565b610b83565b34801561064b575f80fd5b5061025361065a366004611a79565b610c18565b34801561066a575f80fd5b505f546102f7906001600160a01b031681565b348015610688575f80fd5b506102ab610697366004611d9b565b610c60565b5f6001600160e01b03198216635a05180f60e01b14806106c057506106c082610cb0565b92915050565b6106cf33610a2a565b6106ec5760405163dade674960e01b815260040160405180910390fd5b5f80546001600160a01b0319166001600160a01b0392909216919091179055565b60025f610718610ce4565b8054909150600160401b900460ff16806107405750805467ffffffffffffffff808416911610155b1561075e5760405163f92ee8a960e01b815260040160405180910390fd5b805468ffffffffffffffffff191667ffffffffffffffff831617600160401b17815561078983610d0c565b5f80546001600160a01b03199081166001600160a01b038a81169190911790925560018054821689841617905560028054909116878316179055600380549186166001600160b81b03199092169190911761017760a31b179055805468ff00000000000000001916815560405167ffffffffffffffff831681527fc7f505b2f371ae2175ee4913f4499e1f2633a7b5936321eed1cdaeb6115181d29060200160405180910390a150505050505050565b5f9081525f80516020612092833981519152602052604090206001015490565b5f6106c05f80516020612032833981519152836109f4565b61087a82610839565b61088381610e02565b61088d8383610e0c565b50505050565b6001600160a01b03811633146108bc5760405163334bd91960e11b815260040160405180910390fd5b6108c68282610e4e565b505050565b6108d3610e87565b6108dc82610f2d565b6108e68282610f53565b5050565b5f6108f3611014565b505f8051602061205283398151915290565b61090e33610a2a565b61092b5760405163dade674960e01b815260040160405180910390fd5b600180546001600160a01b0319166001600160a01b0392909216919091179055565b5f6106c05f80516020612072833981519152836109f4565b61096e33610a2a565b61098b5760405163dade674960e01b815260040160405180910390fd5b6003805462ffffff909216600160a01b0262ffffff60a01b19909216919091179055565b5f6106c05f80516020611fd2833981519152836109f4565b5f8281525f80516020611ff28339815191526020819052604082206109ec908461105d565b949350505050565b5f9182525f80516020612092833981519152602090815260408084206001600160a01b0393909316845291905290205460ff1690565b5f6106c05f80516020612012833981519152836109f4565b5f8181525f80516020611ff28339815191526020819052604090912060609190610a6b90611068565b9392505050565b610a7b33610a2a565b610a985760405163dade674960e01b815260040160405180910390fd5b600380546001600160a01b0319166001600160a01b0392909216919091179055565b60035460405163e6a4390560e01b81526001600160a01b03848116600483015283811660248301525f92839291169063e6a4390590604401602060405180830381865afa158015610b0d573d5f803e3d5ffd5b505050506040513d601f19601f82011682018060405250810190610b319190611e30565b6001600160a01b031614159392505050565b5f8181525f80516020611ff2833981519152602081905260408220610a6b90611074565b610b7082610839565b610b7981610e02565b61088d8383610e4e565b600254604051630b4c774160e11b81526001600160a01b038581166004830152848116602483015262ffffff841660448301525f928392911690631698ee8290606401602060405180830381865afa158015610be1573d5f803e3d5ffd5b505050506040513d601f19601f82011682018060405250810190610c059190611e30565b6001600160a01b03161415949350505050565b610c2133610a2a565b610c3e5760405163dade674960e01b815260040160405180910390fd5b600280546001600160a01b0319166001600160a01b0392909216919091179055565b5f8215610c7b57610c74888888888861107d565b9050610ca5565b610c88888888888861118e565b600181518110610c9a57610c9a611e4b565b602002602001015190505b979650505050505050565b5f6001600160e01b03198216637965db0b60e01b14806106c057506301ffc9a760e01b6001600160e01b03198316146106c0565b5f807ff0c57e16840df040f15088dc2f81fe391c3923bec73e23a9662efc9c229c6a006106c0565b610d146112ab565b610d1c6112d0565b610d335f8051602061207283398151915282610e0c565b50610d4b5f8051602061203283398151915282610e0c565b50610d635f8051602061201283398151915282610e0c565b50610d7b5f80516020611fd283398151915282610e0c565b50610d935f80516020612032833981519152806112d8565b610db75f805160206120128339815191525f805160206120328339815191526112d8565b610ddb5f805160206120728339815191525f805160206120128339815191526112d8565b610dff5f80516020611fd28339815191525f805160206120128339815191526112d8565b50565b610dff8133611338565b5f5f80516020611ff283398151915281610e268585611371565b905080156109ec575f858152602083905260409020610e459085611412565b50949350505050565b5f5f80516020611ff283398151915281610e688585611426565b905080156109ec575f858152602083905260409020610e45908561149f565b306001600160a01b037f0000000000000000000000000000000000000000000000000000000000000000161480610f0d57507f00000000000000000000000000000000000000000000000000000000000000006001600160a01b0316610f015f80516020612052833981519152546001600160a01b031690565b6001600160a01b031614155b15610f2b5760405163703e46dd60e11b815260040160405180910390fd5b565b610f3633610a2a565b610dff5760405163dade674960e01b815260040160405180910390fd5b816001600160a01b03166352d1902d6040518163ffffffff1660e01b8152600401602060405180830381865afa925050508015610fad575060408051601f3d908101601f19168201909252610faa91810190611e5f565b60015b610fda57604051634c9c8ce360e01b81526001600160a01b03831660048201526024015b60405180910390fd5b5f80516020612052833981519152811461100a57604051632a87526960e21b815260048101829052602401610fd1565b6108c683836114b3565b306001600160a01b037f00000000000000000000000000000000000000000000000000000000000000001614610f2b5760405163703e46dd60e11b815260040160405180910390fd5b5f610a6b8383611508565b60605f610a6b8361152e565b5f6106c0825490565b5f61108a86333087611587565b5f546110a19087906001600160a01b03168661168c565b6040805160e0810182526001600160a01b03888116825287811660208301908152600354600160a01b900462ffffff90811684860190815287841660608601908152608086018b815260a087018b81525f60c08901818152905499516304e45aaf60e01b815289518916600482015296518816602488015293519094166044860152905185166064850152516084840152905160a483015251821660c4820152919216906304e45aaf9060e4016020604051808303815f875af115801561116a573d5f803e3d5ffd5b505050506040513d601f19601f82011682018060405250810190610ca59190611e5f565b606061119c86333087611587565b6001546111b49087906001600160a01b03168661168c565b6040805160028082526060820183525f9260208301908036833701905050905086815f815181106111e7576111e7611e4b565b60200260200101906001600160a01b031690816001600160a01b031681525050858160018151811061121b5761121b611e4b565b6001600160a01b039283166020918202929092010152600154166338ed17398686848761124942603c611e8a565b6040518663ffffffff1660e01b8152600401611269959493929190611e9d565b5f604051808303815f875af1158015611284573d5f803e3d5ffd5b505050506040513d5f823e601f3d908101601f19168201604052610ca59190810190611ed8565b6112b3611787565b610f2b57604051631afcd79f60e31b815260040160405180910390fd5b610f2b6112ab565b5f805160206120928339815191525f6112f084610839565b5f85815260208490526040808220600101869055519192508491839187917fbd79b86ffe0ab8e8776151514217cd7cacd52c909f66475c3af44e129f0b00ff9190a450505050565b61134282826109f4565b6108e65760405163e2517d3f60e01b81526001600160a01b038216600482015260248101839052604401610fd1565b5f5f8051602061209283398151915261138a84846109f4565b611409575f848152602082815260408083206001600160a01b03871684529091529020805460ff191660011790556113bf3390565b6001600160a01b0316836001600160a01b0316857f2f8788117e7eff1d82e926ec794901d17c78024a50270940304540a733656f0d60405160405180910390a460019150506106c0565b5f9150506106c0565b5f610a6b836001600160a01b0384166117a0565b5f5f8051602061209283398151915261143f84846109f4565b15611409575f848152602082815260408083206001600160a01b0387168085529252808320805460ff1916905551339287917ff6391f5c32d9c69d2a47ea670b442974b53935d1edc7fd64eb21e047a839171b9190a460019150506106c0565b5f610a6b836001600160a01b0384166117ec565b6114bc826118c6565b6040516001600160a01b038316907fbc7cd75a20ee27fd9adebab32041f755214dbc6bffa90cc0225b39da2e5c2d3b905f90a2805115611500576108c68282611929565b6108e661199b565b5f825f01828154811061151d5761151d611e4b565b905f5260205f200154905092915050565b6060815f0180548060200260200160405190810160405280929190818152602001828054801561157b57602002820191905f5260205f20905b815481526020019060010190808311611567575b50505050509050919050565b604080516001600160a01b0385811660248301528481166044830152606480830185905283518084039091018152608490920183526020820180516001600160e01b03166323b872dd60e01b17905291515f928392908816916115ea9190611f79565b5f604051808303815f865af19150503d805f8114611623576040519150601f19603f3d011682016040523d82523d5f602084013e611628565b606091505b50915091508180156116525750805115806116525750808060200190518101906116529190611f8f565b6116845760405162461bcd60e51b815260206004820152600360248201526229aa2360e91b6044820152606401610fd1565b505050505050565b604080516001600160a01b038481166024830152604480830185905283518084039091018152606490920183526020820180516001600160e01b031663095ea7b360e01b17905291515f928392908716916116e79190611f79565b5f604051808303815f865af19150503d805f8114611720576040519150601f19603f3d011682016040523d82523d5f602084013e611725565b606091505b509150915081801561174f57508051158061174f57508080602001905181019061174f9190611f8f565b6117805760405162461bcd60e51b8152602060048201526002602482015261534160f01b6044820152606401610fd1565b5050505050565b5f611790610ce4565b54600160401b900460ff16919050565b5f8181526001830160205260408120546117e557508154600181810184555f8481526020808220909301849055845484825282860190935260409020919091556106c0565b505f6106c0565b5f8181526001830160205260408120548015611409575f61180e600183611faa565b85549091505f9061182190600190611faa565b9050808214611880575f865f01828154811061183f5761183f611e4b565b905f5260205f200154905080875f01848154811061185f5761185f611e4b565b5f918252602080832090910192909255918252600188019052604090208390555b855486908061189157611891611fbd565b600190038181905f5260205f20015f90559055856001015f8681526020019081526020015f205f9055600193505050506106c0565b806001600160a01b03163b5f036118fb57604051634c9c8ce360e01b81526001600160a01b0382166004820152602401610fd1565b5f8051602061205283398151915280546001600160a01b0319166001600160a01b0392909216919091179055565b60605f80846001600160a01b0316846040516119459190611f79565b5f60405180830381855af49150503d805f811461197d576040519150601f19603f3d011682016040523d82523d5f602084013e611982565b606091505b50915091506119928583836119ba565b95945050505050565b3415610f2b5760405163b398979f60e01b815260040160405180910390fd5b6060826119cf576119ca82611a16565b610a6b565b81511580156119e657506001600160a01b0384163b155b15611a0f57604051639996b31560e01b81526001600160a01b0385166004820152602401610fd1565b5080610a6b565b805115611a2557805160208201fd5b60405163d6bda27560e01b815260040160405180910390fd5b5f60208284031215611a4e575f80fd5b81356001600160e01b031981168114610a6b575f80fd5b6001600160a01b0381168114610dff575f80fd5b5f60208284031215611a89575f80fd5b8135610a6b81611a65565b5f805f805f60a08688031215611aa8575f80fd5b8535611ab381611a65565b94506020860135611ac381611a65565b93506040860135611ad381611a65565b92506060860135611ae381611a65565b91506080860135611af381611a65565b809150509295509295909350565b5f60208284031215611b11575f80fd5b5035919050565b5f8060408385031215611b29575f80fd5b823591506020830135611b3b81611a65565b809150509250929050565b634e487b7160e01b5f52604160045260245ffd5b604051601f8201601f1916810167ffffffffffffffff81118282101715611b8357611b83611b46565b604052919050565b5f82601f830112611b9a575f80fd5b813567ffffffffffffffff811115611bb457611bb4611b46565b611bc7601f8201601f1916602001611b5a565b818152846020838601011115611bdb575f80fd5b816020850160208301375f918101602001919091529392505050565b5f8060408385031215611c08575f80fd5b8235611c1381611a65565b9150602083013567ffffffffffffffff811115611c2e575f80fd5b611c3a85828601611b8b565b9150509250929050565b803562ffffff81168114611c56575f80fd5b919050565b5f60208284031215611c6b575f80fd5b610a6b82611c44565b5f8060408385031215611c85575f80fd5b50508035926020909101359150565b5f8151808452602084019350602083015f5b82811015611ccd5781516001600160a01b0316865260209586019590910190600101611ca6565b5093949350505050565b602081525f610a6b6020830184611c94565b602081525f82518060208401528060208501604085015e5f604082850101526040601f19601f83011684010191505092915050565b5f8060408385031215611d2f575f80fd5b8235611d3a81611a65565b91506020830135611b3b81611a65565b5f805f60608486031215611d5c575f80fd5b8335611d6781611a65565b92506020840135611d7781611a65565b9150611d8560408501611c44565b90509250925092565b8015158114610dff575f80fd5b5f805f805f805f60e0888a031215611db1575f80fd5b8735611dbc81611a65565b96506020880135611dcc81611a65565b955060408801359450606088013593506080880135611dea81611a65565b925060a0880135611dfa81611d8e565b915060c088013567ffffffffffffffff811115611e15575f80fd5b611e218a828b01611b8b565b91505092959891949750929550565b5f60208284031215611e40575f80fd5b8151610a6b81611a65565b634e487b7160e01b5f52603260045260245ffd5b5f60208284031215611e6f575f80fd5b5051919050565b634e487b7160e01b5f52601160045260245ffd5b808201808211156106c0576106c0611e76565b85815284602082015260a060408201525f611ebb60a0830186611c94565b6001600160a01b0394909416606083015250608001529392505050565b5f60208284031215611ee8575f80fd5b815167ffffffffffffffff811115611efe575f80fd5b8201601f81018413611f0e575f80fd5b805167ffffffffffffffff811115611f2857611f28611b46565b8060051b611f3860208201611b5a565b91825260208184018101929081019087841115611f53575f80fd5b6020850194505b83851015610ca557845180835260209586019590935090910190611f5a565b5f82518060208501845e5f920191825250919050565b5f60208284031215611f9f575f80fd5b8151610a6b81611d8e565b818103818111156106c0576106c0611e76565b634e487b7160e01b5f52603160045260245ffdfe6c8d7f768a6bb4aafe85e8a2f5a9680355239c7e14646ed62b044e39de154512c1f6fe24621ce81ec5827caf0253cadb74709b061630e6b55e82371705932000c171260023d22a25a00a2789664c9334017843b831138c8ef03cc8897e5873d7f23ec0bb4210edd5cba85afd05127efcd2fc6a781bfed49188da1081670b22d8360894a13ba1a3210667c828492db98dca3e2076cc3735a920a3ca505d382bbc46a52cf33029de9f84853745a87af28464c80bf0346df1b32e205fc73319f62202dd7bc7dec4dceedda775e58dd541e08a116c6c53815c0bd028192f7b626800a264697066735822122084f90a0c4b887e8c3ad658e0ce77ff3dbdd48a37e6cb60d5672368057ba50f8f64736f6c634300081a0033",
  "linkReferences": {},
  "deployedLinkReferences": {}
}