{
  "_format": "hh-sol-artifact-1",
  "contractName": "DefaultAccessControlEnumerable",
  "sourceName": "contracts/security/DefaultAccessControlEnumerable.sol",
  "abi": [
    {
      "inputs": [],
      "name": "AccessControlBadConfirmation",
      "type": "error"
    },
    {
      "inputs": [
        {
          "internalType": "address",
          "name": "account",
          "type": "address"
        },
        {
          "internalType": "bytes32",
          "name": "neededRole",
          "type": "bytes32"
        }
      ],
      "name": "AccessControlUnauthorizedAccount",
      "type": "error"
    },
    {
      "inputs": [],
      "name": "InvalidAdminRole",
      "type": "error"
    },
    {
      "inputs": [],
      "name": "InvalidAtLeastOperatorRole",
      "type": "error"
    },
    {
      "inputs": [],
      "name": "InvalidDelegateRole",
      "type": "error"
    },
    {
      "inputs": [],
      "name": "InvalidInitialization",
      "type": "error"
    },
    {
      "inputs": [],
      "name": "InvalidSignerRole",
      "type": "error"
    },
    {
      "inputs": [],
      "name": "NotInitializing",
      "type": "error"
    },
    {
      "anonymous": false,
      "inputs": [
        {
          "indexed": false,
          "internalType": "uint64",
          "name": "version",
          "type": "uint64"
        }
      ],
      "name": "Initialized",
      "type": "event"
    },
    {
      "anonymous": false,
      "inputs": [
        {
          "indexed": true,
          "internalType": "bytes32",
          "name": "role",
          "type": "bytes32"
        },
        {
          "indexed": true,
          "internalType": "bytes32",
          "name": "previousAdminRole",
          "type": "bytes32"
        },
        {
          "indexed": true,
          "internalType": "bytes32",
          "name": "newAdminRole",
          "type": "bytes32"
        }
      ],
      "name": "RoleAdminChanged",
      "type": "event"
    },
    {
      "anonymous": false,
      "inputs": [
        {
          "indexed": true,
          "internalType": "bytes32",
          "name": "role",
          "type": "bytes32"
        },
        {
          "indexed": true,
          "internalType": "address",
          "name": "account",
          "type": "address"
        },
        {
          "indexed": true,
          "internalType": "address",
          "name": "sender",
          "type": "address"
        }
      ],
      "name": "RoleGranted",
      "type": "event"
    },
    {
      "anonymous": false,
      "inputs": [
        {
          "indexed": true,
          "internalType": "bytes32",
          "name": "role",
          "type": "bytes32"
        },
        {
          "indexed": true,
          "internalType": "address",
          "name": "account",
          "type": "address"
        },
        {
          "indexed": true,
          "internalType": "address",
          "name": "sender",
          "type": "address"
        }
      ],
      "name": "RoleRevoked",
      "type": "event"
    },
    {
      "inputs": [],
      "name": "ADMIN_DELEGATE_ROLE",
      "outputs": [
        {
          "internalType": "bytes32",
          "name": "",
          "type": "bytes32"
        }
      ],
      "stateMutability": "view",
      "type": "function"
    },
    {
      "inputs": [],
      "name": "ADMIN_ROLE",
      "outputs": [
        {
          "internalType": "bytes32",
          "name": "",
          "type": "bytes32"
        }
      ],
      "stateMutability": "view",
      "type": "function"
    },
    {
      "inputs": [],
      "name": "DEFAULT_ADMIN_ROLE",
      "outputs": [
        {
          "internalType": "bytes32",
          "name": "",
          "type": "bytes32"
        }
      ],
      "stateMutability": "view",
      "type": "function"
    },
    {
      "inputs": [],
      "name": "OPERATOR",
      "outputs": [
        {
          "internalType": "bytes32",
          "name": "",
          "type": "bytes32"
        }
      ],
      "stateMutability": "view",
      "type": "function"
    },
    {
      "inputs": [],
      "name": "SIGNER",
      "outputs": [
        {
          "internalType": "bytes32",
          "name": "",
          "type": "bytes32"
        }
      ],
      "stateMutability": "view",
      "type": "function"
    },
    {
      "inputs": [
        {
          "internalType": "bytes32",
          "name": "role",
          "type": "bytes32"
        }
      ],
      "name": "getRoleAdmin",
      "outputs": [
        {
          "internalType": "bytes32",
          "name": "",
          "type": "bytes32"
        }
      ],
      "stateMutability": "view",
      "type": "function"
    },
    {
      "inputs": [
        {
          "internalType": "bytes32",
          "name": "role",
          "type": "bytes32"
        },
        {
          "internalType": "uint256",
          "name": "index",
          "type": "uint256"
        }
      ],
      "name": "getRoleMember",
      "outputs": [
        {
          "internalType": "address",
          "name": "",
          "type": "address"
        }
      ],
      "stateMutability": "view",
      "type": "function"
    },
    {
      "inputs": [
        {
          "internalType": "bytes32",
          "name": "role",
          "type": "bytes32"
        }
      ],
      "name": "getRoleMemberCount",
      "outputs": [
        {
          "internalType": "uint256",
          "name": "",
          "type": "uint256"
        }
      ],
      "stateMutability": "view",
      "type": "function"
    },
    {
      "inputs": [
        {
          "internalType": "bytes32",
          "name": "role",
          "type": "bytes32"
        }
      ],
      "name": "getRoleMembers",
      "outputs": [
        {
          "internalType": "address[]",
          "name": "",
          "type": "address[]"
        }
      ],
      "stateMutability": "view",
      "type": "function"
    },
    {
      "inputs": [
        {
          "internalType": "bytes32",
          "name": "role",
          "type": "bytes32"
        },
        {
          "internalType": "address",
          "name": "account",
          "type": "address"
        }
      ],
      "name": "grantRole",
      "outputs": [],
      "stateMutability": "nonpayable",
      "type": "function"
    },
    {
      "inputs": [
        {
          "internalType": "bytes32",
          "name": "role",
          "type": "bytes32"
        },
        {
          "internalType": "address",
          "name": "account",
          "type": "address"
        }
      ],
      "name": "hasRole",
      "outputs": [
        {
          "internalType": "bool",
          "name": "",
          "type": "bool"
        }
      ],
      "stateMutability": "view",
      "type": "function"
    },
    {
      "inputs": [
        {
          "internalType": "address",
          "name": "_sender",
          "type": "address"
        }
      ],
      "name": "isAdmin",
      "outputs": [
        {
          "internalType": "bool",
          "name": "",
          "type": "bool"
        }
      ],
      "stateMutability": "view",
      "type": "function"
    },
    {
      "inputs": [
        {
          "internalType": "address",
          "name": "_sender",
          "type": "address"
        }
      ],
      "name": "isDelegateAdmin",
      "outputs": [
        {
          "internalType": "bool",
          "name": "",
          "type": "bool"
        }
      ],
      "stateMutability": "view",
      "type": "function"
    },
    {
      "inputs": [
        {
          "internalType": "address",
          "name": "_sender",
          "type": "address"
        }
      ],
      "name": "isOperator",
      "outputs": [
        {
          "internalType": "bool",
          "name": "",
          "type": "bool"
        }
      ],
      "stateMutability": "view",
      "type": "function"
    },
    {
      "inputs": [
        {
          "internalType": "address",
          "name": "_sender",
          "type": "address"
        }
      ],
      "name": "isSigner",
      "outputs": [
        {
          "internalType": "bool",
          "name": "",
          "type": "bool"
        }
      ],
      "stateMutability": "view",
      "type": "function"
    },
    {
      "inputs": [
        {
          "internalType": "bytes32",
          "name": "role",
          "type": "bytes32"
        },
        {
          "internalType": "address",
          "name": "callerConfirmation",
          "type": "address"
        }
      ],
      "name": "renounceRole",
      "outputs": [],
      "stateMutability": "nonpayable",
      "type": "function"
    },
    {
      "inputs": [
        {
          "internalType": "bytes32",
          "name": "role",
          "type": "bytes32"
        },
        {
          "internalType": "address",
          "name": "account",
          "type": "address"
        }
      ],
      "name": "revokeRole",
      "outputs": [],
      "stateMutability": "nonpayable",
      "type": "function"
    },
    {
      "inputs": [
        {
          "internalType": "bytes4",
          "name": "interfaceId",
          "type": "bytes4"
        }
      ],
      "name": "supportsInterface",
      "outputs": [
        {
          "internalType": "bool",
          "name": "",
          "type": "bool"
        }
      ],
      "stateMutability": "view",
      "type": "function"
    }
  ],
  "bytecode": "0x6080604052348015600e575f80fd5b50610ae48061001c5f395ff3fe608060405234801561000f575f80fd5b5060043610610111575f3560e01c80637df73e271161009e578063a16a95f31161006e578063a16a95f314610299578063a217fddf146102ac578063a3246ad3146102b3578063ca15c873146102d3578063d547741f146102e6575f80fd5b80637df73e27146102215780639010d07c1461023457806391d148541461025f578063983d273714610272575f80fd5b80632f2ff15d116100e45780632f2ff15d1461019857806336568abe146101ad578063582abd12146101c05780636d70f7ae146101e757806375b238fc146101fa575f80fd5b806301ffc9a7146101155780630952ff541461013d578063248a9ca31461017257806324d7806c14610185575b5f80fd5b610128610123366004610920565b6102f9565b60405190151581526020015b60405180910390f35b6101647fc171260023d22a25a00a2789664c9334017843b831138c8ef03cc8897e5873d781565b604051908152602001610134565b610164610180366004610947565b610323565b610128610193366004610979565b610343565b6101ab6101a6366004610992565b61036e565b005b6101ab6101bb366004610992565b610390565b6101647f6c8d7f768a6bb4aafe85e8a2f5a9680355239c7e14646ed62b044e39de15451281565b6101286101f5366004610979565b6103c8565b6101647ff23ec0bb4210edd5cba85afd05127efcd2fc6a781bfed49188da1081670b22d881565b61012861022f366004610979565b6103f3565b6102476102423660046109bc565b61041e565b6040516001600160a01b039091168152602001610134565b61012861026d366004610992565b61044b565b6101647f46a52cf33029de9f84853745a87af28464c80bf0346df1b32e205fc73319f62281565b6101286102a7366004610979565b610481565b6101645f81565b6102c66102c1366004610947565b6104ac565b60405161013491906109dc565b6101646102e1366004610947565b6104dc565b6101ab6102f4366004610992565b610500565b5f6001600160e01b03198216635a05180f60e01b148061031d575061031d8261051c565b92915050565b5f9081525f80516020610a8f833981519152602052604090206001015490565b5f61031d7ff23ec0bb4210edd5cba85afd05127efcd2fc6a781bfed49188da1081670b22d88361044b565b61037782610323565b61038081610550565b61038a838361055d565b50505050565b6001600160a01b03811633146103b95760405163334bd91960e11b815260040160405180910390fd5b6103c3828261059f565b505050565b5f61031d7f46a52cf33029de9f84853745a87af28464c80bf0346df1b32e205fc73319f6228361044b565b5f61031d7f6c8d7f768a6bb4aafe85e8a2f5a9680355239c7e14646ed62b044e39de1545128361044b565b5f8281525f80516020610a6f83398151915260208190526040822061044390846105d8565b949350505050565b5f9182525f80516020610a8f833981519152602090815260408084206001600160a01b0393909316845291905290205460ff1690565b5f61031d7fc171260023d22a25a00a2789664c9334017843b831138c8ef03cc8897e5873d78361044b565b5f8181525f80516020610a6f83398151915260208190526040909120606091906104d5906105e3565b9392505050565b5f8181525f80516020610a6f8339815191526020819052604082206104d5906105ef565b61050982610323565b61051281610550565b61038a838361059f565b5f6001600160e01b03198216637965db0b60e01b148061031d57506301ffc9a760e01b6001600160e01b031983161461031d565b61055a81336105f8565b50565b5f5f80516020610a6f833981519152816105778585610639565b90508015610443575f85815260208390526040902061059690856106da565b50949350505050565b5f5f80516020610a6f833981519152816105b985856106ee565b90508015610443575f8581526020839052604090206105969085610767565b5f6104d5838361077b565b60605f6104d5836107a1565b5f61031d825490565b610602828261044b565b6106355760405163e2517d3f60e01b81526001600160a01b03821660048201526024810183905260440160405180910390fd5b5050565b5f5f80516020610a8f833981519152610652848461044b565b6106d1575f848152602082815260408083206001600160a01b03871684529091529020805460ff191660011790556106873390565b6001600160a01b0316836001600160a01b0316857f2f8788117e7eff1d82e926ec794901d17c78024a50270940304540a733656f0d60405160405180910390a4600191505061031d565b5f91505061031d565b5f6104d5836001600160a01b0384166107fa565b5f5f80516020610a8f833981519152610707848461044b565b156106d1575f848152602082815260408083206001600160a01b0387168085529252808320805460ff1916905551339287917ff6391f5c32d9c69d2a47ea670b442974b53935d1edc7fd64eb21e047a839171b9190a4600191505061031d565b5f6104d5836001600160a01b038416610846565b5f825f01828154811061079057610790610a27565b905f5260205f200154905092915050565b6060815f018054806020026020016040519081016040528092919081815260200182805480156107ee57602002820191905f5260205f20905b8154815260200190600101908083116107da575b50505050509050919050565b5f81815260018301602052604081205461083f57508154600181810184555f84815260208082209093018490558454848252828601909352604090209190915561031d565b505f61031d565b5f81815260018301602052604081205480156106d1575f610868600183610a3b565b85549091505f9061087b90600190610a3b565b90508082146108da575f865f01828154811061089957610899610a27565b905f5260205f200154905080875f0184815481106108b9576108b9610a27565b5f918252602080832090910192909255918252600188019052604090208390555b85548690806108eb576108eb610a5a565b600190038181905f5260205f20015f90559055856001015f8681526020019081526020015f205f90556001935050505061031d565b5f60208284031215610930575f80fd5b81356001600160e01b0319811681146104d5575f80fd5b5f60208284031215610957575f80fd5b5035919050565b80356001600160a01b0381168114610974575f80fd5b919050565b5f60208284031215610989575f80fd5b6104d58261095e565b5f80604083850312156109a3575f80fd5b823591506109b36020840161095e565b90509250929050565b5f80604083850312156109cd575f80fd5b50508035926020909101359150565b602080825282518282018190525f918401906040840190835b81811015610a1c5783516001600160a01b03168352602093840193909201916001016109f5565b509095945050505050565b634e487b7160e01b5f52603260045260245ffd5b8181038181111561031d57634e487b7160e01b5f52601160045260245ffd5b634e487b7160e01b5f52603160045260245ffdfec1f6fe24621ce81ec5827caf0253cadb74709b061630e6b55e8237170593200002dd7bc7dec4dceedda775e58dd541e08a116c6c53815c0bd028192f7b626800a2646970667358221220faa367da65a8d901e7815309cacbf11d0fb83bd41a70117e6b4e2f9c172ebea564736f6c634300081a0033",
  "linkReferences": {},
  "deployedLinkReferences": {}
}