{
  "_format": "hh-sol-artifact-1",
  "contractName": "MoneyFiStrategyUpgradeableUniswap",
  "sourceName": "contracts/strategies/MoneyFiStrategyUpgradeableUniswap.sol",
  "abi": [
    {
      "inputs": [],
      "stateMutability": "nonpayable",
      "type": "constructor"
    },
    {
      "inputs": [],
      "name": "AccessControlBadConfirmation",
      "type": "error"
    },
    {
      "inputs": [
        {
          "internalType": "address",
          "name": "account",
          "type": "address"
        },
        {
          "internalType": "bytes32",
          "name": "neededRole",
          "type": "bytes32"
        }
      ],
      "name": "AccessControlUnauthorizedAccount",
      "type": "error"
    },
    {
      "inputs": [
        {
          "internalType": "address",
          "name": "target",
          "type": "address"
        }
      ],
      "name": "AddressEmptyCode",
      "type": "error"
    },
    {
      "inputs": [
        {
          "internalType": "address",
          "name": "implementation",
          "type": "address"
        }
      ],
      "name": "ERC1967InvalidImplementation",
      "type": "error"
    },
    {
      "inputs": [],
      "name": "ERC1967NonPayable",
      "type": "error"
    },
    {
      "inputs": [
        {
          "internalType": "address",
          "name": "spender",
          "type": "address"
        },
        {
          "internalType": "uint256",
          "name": "allowance",
          "type": "uint256"
        },
        {
          "internalType": "uint256",
          "name": "needed",
          "type": "uint256"
        }
      ],
      "name": "ERC20InsufficientAllowance",
      "type": "error"
    },
    {
      "inputs": [
        {
          "internalType": "address",
          "name": "sender",
          "type": "address"
        },
        {
          "internalType": "uint256",
          "name": "balance",
          "type": "uint256"
        },
        {
          "internalType": "uint256",
          "name": "needed",
          "type": "uint256"
        }
      ],
      "name": "ERC20InsufficientBalance",
      "type": "error"
    },
    {
      "inputs": [
        {
          "internalType": "address",
          "name": "approver",
          "type": "address"
        }
      ],
      "name": "ERC20InvalidApprover",
      "type": "error"
    },
    {
      "inputs": [
        {
          "internalType": "address",
          "name": "receiver",
          "type": "address"
        }
      ],
      "name": "ERC20InvalidReceiver",
      "type": "error"
    },
    {
      "inputs": [
        {
          "internalType": "address",
          "name": "sender",
          "type": "address"
        }
      ],
      "name": "ERC20InvalidSender",
      "type": "error"
    },
    {
      "inputs": [
        {
          "internalType": "address",
          "name": "spender",
          "type": "address"
        }
      ],
      "name": "ERC20InvalidSpender",
      "type": "error"
    },
    {
      "inputs": [
        {
          "internalType": "address",
          "name": "receiver",
          "type": "address"
        },
        {
          "internalType": "uint256",
          "name": "assets",
          "type": "uint256"
        },
        {
          "internalType": "uint256",
          "name": "maxAssets",
          "type": "uint256"
        }
      ],
      "name": "ERC4626ExceededMaxDeposit",
      "type": "error"
    },
    {
      "inputs": [
        {
          "internalType": "address",
          "name": "receiver",
          "type": "address"
        },
        {
          "internalType": "uint256",
          "name": "shares",
          "type": "uint256"
        },
        {
          "internalType": "uint256",
          "name": "maxShares",
          "type": "uint256"
        }
      ],
      "name": "ERC4626ExceededMaxMint",
      "type": "error"
    },
    {
      "inputs": [
        {
          "internalType": "address",
          "name": "owner",
          "type": "address"
        },
        {
          "internalType": "uint256",
          "name": "shares",
          "type": "uint256"
        },
        {
          "internalType": "uint256",
          "name": "maxShares",
          "type": "uint256"
        }
      ],
      "name": "ERC4626ExceededMaxRedeem",
      "type": "error"
    },
    {
      "inputs": [
        {
          "internalType": "address",
          "name": "owner",
          "type": "address"
        },
        {
          "internalType": "uint256",
          "name": "assets",
          "type": "uint256"
        },
        {
          "internalType": "uint256",
          "name": "maxAssets",
          "type": "uint256"
        }
      ],
      "name": "ERC4626ExceededMaxWithdraw",
      "type": "error"
    },
    {
      "inputs": [],
      "name": "EnforcedEmergencyStop",
      "type": "error"
    },
    {
      "inputs": [],
      "name": "EnforcedPause",
      "type": "error"
    },
    {
      "inputs": [],
      "name": "ExpectedPause",
      "type": "error"
    },
    {
      "inputs": [],
      "name": "FailedCall",
      "type": "error"
    },
    {
      "inputs": [],
      "name": "InvalidAdminRole",
      "type": "error"
    },
    {
      "inputs": [],
      "name": "InvalidAtLeastOperatorRole",
      "type": "error"
    },
    {
      "inputs": [],
      "name": "InvalidDelegateRole",
      "type": "error"
    },
    {
      "inputs": [],
      "name": "InvalidInitialization",
      "type": "error"
    },
    {
      "inputs": [],
      "name": "InvalidPair",
      "type": "error"
    },
    {
      "inputs": [],
      "name": "InvalidRouter",
      "type": "error"
    },
    {
      "inputs": [],
      "name": "InvalidSignerRole",
      "type": "error"
    },
    {
      "inputs": [],
      "name": "NotInitializing",
      "type": "error"
    },
    {
      "inputs": [],
      "name": "RequireSettedUpState",
      "type": "error"
    },
    {
      "inputs": [],
      "name": "RequiredAddressNotNull",
      "type": "error"
    },
    {
      "inputs": [
        {
          "internalType": "address",
          "name": "token",
          "type": "address"
        }
      ],
      "name": "SafeERC20FailedOperation",
      "type": "error"
    },
    {
      "inputs": [],
      "name": "UUPSUnauthorizedCallContext",
      "type": "error"
    },
    {
      "inputs": [
        {
          "internalType": "bytes32",
          "name": "slot",
          "type": "bytes32"
        }
      ],
      "name": "UUPSUnsupportedProxiableUUID",
      "type": "error"
    },
    {
      "anonymous": false,
      "inputs": [
        {
          "indexed": true,
          "internalType": "address",
          "name": "owner",
          "type": "address"
        },
        {
          "indexed": true,
          "internalType": "address",
          "name": "spender",
          "type": "address"
        },
        {
          "indexed": false,
          "internalType": "uint256",
          "name": "value",
          "type": "uint256"
        }
      ],
      "name": "Approval",
      "type": "event"
    },
    {
      "anonymous": false,
      "inputs": [
        {
          "indexed": false,
          "internalType": "address",
          "name": "withdrawer",
          "type": "address"
        },
        {
          "indexed": false,
          "internalType": "address",
          "name": "receiver",
          "type": "address"
        },
        {
          "indexed": false,
          "internalType": "address",
          "name": "token",
          "type": "address"
        },
        {
          "indexed": false,
          "internalType": "uint256",
          "name": "claimedAt",
          "type": "uint256"
        }
      ],
      "name": "ClaimRewardStrategy",
      "type": "event"
    },
    {
      "anonymous": false,
      "inputs": [
        {
          "indexed": false,
          "internalType": "uint256",
          "name": "baseAmount",
          "type": "uint256"
        },
        {
          "indexed": false,
          "internalType": "uint256",
          "name": "quoteAmount",
          "type": "uint256"
        },
        {
          "indexed": false,
          "internalType": "uint256",
          "name": "amountA",
          "type": "uint256"
        },
        {
          "indexed": false,
          "internalType": "uint256",
          "name": "amountB",
          "type": "uint256"
        }
      ],
      "name": "DebugAddLiquidity",
      "type": "event"
    },
    {
      "anonymous": false,
      "inputs": [
        {
          "indexed": false,
          "internalType": "uint256",
          "name": "baseBalance",
          "type": "uint256"
        },
        {
          "indexed": false,
          "internalType": "uint256",
          "name": "amountToSwap",
          "type": "uint256"
        },
        {
          "indexed": false,
          "internalType": "uint256",
          "name": "expectedQuoteOut",
          "type": "uint256"
        },
        {
          "indexed": false,
          "internalType": "uint256",
          "name": "quoteReceived",
          "type": "uint256"
        }
      ],
      "name": "DebugAfterDeposit",
      "type": "event"
    },
    {
      "anonymous": false,
      "inputs": [
        {
          "indexed": false,
          "internalType": "uint256",
          "name": "amountIn",
          "type": "uint256"
        },
        {
          "indexed": false,
          "internalType": "uint256",
          "name": "amountOut",
          "type": "uint256"
        },
        {
          "indexed": false,
          "internalType": "string",
          "name": "action",
          "type": "string"
        }
      ],
      "name": "DebugSwap",
      "type": "event"
    },
    {
      "anonymous": false,
      "inputs": [
        {
          "indexed": true,
          "internalType": "address",
          "name": "sender",
          "type": "address"
        },
        {
          "indexed": true,
          "internalType": "address",
          "name": "owner",
          "type": "address"
        },
        {
          "indexed": false,
          "internalType": "uint256",
          "name": "assets",
          "type": "uint256"
        },
        {
          "indexed": false,
          "internalType": "uint256",
          "name": "shares",
          "type": "uint256"
        }
      ],
      "name": "Deposit",
      "type": "event"
    },
    {
      "anonymous": false,
      "inputs": [
        {
          "indexed": true,
          "internalType": "address",
          "name": "pool",
          "type": "address"
        },
        {
          "indexed": true,
          "internalType": "address",
          "name": "strategy",
          "type": "address"
        },
        {
          "indexed": false,
          "internalType": "uint256",
          "name": "amount",
          "type": "uint256"
        },
        {
          "indexed": false,
          "internalType": "uint256",
          "name": "withdrawAt",
          "type": "uint256"
        }
      ],
      "name": "EmergencyWithdraw",
      "type": "event"
    },
    {
      "anonymous": false,
      "inputs": [
        {
          "indexed": false,
          "internalType": "uint64",
          "name": "version",
          "type": "uint64"
        }
      ],
      "name": "Initialized",
      "type": "event"
    },
    {
      "anonymous": false,
      "inputs": [
        {
          "indexed": false,
          "internalType": "address",
          "name": "account",
          "type": "address"
        }
      ],
      "name": "Paused",
      "type": "event"
    },
    {
      "anonymous": false,
      "inputs": [
        {
          "indexed": true,
          "internalType": "bytes32",
          "name": "role",
          "type": "bytes32"
        },
        {
          "indexed": true,
          "internalType": "bytes32",
          "name": "previousAdminRole",
          "type": "bytes32"
        },
        {
          "indexed": true,
          "internalType": "bytes32",
          "name": "newAdminRole",
          "type": "bytes32"
        }
      ],
      "name": "RoleAdminChanged",
      "type": "event"
    },
    {
      "anonymous": false,
      "inputs": [
        {
          "indexed": true,
          "internalType": "bytes32",
          "name": "role",
          "type": "bytes32"
        },
        {
          "indexed": true,
          "internalType": "address",
          "name": "account",
          "type": "address"
        },
        {
          "indexed": true,
          "internalType": "address",
          "name": "sender",
          "type": "address"
        }
      ],
      "name": "RoleGranted",
      "type": "event"
    },
    {
      "anonymous": false,
      "inputs": [
        {
          "indexed": true,
          "internalType": "bytes32",
          "name": "role",
          "type": "bytes32"
        },
        {
          "indexed": true,
          "internalType": "address",
          "name": "account",
          "type": "address"
        },
        {
          "indexed": true,
          "internalType": "address",
          "name": "sender",
          "type": "address"
        }
      ],
      "name": "RoleRevoked",
      "type": "event"
    },
    {
      "anonymous": false,
      "inputs": [
        {
          "indexed": true,
          "internalType": "address",
          "name": "from",
          "type": "address"
        },
        {
          "indexed": true,
          "internalType": "address",
          "name": "to",
          "type": "address"
        },
        {
          "indexed": false,
          "internalType": "uint256",
          "name": "value",
          "type": "uint256"
        }
      ],
      "name": "Transfer",
      "type": "event"
    },
    {
      "anonymous": false,
      "inputs": [
        {
          "indexed": false,
          "internalType": "address",
          "name": "account",
          "type": "address"
        }
      ],
      "name": "Unpaused",
      "type": "event"
    },
    {
      "anonymous": false,
      "inputs": [
        {
          "indexed": true,
          "internalType": "address",
          "name": "implementation",
          "type": "address"
        }
      ],
      "name": "Upgraded",
      "type": "event"
    },
    {
      "anonymous": false,
      "inputs": [
        {
          "indexed": true,
          "internalType": "address",
          "name": "sender",
          "type": "address"
        },
        {
          "indexed": true,
          "internalType": "address",
          "name": "receiver",
          "type": "address"
        },
        {
          "indexed": true,
          "internalType": "address",
          "name": "owner",
          "type": "address"
        },
        {
          "indexed": false,
          "internalType": "uint256",
          "name": "assets",
          "type": "uint256"
        },
        {
          "indexed": false,
          "internalType": "uint256",
          "name": "shares",
          "type": "uint256"
        }
      ],
      "name": "Withdraw",
      "type": "event"
    },
    {
      "inputs": [],
      "name": "ADMIN_DELEGATE_ROLE",
      "outputs": [
        {
          "internalType": "bytes32",
          "name": "",
          "type": "bytes32"
        }
      ],
      "stateMutability": "view",
      "type": "function"
    },
    {
      "inputs": [],
      "name": "ADMIN_ROLE",
      "outputs": [
        {
          "internalType": "bytes32",
          "name": "",
          "type": "bytes32"
        }
      ],
      "stateMutability": "view",
      "type": "function"
    },
    {
      "inputs": [],
      "name": "DEFAULT_ADMIN_ROLE",
      "outputs": [
        {
          "internalType": "bytes32",
          "name": "",
          "type": "bytes32"
        }
      ],
      "stateMutability": "view",
      "type": "function"
    },
    {
      "inputs": [],
      "name": "OPERATOR",
      "outputs": [
        {
          "internalType": "bytes32",
          "name": "",
          "type": "bytes32"
        }
      ],
      "stateMutability": "view",
      "type": "function"
    },
    {
      "inputs": [],
      "name": "SIGNER",
      "outputs": [
        {
          "internalType": "bytes32",
          "name": "",
          "type": "bytes32"
        }
      ],
      "stateMutability": "view",
      "type": "function"
    },
    {
      "inputs": [],
      "name": "UPGRADE_INTERFACE_VERSION",
      "outputs": [
        {
          "internalType": "string",
          "name": "",
          "type": "string"
        }
      ],
      "stateMutability": "view",
      "type": "function"
    },
    {
      "inputs": [],
      "name": "afterRebalance",
      "outputs": [],
      "stateMutability": "nonpayable",
      "type": "function"
    },
    {
      "inputs": [
        {
          "internalType": "address",
          "name": "owner",
          "type": "address"
        },
        {
          "internalType": "address",
          "name": "spender",
          "type": "address"
        }
      ],
      "name": "allowance",
      "outputs": [
        {
          "internalType": "uint256",
          "name": "",
          "type": "uint256"
        }
      ],
      "stateMutability": "view",
      "type": "function"
    },
    {
      "inputs": [
        {
          "internalType": "address",
          "name": "spender",
          "type": "address"
        },
        {
          "internalType": "uint256",
          "name": "value",
          "type": "uint256"
        }
      ],
      "name": "approve",
      "outputs": [
        {
          "internalType": "bool",
          "name": "",
          "type": "bool"
        }
      ],
      "stateMutability": "nonpayable",
      "type": "function"
    },
    {
      "inputs": [],
      "name": "asset",
      "outputs": [
        {
          "internalType": "address",
          "name": "",
          "type": "address"
        }
      ],
      "stateMutability": "view",
      "type": "function"
    },
    {
      "inputs": [
        {
          "internalType": "address",
          "name": "account",
          "type": "address"
        }
      ],
      "name": "balanceOf",
      "outputs": [
        {
          "internalType": "uint256",
          "name": "",
          "type": "uint256"
        }
      ],
      "stateMutability": "view",
      "type": "function"
    },
    {
      "inputs": [],
      "name": "baseToken",
      "outputs": [
        {
          "internalType": "address",
          "name": "",
          "type": "address"
        }
      ],
      "stateMutability": "view",
      "type": "function"
    },
    {
      "inputs": [],
      "name": "beforeRebalance",
      "outputs": [],
      "stateMutability": "nonpayable",
      "type": "function"
    },
    {
      "inputs": [
        {
          "internalType": "uint256",
          "name": "shares",
          "type": "uint256"
        }
      ],
      "name": "convertToAssets",
      "outputs": [
        {
          "internalType": "uint256",
          "name": "",
          "type": "uint256"
        }
      ],
      "stateMutability": "view",
      "type": "function"
    },
    {
      "inputs": [
        {
          "internalType": "uint256",
          "name": "assets",
          "type": "uint256"
        }
      ],
      "name": "convertToShares",
      "outputs": [
        {
          "internalType": "uint256",
          "name": "",
          "type": "uint256"
        }
      ],
      "stateMutability": "view",
      "type": "function"
    },
    {
      "inputs": [],
      "name": "decimals",
      "outputs": [
        {
          "internalType": "uint8",
          "name": "",
          "type": "uint8"
        }
      ],
      "stateMutability": "view",
      "type": "function"
    },
    {
      "inputs": [
        {
          "internalType": "uint256",
          "name": "assets",
          "type": "uint256"
        },
        {
          "internalType": "address",
          "name": "receiver",
          "type": "address"
        },
        {
          "internalType": "bytes",
          "name": "externalCallData",
          "type": "bytes"
        }
      ],
      "name": "deposit",
      "outputs": [
        {
          "internalType": "uint256",
          "name": "shares",
          "type": "uint256"
        }
      ],
      "stateMutability": "nonpayable",
      "type": "function"
    },
    {
      "inputs": [],
      "name": "emergencyStop",
      "outputs": [
        {
          "internalType": "bool",
          "name": "",
          "type": "bool"
        }
      ],
      "stateMutability": "view",
      "type": "function"
    },
    {
      "inputs": [],
      "name": "emergencyWithdraw",
      "outputs": [],
      "stateMutability": "nonpayable",
      "type": "function"
    },
    {
      "inputs": [
        {
          "internalType": "address",
          "name": "_userAddress",
          "type": "address"
        },
        {
          "internalType": "address",
          "name": "_tokenAddress",
          "type": "address"
        }
      ],
      "name": "getActualAssets",
      "outputs": [
        {
          "internalType": "uint256",
          "name": "",
          "type": "uint256"
        }
      ],
      "stateMutability": "view",
      "type": "function"
    },
    {
      "inputs": [
        {
          "internalType": "bytes32",
          "name": "role",
          "type": "bytes32"
        }
      ],
      "name": "getRoleAdmin",
      "outputs": [
        {
          "internalType": "bytes32",
          "name": "",
          "type": "bytes32"
        }
      ],
      "stateMutability": "view",
      "type": "function"
    },
    {
      "inputs": [
        {
          "internalType": "bytes32",
          "name": "role",
          "type": "bytes32"
        },
        {
          "internalType": "uint256",
          "name": "index",
          "type": "uint256"
        }
      ],
      "name": "getRoleMember",
      "outputs": [
        {
          "internalType": "address",
          "name": "",
          "type": "address"
        }
      ],
      "stateMutability": "view",
      "type": "function"
    },
    {
      "inputs": [
        {
          "internalType": "bytes32",
          "name": "role",
          "type": "bytes32"
        }
      ],
      "name": "getRoleMemberCount",
      "outputs": [
        {
          "internalType": "uint256",
          "name": "",
          "type": "uint256"
        }
      ],
      "stateMutability": "view",
      "type": "function"
    },
    {
      "inputs": [
        {
          "internalType": "bytes32",
          "name": "role",
          "type": "bytes32"
        }
      ],
      "name": "getRoleMembers",
      "outputs": [
        {
          "internalType": "address[]",
          "name": "",
          "type": "address[]"
        }
      ],
      "stateMutability": "view",
      "type": "function"
    },
    {
      "inputs": [
        {
          "internalType": "address",
          "name": "_userAddress",
          "type": "address"
        }
      ],
      "name": "getUserProfit",
      "outputs": [
        {
          "internalType": "int256",
          "name": "reward",
          "type": "int256"
        }
      ],
      "stateMutability": "view",
      "type": "function"
    },
    {
      "inputs": [
        {
          "internalType": "address",
          "name": "_user",
          "type": "address"
        }
      ],
      "name": "getUserStrategy",
      "outputs": [
        {
          "components": [
            {
              "internalType": "uint256",
              "name": "totalDeposited",
              "type": "uint256"
            },
            {
              "internalType": "uint256",
              "name": "totalWithDraw",
              "type": "uint256"
            },
            {
              "internalType": "int256",
              "name": "totalClaimedProfit",
              "type": "int256"
            }
          ],
          "internalType": "struct StrategyType.UserDeposit",
          "name": "",
          "type": "tuple"
        }
      ],
      "stateMutability": "view",
      "type": "function"
    },
    {
      "inputs": [
        {
          "internalType": "bytes32",
          "name": "role",
          "type": "bytes32"
        },
        {
          "internalType": "address",
          "name": "account",
          "type": "address"
        }
      ],
      "name": "grantRole",
      "outputs": [],
      "stateMutability": "nonpayable",
      "type": "function"
    },
    {
      "inputs": [
        {
          "internalType": "bytes32",
          "name": "role",
          "type": "bytes32"
        },
        {
          "internalType": "address",
          "name": "account",
          "type": "address"
        }
      ],
      "name": "hasRole",
      "outputs": [
        {
          "internalType": "bool",
          "name": "",
          "type": "bool"
        }
      ],
      "stateMutability": "view",
      "type": "function"
    },
    {
      "inputs": [
        {
          "components": [
            {
              "internalType": "address",
              "name": "admin",
              "type": "address"
            },
            {
              "internalType": "address",
              "name": "baseToken",
              "type": "address"
            },
            {
              "internalType": "address",
              "name": "quoteToken",
              "type": "address"
            },
            {
              "internalType": "address",
              "name": "router",
              "type": "address"
            },
            {
              "internalType": "address",
              "name": "crossChainRouter",
              "type": "address"
            },
            {
              "internalType": "address",
              "name": "uniswapRouter",
              "type": "address"
            },
            {
              "internalType": "address",
              "name": "uniswapFactory",
              "type": "address"
            },
            {
              "internalType": "uint256",
              "name": "slippageWhenSwapAsset",
              "type": "uint256"
            },
            {
              "internalType": "uint256",
              "name": "minimumSwapAmount",
              "type": "uint256"
            },
            {
              "internalType": "string",
              "name": "name",
              "type": "string"
            },
            {
              "internalType": "string",
              "name": "symbol",
              "type": "string"
            }
          ],
          "internalType": "struct MoneyFiStrategyUpgradeableUniswap.InitializeParams",
          "name": "params",
          "type": "tuple"
        }
      ],
      "name": "initialize",
      "outputs": [],
      "stateMutability": "nonpayable",
      "type": "function"
    },
    {
      "inputs": [
        {
          "internalType": "address",
          "name": "_sender",
          "type": "address"
        }
      ],
      "name": "isAdmin",
      "outputs": [
        {
          "internalType": "bool",
          "name": "",
          "type": "bool"
        }
      ],
      "stateMutability": "view",
      "type": "function"
    },
    {
      "inputs": [
        {
          "internalType": "address",
          "name": "_sender",
          "type": "address"
        }
      ],
      "name": "isDelegateAdmin",
      "outputs": [
        {
          "internalType": "bool",
          "name": "",
          "type": "bool"
        }
      ],
      "stateMutability": "view",
      "type": "function"
    },
    {
      "inputs": [
        {
          "internalType": "address",
          "name": "_sender",
          "type": "address"
        }
      ],
      "name": "isOperator",
      "outputs": [
        {
          "internalType": "bool",
          "name": "",
          "type": "bool"
        }
      ],
      "stateMutability": "view",
      "type": "function"
    },
    {
      "inputs": [
        {
          "internalType": "address",
          "name": "_sender",
          "type": "address"
        }
      ],
      "name": "isSigner",
      "outputs": [
        {
          "internalType": "bool",
          "name": "",
          "type": "bool"
        }
      ],
      "stateMutability": "view",
      "type": "function"
    },
    {
      "inputs": [
        {
          "internalType": "address",
          "name": "asset",
          "type": "address"
        }
      ],
      "name": "isSupportUnderlyingAsset",
      "outputs": [
        {
          "internalType": "bool",
          "name": "",
          "type": "bool"
        }
      ],
      "stateMutability": "view",
      "type": "function"
    },
    {
      "inputs": [],
      "name": "listUnderlyingAsset",
      "outputs": [
        {
          "internalType": "address",
          "name": "",
          "type": "address"
        },
        {
          "internalType": "address",
          "name": "",
          "type": "address"
        }
      ],
      "stateMutability": "view",
      "type": "function"
    },
    {
      "inputs": [
        {
          "internalType": "address",
          "name": "",
          "type": "address"
        }
      ],
      "name": "maxDeposit",
      "outputs": [
        {
          "internalType": "uint256",
          "name": "",
          "type": "uint256"
        }
      ],
      "stateMutability": "view",
      "type": "function"
    },
    {
      "inputs": [
        {
          "internalType": "address",
          "name": "",
          "type": "address"
        }
      ],
      "name": "maxMint",
      "outputs": [
        {
          "internalType": "uint256",
          "name": "",
          "type": "uint256"
        }
      ],
      "stateMutability": "view",
      "type": "function"
    },
    {
      "inputs": [
        {
          "internalType": "address",
          "name": "owner",
          "type": "address"
        }
      ],
      "name": "maxRedeem",
      "outputs": [
        {
          "internalType": "uint256",
          "name": "",
          "type": "uint256"
        }
      ],
      "stateMutability": "view",
      "type": "function"
    },
    {
      "inputs": [
        {
          "internalType": "address",
          "name": "owner",
          "type": "address"
        }
      ],
      "name": "maxWithdraw",
      "outputs": [
        {
          "internalType": "uint256",
          "name": "",
          "type": "uint256"
        }
      ],
      "stateMutability": "view",
      "type": "function"
    },
    {
      "inputs": [],
      "name": "minimumSwapAmount",
      "outputs": [
        {
          "internalType": "uint256",
          "name": "",
          "type": "uint256"
        }
      ],
      "stateMutability": "view",
      "type": "function"
    },
    {
      "inputs": [
        {
          "internalType": "uint256",
          "name": "shares",
          "type": "uint256"
        },
        {
          "internalType": "address",
          "name": "receiver",
          "type": "address"
        },
        {
          "internalType": "bytes",
          "name": "externalCallData",
          "type": "bytes"
        }
      ],
      "name": "mint",
      "outputs": [
        {
          "internalType": "uint256",
          "name": "assets",
          "type": "uint256"
        }
      ],
      "stateMutability": "nonpayable",
      "type": "function"
    },
    {
      "inputs": [],
      "name": "name",
      "outputs": [
        {
          "internalType": "string",
          "name": "",
          "type": "string"
        }
      ],
      "stateMutability": "view",
      "type": "function"
    },
    {
      "inputs": [],
      "name": "pause",
      "outputs": [],
      "stateMutability": "nonpayable",
      "type": "function"
    },
    {
      "inputs": [],
      "name": "paused",
      "outputs": [
        {
          "internalType": "bool",
          "name": "",
          "type": "bool"
        }
      ],
      "stateMutability": "view",
      "type": "function"
    },
    {
      "inputs": [
        {
          "internalType": "uint256",
          "name": "assets",
          "type": "uint256"
        }
      ],
      "name": "previewDeposit",
      "outputs": [
        {
          "internalType": "uint256",
          "name": "",
          "type": "uint256"
        }
      ],
      "stateMutability": "view",
      "type": "function"
    },
    {
      "inputs": [
        {
          "internalType": "uint256",
          "name": "shares",
          "type": "uint256"
        }
      ],
      "name": "previewMint",
      "outputs": [
        {
          "internalType": "uint256",
          "name": "",
          "type": "uint256"
        }
      ],
      "stateMutability": "view",
      "type": "function"
    },
    {
      "inputs": [
        {
          "internalType": "uint256",
          "name": "shares",
          "type": "uint256"
        }
      ],
      "name": "previewRedeem",
      "outputs": [
        {
          "internalType": "uint256",
          "name": "",
          "type": "uint256"
        }
      ],
      "stateMutability": "view",
      "type": "function"
    },
    {
      "inputs": [
        {
          "internalType": "uint256",
          "name": "assets",
          "type": "uint256"
        }
      ],
      "name": "previewWithdraw",
      "outputs": [
        {
          "internalType": "uint256",
          "name": "",
          "type": "uint256"
        }
      ],
      "stateMutability": "view",
      "type": "function"
    },
    {
      "inputs": [],
      "name": "proxiableUUID",
      "outputs": [
        {
          "internalType": "bytes32",
          "name": "",
          "type": "bytes32"
        }
      ],
      "stateMutability": "view",
      "type": "function"
    },
    {
      "inputs": [],
      "name": "quoteToken",
      "outputs": [
        {
          "internalType": "address",
          "name": "",
          "type": "address"
        }
      ],
      "stateMutability": "view",
      "type": "function"
    },
    {
      "inputs": [
        {
          "internalType": "uint256",
          "name": "shares",
          "type": "uint256"
        },
        {
          "internalType": "address",
          "name": "receiver",
          "type": "address"
        },
        {
          "internalType": "address",
          "name": "owner",
          "type": "address"
        },
        {
          "internalType": "bytes",
          "name": "externalCallData",
          "type": "bytes"
        }
      ],
      "name": "redeem",
      "outputs": [
        {
          "internalType": "uint256",
          "name": "accruedAssets",
          "type": "uint256"
        }
      ],
      "stateMutability": "nonpayable",
      "type": "function"
    },
    {
      "inputs": [
        {
          "internalType": "bytes32",
          "name": "role",
          "type": "bytes32"
        },
        {
          "internalType": "address",
          "name": "callerConfirmation",
          "type": "address"
        }
      ],
      "name": "renounceRole",
      "outputs": [],
      "stateMutability": "nonpayable",
      "type": "function"
    },
    {
      "inputs": [
        {
          "internalType": "bytes32",
          "name": "role",
          "type": "bytes32"
        },
        {
          "internalType": "address",
          "name": "account",
          "type": "address"
        }
      ],
      "name": "revokeRole",
      "outputs": [],
      "stateMutability": "nonpayable",
      "type": "function"
    },
    {
      "inputs": [
        {
          "internalType": "address",
          "name": "_crossChainRouter",
          "type": "address"
        }
      ],
      "name": "setCrossChainRouter",
      "outputs": [],
      "stateMutability": "nonpayable",
      "type": "function"
    },
    {
      "inputs": [
        {
          "internalType": "bool",
          "name": "_isEmergencyStop",
          "type": "bool"
        }
      ],
      "name": "setEmergencyStop",
      "outputs": [],
      "stateMutability": "nonpayable",
      "type": "function"
    },
    {
      "inputs": [
        {
          "internalType": "uint256",
          "name": "_minimumSwapAmount",
          "type": "uint256"
        }
      ],
      "name": "setMinimumSwapAmount",
      "outputs": [],
      "stateMutability": "nonpayable",
      "type": "function"
    },
    {
      "inputs": [
        {
          "internalType": "address",
          "name": "_router",
          "type": "address"
        }
      ],
      "name": "setRouter",
      "outputs": [],
      "stateMutability": "nonpayable",
      "type": "function"
    },
    {
      "inputs": [
        {
          "internalType": "uint256",
          "name": "_slippageWhenSwapAsset",
          "type": "uint256"
        }
      ],
      "name": "setSlippageWhenSwapAsset",
      "outputs": [],
      "stateMutability": "nonpayable",
      "type": "function"
    },
    {
      "inputs": [],
      "name": "slippageWhenSwapAsset",
      "outputs": [
        {
          "internalType": "uint256",
          "name": "",
          "type": "uint256"
        }
      ],
      "stateMutability": "view",
      "type": "function"
    },
    {
      "inputs": [
        {
          "internalType": "bytes4",
          "name": "interfaceId",
          "type": "bytes4"
        }
      ],
      "name": "supportsInterface",
      "outputs": [
        {
          "internalType": "bool",
          "name": "",
          "type": "bool"
        }
      ],
      "stateMutability": "view",
      "type": "function"
    },
    {
      "inputs": [],
      "name": "symbol",
      "outputs": [
        {
          "internalType": "string",
          "name": "",
          "type": "string"
        }
      ],
      "stateMutability": "view",
      "type": "function"
    },
    {
      "inputs": [],
      "name": "token0",
      "outputs": [
        {
          "internalType": "address",
          "name": "",
          "type": "address"
        }
      ],
      "stateMutability": "view",
      "type": "function"
    },
    {
      "inputs": [],
      "name": "token1",
      "outputs": [
        {
          "internalType": "address",
          "name": "",
          "type": "address"
        }
      ],
      "stateMutability": "view",
      "type": "function"
    },
    {
      "inputs": [],
      "name": "totalAssets",
      "outputs": [
        {
          "internalType": "uint256",
          "name": "",
          "type": "uint256"
        }
      ],
      "stateMutability": "view",
      "type": "function"
    },
    {
      "inputs": [],
      "name": "totalLiquidWhitelistPool",
      "outputs": [
        {
          "internalType": "uint256",
          "name": "tvl",
          "type": "uint256"
        }
      ],
      "stateMutability": "view",
      "type": "function"
    },
    {
      "inputs": [],
      "name": "totalSupply",
      "outputs": [
        {
          "internalType": "uint256",
          "name": "",
          "type": "uint256"
        }
      ],
      "stateMutability": "view",
      "type": "function"
    },
    {
      "inputs": [
        {
          "internalType": "address",
          "name": "to",
          "type": "address"
        },
        {
          "internalType": "uint256",
          "name": "value",
          "type": "uint256"
        }
      ],
      "name": "transfer",
      "outputs": [
        {
          "internalType": "bool",
          "name": "",
          "type": "bool"
        }
      ],
      "stateMutability": "nonpayable",
      "type": "function"
    },
    {
      "inputs": [
        {
          "internalType": "address",
          "name": "from",
          "type": "address"
        },
        {
          "internalType": "address",
          "name": "to",
          "type": "address"
        },
        {
          "internalType": "uint256",
          "name": "value",
          "type": "uint256"
        }
      ],
      "name": "transferFrom",
      "outputs": [
        {
          "internalType": "bool",
          "name": "",
          "type": "bool"
        }
      ],
      "stateMutability": "nonpayable",
      "type": "function"
    },
    {
      "inputs": [],
      "name": "uniswapFactory",
      "outputs": [
        {
          "internalType": "address",
          "name": "",
          "type": "address"
        }
      ],
      "stateMutability": "view",
      "type": "function"
    },
    {
      "inputs": [],
      "name": "uniswapPair",
      "outputs": [
        {
          "internalType": "address",
          "name": "",
          "type": "address"
        }
      ],
      "stateMutability": "view",
      "type": "function"
    },
    {
      "inputs": [],
      "name": "uniswapRouter",
      "outputs": [
        {
          "internalType": "address",
          "name": "",
          "type": "address"
        }
      ],
      "stateMutability": "view",
      "type": "function"
    },
    {
      "inputs": [],
      "name": "unpause",
      "outputs": [],
      "stateMutability": "nonpayable",
      "type": "function"
    },
    {
      "inputs": [
        {
          "internalType": "address",
          "name": "newImplementation",
          "type": "address"
        },
        {
          "internalType": "bytes",
          "name": "data",
          "type": "bytes"
        }
      ],
      "name": "upgradeToAndCall",
      "outputs": [],
      "stateMutability": "payable",
      "type": "function"
    },
    {
      "inputs": [
        {
          "internalType": "uint256",
          "name": "assets",
          "type": "uint256"
        },
        {
          "internalType": "address",
          "name": "receiver",
          "type": "address"
        },
        {
          "internalType": "address",
          "name": "owner",
          "type": "address"
        },
        {
          "internalType": "bytes",
          "name": "externalCallData",
          "type": "bytes"
        }
      ],
      "name": "withdraw",
      "outputs": [
        {
          "internalType": "uint256",
          "name": "shares",
          "type": "uint256"
        }
      ],
      "stateMutability": "nonpayable",
      "type": "function"
    }
  ],
  "bytecode": "0x60a060405230608052348015610013575f80fd5b5061001c610029565b610024610029565b6100db565b7ff0c57e16840df040f15088dc2f81fe391c3923bec73e23a9662efc9c229c6a00805468010000000000000000900460ff16156100795760405163f92ee8a960e01b815260040160405180910390fd5b80546001600160401b03908116146100d85780546001600160401b0319166001600160401b0390811782556040519081527fc7f505b2f371ae2175ee4913f4499e1f2633a7b5936321eed1cdaeb6115181d29060200160405180910390a15b50565b608051614e696101015f395f818161235c0152818161238501526125330152614e695ff3fe608060405260043610610421575f3560e01c806373c0251911610220578063b3d7f6b911610129578063ca15c873116100b3578063db2e21bc11610078578063db2e21bc14610c22578063dc5c7d3114610c36578063dd62ed3e14610c77578063ef8b30f714610b2a578063faa9bce914610c96575f80fd5b8063ca15c87314610b87578063ce96cb7714610ba6578063d21220a714610bc5578063d547741f14610be4578063d905777e14610c03575f80fd5b8063c55dae63116100f9578063c55dae6314610b0b578063c63d75b6146106e5578063c6e6f59214610b2a578063c73d7c7b14610b49578063c816841b14610b68575f80fd5b8063b3d7f6b914610aae578063c0b538f814610584578063c0d7865514610acd578063c34bc3c714610aec575f80fd5b806395d89b41116101aa578063a217fddf1161017a578063a217fddf14610a01578063a3246ad314610a14578063a7b7e98814610a40578063a9059cbb14610a5f578063ad3cb1cc14610a7e575f80fd5b806395d89b4114610999578063983d2737146109ad5780639d745cc0146109cd578063a16a95f3146109e2575f80fd5b80638501a3b1116101f05780638501a3b1146108fe57806387515b901461091d5780638bdb2afa1461093c5780639010d07c1461095b57806391d148541461097a575f80fd5b806373c025191461088c57806375b238fc146108ab5780637df73e27146108cb5780638456cb59146108ea575f80fd5b8063313ce5671161032d57806355f8c2c7116102b75780635debb5081161027c5780635debb508146107e557806363a599a4146108105780636d70f7ae1461082f57806370a082311461084e578063735de9f71461086d575f80fd5b806355f8c2c71461074b57806356b8209b1461076a578063582abd121461078957806359561f0a146107a95780635c975abb146107c8575f80fd5b8063402d267d116102fd578063402d267d146106e55780634cdad5061461049c5780634f1ef28614610705578063520ab54d1461071857806352d1902d14610737575f80fd5b8063313ce5671461067057806336568abe1461069657806338d52e0f146106b55780633f4ba83a146106d1575f80fd5b806318160ddd116103ae57806323b872dd1161037e57806323b872dd146105c7578063248a9ca3146105e657806324d7806c146106055780632eb8b80f146106245780632f2ff15d14610651575f80fd5b806318160ddd146105645780631c5561ea14610584578063200ab15d14610593578063217a4b70146105a8575f80fd5b80630952ff54116103f45780630952ff54146104bb578063095ea7b3146104db5780630a28a477146104fa5780630dfe16811461051957806317d261cd14610550575f80fd5b806301e1d1141461042557806301ffc9a71461044c57806306fdde031461047b57806307a2d13a1461049c575b5f80fd5b348015610430575f80fd5b50610439610cb5565b6040519081526020015b60405180910390f35b348015610457575f80fd5b5061046b610466366004614175565b610f46565b6040519015158152602001610443565b348015610486575f80fd5b5061048f610f70565b604051610443919061419c565b3480156104a7575f80fd5b506104396104b63660046141d1565b611030565b3480156104c6575f80fd5b506104395f80516020614d3483398151915281565b3480156104e6575f80fd5b5061046b6104f536600461420c565b61103b565b348015610505575f80fd5b506104396105143660046141d1565b611052565b348015610524575f80fd5b50600754610538906001600160a01b031681565b6040516001600160a01b039091168152602001610443565b34801561055b575f80fd5b5061043961105e565b34801561056f575f80fd5b505f80516020614d9483398151915254610439565b34801561058f575f80fd5b505b005b34801561059e575f80fd5b50610439600c5481565b3480156105b3575f80fd5b50600954610538906001600160a01b031681565b3480156105d2575f80fd5b5061046b6105e1366004614236565b611161565b3480156105f1575f80fd5b506104396106003660046141d1565b611186565b348015610610575f80fd5b5061046b61061f366004614274565b6111a6565b34801561062f575f80fd5b5061046b61063e366004614274565b5f546001600160a01b0391821691161490565b34801561065c575f80fd5b5061059161066b36600461428f565b6111be565b34801561067b575f80fd5b506106846111e0565b60405160ff9091168152602001610443565b3480156106a1575f80fd5b506105916106b036600461428f565b6111fd565b3480156106c0575f80fd5b505f546001600160a01b0316610538565b3480156106dc575f80fd5b50610591611235565b3480156106f0575f80fd5b506104396106ff366004614274565b505f1990565b610591610713366004614385565b611263565b348015610723575f80fd5b50610439610732366004614274565b611282565b348015610742575f80fd5b5061043961128c565b348015610756575f80fd5b506104396107653660046143d1565b6112a8565b348015610775575f80fd5b50610591610784366004614274565b6112d0565b348015610794575f80fd5b506104395f80516020614cf483398151915281565b3480156107b4575f80fd5b506105916107c33660046141d1565b61133f565b3480156107d3575f80fd5b505f54600160a81b900460ff1661046b565b3480156107f0575f80fd5b505f54604080516001600160a01b03909216808352602083015201610443565b34801561081b575f80fd5b505f5461046b90600160b01b900460ff1681565b34801561083a575f80fd5b5061046b610849366004614274565b61136a565b348015610859575f80fd5b50610439610868366004614274565b611382565b348015610878575f80fd5b50600454610538906001600160a01b031681565b348015610897575f80fd5b506104396108a63660046143fd565b6113a8565b3480156108b6575f80fd5b506104395f80516020614d7483398151915281565b3480156108d6575f80fd5b5061046b6108e5366004614274565b6113e3565b3480156108f5575f80fd5b506105916113fb565b348015610909575f80fd5b506105916109183660046141d1565b611429565b348015610928575f80fd5b50610439610937366004614451565b611454565b348015610947575f80fd5b50600554610538906001600160a01b031681565b348015610966575f80fd5b506105386109753660046144b8565b6114b8565b348015610985575f80fd5b5061046b61099436600461428f565b6114e5565b3480156109a4575f80fd5b5061048f61151b565b3480156109b8575f80fd5b506104395f80516020614df483398151915281565b3480156109d8575f80fd5b50610439600b5481565b3480156109ed575f80fd5b5061046b6109fc366004614274565b611559565b348015610a0c575f80fd5b506104395f81565b348015610a1f575f80fd5b50610a33610a2e3660046141d1565b611571565b604051610443919061451b565b348015610a4b575f80fd5b50610439610a5a366004614451565b61159a565b348015610a6a575f80fd5b5061046b610a7936600461420c565b6115f4565b348015610a89575f80fd5b5061048f604051806040016040528060058152602001640352e302e360dc1b81525081565b348015610ab9575f80fd5b50610439610ac83660046141d1565b611601565b348015610ad8575f80fd5b50610591610ae7366004614274565b61160d565b348015610af7575f80fd5b50610591610b0636600461452d565b61167c565b348015610b16575f80fd5b50600a54610538906001600160a01b031681565b348015610b35575f80fd5b50610439610b443660046141d1565b61198d565b348015610b54575f80fd5b50610591610b63366004614652565b611998565b348015610b73575f80fd5b50600654610538906001600160a01b031681565b348015610b92575f80fd5b50610439610ba13660046141d1565b6119f9565b348015610bb1575f80fd5b50610439610bc0366004614274565b611a1d565b348015610bd0575f80fd5b50600854610538906001600160a01b031681565b348015610bef575f80fd5b50610591610bfe36600461428f565b611a30565b348015610c0e575f80fd5b50610439610c1d366004614274565b611a4c565b348015610c2d575f80fd5b50610591611a56565b348015610c41575f80fd5b50610c55610c50366004614274565b611eb7565b6040805182518152602080840151908201529181015190820152606001610443565b348015610c82575f80fd5b50610439610c913660046143d1565b611f19565b348015610ca1575f80fd5b50610439610cb03660046143fd565b611f62565b600a546040516370a0823160e01b81523060048201525f9182916001600160a01b03909116906370a0823190602401602060405180830381865afa158015610cff573d5f803e3d5ffd5b505050506040513d601f19601f82011682018060405250810190610d239190614671565b6006546040516370a0823160e01b81523060048201529192505f916001600160a01b03909116906370a0823190602401602060405180830381865afa158015610d6e573d5f803e3d5ffd5b505050506040513d601f19601f82011682018060405250810190610d929190614671565b9050805f03610da15750919050565b5f8060065f9054906101000a90046001600160a01b03166001600160a01b0316630902f1ac6040518163ffffffff1660e01b8152600401606060405180830381865afa158015610df3573d5f803e3d5ffd5b505050506040513d601f19601f82011682018060405250810190610e17919061469e565b50600a546007546001600160701b0393841695509190921692505f916001600160a01b03918216911614610e4b5781610e4d565b825b600a546007549192505f916001600160a01b03908116911614610e705783610e72565b825b90505f60065f9054906101000a90046001600160a01b03166001600160a01b03166318160ddd6040518163ffffffff1660e01b8152600401602060405180830381865afa158015610ec5573d5f803e3d5ffd5b505050506040513d601f19601f82011682018060405250810190610ee99190614671565b90505f610ef887858484611f87565b90505f610f0788858584611f87565b90505f808211610f17575f610f20565b610f2082611fd2565b905080610f2d848c6146fe565b610f3791906146fe565b9a505050505050505050505090565b5f6001600160e01b03198216635a05180f60e01b1480610f6a5750610f6a8261210d565b92915050565b7f52c63247e1f47db19d5ce0460030c497f067ca4cebf71ba98eeadabe20bace0380546060915f80516020614d5483398151915291610fae90614711565b80601f0160208091040260200160405190810160405280929190818152602001828054610fda90614711565b80156110255780601f10610ffc57610100808354040283529160200191611025565b820191905f5260205f20905b81548152906001019060200180831161100857829003601f168201915b505050505091505090565b5f610f6a825f612141565b5f33611048818585612185565b5060019392505050565b5f610f6a826001612192565b5f805f60065f9054906101000a90046001600160a01b03166001600160a01b0316630902f1ac6040518163ffffffff1660e01b8152600401606060405180830381865afa1580156110b1573d5f803e3d5ffd5b505050506040513d601f19601f820116820180604052508101906110d5919061469e565b50600a546007546001600160701b0393841695509190921692505f916001600160a01b03918216911614611109578161110b565b825b600a546007549192505f916001600160a01b0390811691161461112e5783611130565b825b90505f808211611140575f611149565b61114982611fd2565b905061115581846146fe565b9550505050505090565b565b5f3361116e8582856121cd565b611179858585612218565b60019150505b9392505050565b5f9081525f80516020614e14833981519152602052604090206001015490565b5f610f6a5f80516020614d74833981519152836114e5565b6111c782611186565b6111d081612275565b6111da8383612282565b50505050565b5f805f546111f89190600160a01b900460ff16614749565b905090565b6001600160a01b03811633146112265760405163334bd91960e11b815260040160405180910390fd5b61123082826122c4565b505050565b61123e33611559565b61125b5760405163dade674960e01b815260040160405180910390fd5b61115f6122fd565b61126b612351565b611274826123f5565b61127e828261241b565b5050565b5f610f6a826124d7565b5f611295612528565b505f80516020614dd48339815191525b90565b5f80546001600160a01b038381169116146112c457505f610f6a565b61117f6104b684611382565b6112d9336111a6565b6112f657604051632d4d7bb360e01b815260040160405180910390fd5b6001600160a01b03811661131d57604051631076992760e31b815260040160405180910390fd5b600280546001600160a01b0319166001600160a01b0392909216919091179055565b61134833611559565b6113655760405163dade674960e01b815260040160405180910390fd5b600b55565b5f610f6a5f80516020614df4833981519152836114e5565b6001600160a01b03165f9081525f80516020614d54833981519152602052604090205490565b5f5f196113b9565b60405180910390fd5b6113c285611601565b91506113d033858488612571565b6113db8286856125ee565b509392505050565b5f610f6a5f80516020614cf4833981519152836114e5565b61140433611559565b6114215760405163dade674960e01b815260040160405180910390fd5b61115f61288d565b61143233611559565b61144f5760405163dade674960e01b815260040160405180910390fd5b600c55565b5f8061145f84611a4c565b90508086111561148857838682604051632e52afbb60e21b81526004016113b093929190614762565b5f61149287611030565b905061149f8188866128cf565b92506114ae338787868b612baa565b5050949350505050565b5f8281525f80516020614d148339815191526020819052604082206114dd9084612d72565b949350505050565b5f9182525f80516020614e14833981519152602090815260408084206001600160a01b0393909316845291905290205460ff1690565b7f52c63247e1f47db19d5ce0460030c497f067ca4cebf71ba98eeadabe20bace0480546060915f80516020614d5483398151915291610fae90614711565b5f610f6a5f80516020614d34833981519152836114e5565b5f8181525f80516020614d14833981519152602081905260409091206060919061117f90612d7d565b5f806115a584611a1d565b9050808611156115ce57838682604051633fa733bb60e21b81526004016113b093929190614762565b6115d786611052565b91505f6115e58784866128cf565b90506114ae3387878487612baa565b5f33611048818585612218565b5f610f6a826001612141565b611616336111a6565b61163357604051632d4d7bb360e01b815260040160405180910390fd5b6001600160a01b03811661165a57604051631076992760e31b815260040160405180910390fd5b600180546001600160a01b0319166001600160a01b0392909216919091179055565b5f611685612d89565b805490915060ff600160401b82041615906001600160401b03165f811580156116ab5750825b90505f826001600160401b031660011480156116c65750303b155b9050811580156116d4575080155b156116f25760405163f92ee8a960e01b815260040160405180910390fd5b845467ffffffffffffffff19166001178555831561171c57845460ff60401b1916600160401b1785555b855161172790612db1565b61174a8660200151876060015188608001518961012001518a6101400151612ea4565b611752612ee8565b6020860151600a80546001600160a01b03199081166001600160a01b03938416908117909255604089015160098054831691851691909117905560a089015160048054831682861617905560c08a015160058054909316941693909317905560e0880151600b55610100880151600c556117cd915f19612ef0565b6117f48660a001515f1988604001516001600160a01b0316612ef09092919063ffffffff16565b60c08601516020870151604080890151905163e6a4390560e01b81525f936001600160a01b03169263e6a4390592611843926004016001600160a01b0392831681529116602082015260400190565b602060405180830381865afa15801561185e573d5f803e3d5ffd5b505050506040513d601f19601f820116820180604052508101906118829190614783565b90506001600160a01b0381166118ab57604051630793df6360e21b815260040160405180910390fd5b600680546001600160a01b0319166001600160a01b0383811691909117909155604088015160208901519082169116106118ee57866040015187602001516118f9565b866020015187604001515b600880546001600160a01b03199081166001600160a01b0393841617909155600780549091169282169290921790915560a088015160065461193e9216905f19612ef0565b50831561198557845460ff60401b19168555604051600181527fc7f505b2f371ae2175ee4913f4499e1f2633a7b5936321eed1cdaeb6115181d29060200160405180910390a15b505050505050565b5f610f6a825f612192565b6001546001600160a01b031633148015906119be57506002546001600160a01b03163314155b156119dc5760405163466d7fef60e01b815260040160405180910390fd5b5f8054911515600160b01b0260ff60b01b19909216919091179055565b5f8181525f80516020614d1483398151915260208190526040822061117f90612f77565b5f610f6a611a2a83611382565b5f612141565b611a3982611186565b611a4281612275565b6111da83836122c4565b5f610f6a82611382565b6001546001600160a01b03163314801590611a7c57506002546001600160a01b03163314155b15611a9a5760405163466d7fef60e01b815260040160405180910390fd5b5f54600160b01b900460ff1615611ac45760405163351d242560e11b815260040160405180910390fd5b6006546040516370a0823160e01b81523060048201525f916001600160a01b0316906370a0823190602401602060405180830381865afa158015611b0a573d5f803e3d5ffd5b505050506040513d601f19601f82011682018060405250810190611b2e9190614671565b600a546040516370a0823160e01b81523060048201529192505f916001600160a01b03909116906370a0823190602401602060405180830381865afa158015611b79573d5f803e3d5ffd5b505050506040513d601f19601f82011682018060405250810190611b9d9190614671565b6004546007546008549293505f9283926001600160a01b039081169263baa2abde92908216911687858030611bd342601e6146fe565b6040518863ffffffff1660e01b8152600401611bf5979695949392919061479e565b60408051808303815f875af1158015611c10573d5f803e3d5ffd5b505050506040513d601f19601f82011682018060405250810190611c3491906147de565b600a546007549294509092505f916001600160a01b03908116911614611c5a5781611c5c565b825b600a546007549192505f916001600160a01b03908116911614611c7f5783611c81565b825b90508015611dd8576040805160028082526060820183525f92602083019080368337505060095482519293506001600160a01b0316918391505f90611cc857611cc8614800565b6001600160a01b039283166020918202929092010152600a54825191169082906001908110611cf957611cf9614800565b60200260200101906001600160a01b031690816001600160a01b0316815250505f611d2383611fd2565b6004549091505f906001600160a01b03166338ed173985848630611d4842601e6146fe565b6040518663ffffffff1660e01b8152600401611d68959493929190614814565b5f604051808303815f875af1158015611d83573d5f803e3d5ffd5b505050506040513d5f823e601f3d908101601f19168201604052611daa919081019061484f565b905080600181518110611dbf57611dbf614800565b602002602001015185611dd291906146fe565b94505050505b600a546040516370a0823160e01b81523060048201525f916001600160a01b0316906370a0823190602401602060405180830381865afa158015611e1e573d5f803e3d5ffd5b505050506040513d601f19601f82011682018060405250810190611e429190614671565b90505f611e4f87836148f9565b5f805460ff60b01b1916600160b01b1790556006546040805183815242602082015292935030926001600160a01b03909216917f1401b6ff3b281e84fd77353369caed48ba7e787dd3821db05cc0064373608201910160405180910390a35050505050505050565b611ed860405180606001604052805f81526020015f81526020015f81525090565b506001600160a01b03165f90815260036020908152604091829020825160608101845281548152600182015492810192909252600201549181019190915290565b6001600160a01b039182165f9081527f52c63247e1f47db19d5ce0460030c497f067ca4cebf71ba98eeadabe20bace016020908152604080832093909416825291909152205490565b5f5f19611f6e8561198d565b9150611f7c33858785612571565b6113db8583856125ee565b5f611fb4611f9483612f80565b8015611faf57505f8480611faa57611faa61490c565b868809115b151590565b611fbf868686612fac565b611fc991906146fe565b95945050505050565b6040805160028082526060820183525f9283929190602083019080368337505060095482519293506001600160a01b0316918391505f9061201557612015614800565b6001600160a01b039283166020918202929092010152600a5482519116908290600190811061204657612046614800565b6001600160a01b0392831660209182029290920101526004805460405163d06ca61f60e01b81525f93919091169163d06ca61f91612088918891879101614920565b5f60405180830381865afa1580156120a2573d5f803e3d5ffd5b505050506040513d5f823e601f3d908101601f191682016040526120c9919081019061484f565b90506114dd600b546127106120de91906148f9565b6127105f846001815181106120f5576120f5614800565b6020026020010151611f87909392919063ffffffff16565b5f6001600160e01b03198216637965db0b60e01b1480610f6a57506301ffc9a760e01b6001600160e01b0319831614610f6a565b5f61117f61214d610cb5565b6121589060016146fe565b6121635f600a614a1b565b5f80516020614d948339815191525461217c91906146fe565b85919085611f87565b611230838383600161305c565b5f61117f6121a182600a614a1b565b5f80516020614d94833981519152546121ba91906146fe565b6121c2610cb5565b61217c9060016146fe565b5f6121d88484611f19565b90505f198110156111da578181101561220a57828183604051637dc7a0d960e11b81526004016113b093929190614762565b6111da84848484035f61305c565b6001600160a01b03831661224157604051634b637e8f60e11b81525f60048201526024016113b0565b6001600160a01b03821661226a5760405163ec442f0560e01b81525f60048201526024016113b0565b611230838383613140565b61227f813361318f565b50565b5f5f80516020614d148339815191528161229c85856131c8565b905080156114dd575f8581526020839052604090206122bb9085613270565b50949350505050565b5f5f80516020614d14833981519152816122de8585613284565b905080156114dd575f8581526020839052604090206122bb90856132fd565b612305613311565b5f805460ff60a81b191690557f5db9ee0a495bf2e6ff9c91a7834c1ba4fdd244a5e8aa4e537bd38aeae4b073aa335b6040516001600160a01b03909116815260200160405180910390a1565b306001600160a01b037f00000000000000000000000000000000000000000000000000000000000000001614806123d757507f00000000000000000000000000000000000000000000000000000000000000006001600160a01b03166123cb5f80516020614dd4833981519152546001600160a01b031690565b6001600160a01b031614155b1561115f5760405163703e46dd60e11b815260040160405180910390fd5b6123fe33611559565b61227f5760405163dade674960e01b815260040160405180910390fd5b816001600160a01b03166352d1902d6040518163ffffffff1660e01b8152600401602060405180830381865afa925050508015612475575060408051601f3d908101601f1916820190925261247291810190614671565b60015b61249d57604051634c9c8ce360e01b81526001600160a01b03831660048201526024016113b0565b5f80516020614dd483398151915281146124cd57604051632a87526960e21b8152600481018290526024016113b0565b611230838361333a565b6001600160a01b0381165f9081526003602052604081206002810154815460019092015490919061250a611a2a86611382565b6125149190614a29565b61251e9190614a50565b610f6a9190614a50565b306001600160a01b037f0000000000000000000000000000000000000000000000000000000000000000161461115f5760405163703e46dd60e11b815260040160405180910390fd5b6001546001600160a01b0316331480159061259757506002546001600160a01b03163314155b156125b55760405163466d7fef60e01b815260040160405180910390fd5b6001600160a01b0383165f90815260036020526040812080548492906125dc9084906146fe565b909155506111da90508484848461338f565b5f54600160b01b900460ff16156126185760405163351d242560e11b815260040160405180910390fd5b600a546040516370a0823160e01b81523060048201525f916001600160a01b0316906370a0823190602401602060405180830381865afa15801561265e573d5f803e3d5ffd5b505050506040513d601f19601f820116820180604052508101906126829190614671565b604080518281525f60208201819052818301819052606082015290519192505f80516020614db4833981519152919081900360800190a1600c548110612854575f6126ce600283614a6f565b90505f6126da82611fd2565b60408051858152602081018590529081018290525f60608201529091505f80516020614db48339815191529060800160405180910390a1600a546009545f91612731916001600160a01b039182169116858561340c565b90507f31d57bfeeaa90650f14839f1a640fa5c8caf05962c67499f9021645764d7474e83826040516127979291909182526020820152606060408201819052601290820152711cddd85c0818599d195c8819195c1bdcda5d60721b608082015260a00190565b60405180910390a1600a546040516370a0823160e01b81523060048201525f916001600160a01b0316906370a0823190602401602060405180830381865afa1580156127e5573d5f803e3d5ffd5b505050506040513d601f19601f820116820180604052508101906128099190614671565b6040805187815260208101879052908101859052606081018490529091505f80516020614db48339815191529060800160405180910390a161284b8183613653565b505050506111da565b604080518281525f60208201819052818301819052606082015290515f80516020614db48339815191529181900360800190a150505050565b612895613872565b5f805460ff60a81b1916600160a81b1790557f62e78cea01bee320cd4e420270b5ea74000d11b0c9f74754ebdbfc544b05a2586123343390565b6006546040516370a0823160e01b81523060048201525f9182916001600160a01b03909116906370a0823190602401602060405180830381865afa158015612919573d5f803e3d5ffd5b505050506040513d601f19601f8201168201806040525081019061293d9190614671565b90505f612962856129595f80516020614d948339815191525490565b8491905f611f87565b6004546007546008549293505f9283926001600160a01b039081169263baa2abde9290821691168685803061299842601e6146fe565b6040518863ffffffff1660e01b81526004016129ba979695949392919061479e565b60408051808303815f875af11580156129d5573d5f803e3d5ffd5b505050506040513d601f19601f820116820180604052508101906129f991906147de565b600a546007549294509092505f916001600160a01b03908116911614612a1f5781612a21565b825b600a546007549192505f916001600160a01b03908116911614612a445783612a46565b825b90508015612b9d576040805160028082526060820183525f92602083019080368337505060095482519293506001600160a01b0316918391505f90612a8d57612a8d614800565b6001600160a01b039283166020918202929092010152600a54825191169082906001908110612abe57612abe614800565b60200260200101906001600160a01b031690816001600160a01b0316815250505f612ae883611fd2565b6004549091505f906001600160a01b03166338ed173985848630612b0d42601e6146fe565b6040518663ffffffff1660e01b8152600401612b2d959493929190614814565b5f604051808303815f875af1158015612b48573d5f803e3d5ffd5b505050506040513d5f823e601f3d908101601f19168201604052612b6f919081019061484f565b905080600181518110612b8457612b84614800565b602002602001015185612b9791906146fe565b94505050505b5098975050505050505050565b6001546001600160a01b03163314801590612bd057506002546001600160a01b03163314155b15612bee5760405163466d7fef60e01b815260040160405180910390fd5b6001600160a01b0383165f90815260036020526040812060028101548154600190920154909190612c1f9086614a29565b612c299190614a50565b612c339190614a50565b6001600160a01b0385165f90815260036020526040812060010180549293508592909190612c629084906146fe565b90915550506001600160a01b0384165f9081526003602052604081206002018054839290612c91908490614a29565b90915550506001600160a01b0386811690851614801590612cc057506001546001600160a01b03878116911614155b8015612cda57506002546001600160a01b03878116911614155b15612cea57612cea8487846121cd565b612cf4848361389c565b5f54612d0a906001600160a01b031686856138d0565b836001600160a01b0316856001600160a01b0316876001600160a01b03167ffbde797d201c681b91056529119e0b02407c7bb96a4a2c75c01fc9667232c8db8686604051612d62929190918252602082015260400190565b60405180910390a4505050505050565b5f61117f838361392f565b60605f61117f83613955565b5f807ff0c57e16840df040f15088dc2f81fe391c3923bec73e23a9662efc9c229c6a00610f6a565b612db96139ae565b612dc1612ee8565b612dd85f80516020614df483398151915282612282565b50612df05f80516020614d7483398151915282612282565b50612e085f80516020614d3483398151915282612282565b50612e205f80516020614cf483398151915282612282565b50612e385f80516020614d74833981519152806139d3565b612e5c5f80516020614d348339815191525f80516020614d748339815191526139d3565b612e805f80516020614df48339815191525f80516020614d348339815191526139d3565b61227f5f80516020614cf48339815191525f80516020614d348339815191526139d3565b612eac6139ae565b612eb7858383613a33565b5050600180546001600160a01b039384166001600160a01b0319918216179091556002805492909316911617905550565b61115f6139ae565b604051636eb1769f60e11b81523060048201526001600160a01b0383811660248301525f919085169063dd62ed3e90604401602060405180830381865afa158015612f3d573d5f803e3d5ffd5b505050506040513d601f19601f82011682018060405250810190612f619190614671565b90506111da8484612f7285856146fe565b613a99565b5f610f6a825490565b5f6002826003811115612f9557612f95614a82565b612f9f9190614a96565b60ff166001149050919050565b5f805f612fb98686613b28565b91509150815f03612fdd57838181612fd357612fd361490c565b049250505061117f565b818411612ff457612ff46003851502601118613b44565b5f848688095f868103871696879004966002600389028118808a02820302808a02820302808a02820302808a02820302808a02820302808a02909103029181900381900460010185841190960395909502919093039390930492909217029150509392505050565b5f80516020614d548339815191526001600160a01b0385166130935760405163e602df0560e01b81525f60048201526024016113b0565b6001600160a01b0384166130bc57604051634a1406b160e11b81525f60048201526024016113b0565b6001600160a01b038086165f9081526001830160209081526040808320938816835292905220839055811561313957836001600160a01b0316856001600160a01b03167f8c5be1e5ebec7d5bd14f71427d1e84f3dd0314c0f7b2291e5b200ac8c7c3b9258560405161313091815260200190565b60405180910390a35b5050505050565b6001546001600160a01b0316331480159061316657506002546001600160a01b03163314155b156131845760405163466d7fef60e01b815260040160405180910390fd5b611230838383613b55565b61319982826114e5565b61127e5760405163e2517d3f60e01b81526001600160a01b0382166004820152602481018390526044016113b0565b5f5f80516020614e148339815191526131e184846114e5565b613260575f848152602082815260408083206001600160a01b03871684529091529020805460ff191660011790556132163390565b6001600160a01b0316836001600160a01b0316857f2f8788117e7eff1d82e926ec794901d17c78024a50270940304540a733656f0d60405160405180910390a46001915050610f6a565b5f915050610f6a565b5092915050565b5f61117f836001600160a01b038416613c6d565b5f5f80516020614e1483398151915261329d84846114e5565b15613260575f848152602082815260408083206001600160a01b0387168085529252808320805460ff1916905551339287917ff6391f5c32d9c69d2a47ea670b442974b53935d1edc7fd64eb21e047a839171b9190a46001915050610f6a565b5f61117f836001600160a01b038416613cb9565b5f54600160a81b900460ff1661115f57604051638dfc202b60e01b815260040160405180910390fd5b61334382613d93565b6040516001600160a01b038316907fbc7cd75a20ee27fd9adebab32041f755214dbc6bffa90cc0225b39da2e5c2d3b905f90a2805115613387576112308282613df6565b61127e613e5f565b5f546133a6906001600160a01b0316853085613e7e565b6133b08382613eb7565b826001600160a01b0316846001600160a01b03167fdcbc1c05240f31ff3ad067ef1ee35ce4997762752e3a095284754544f4c709d784846040516133fe929190918252602082015260400190565b60405180910390a350505050565b6040805160028082526060820183525f928392919060208301908036833701905050905085815f8151811061344357613443614800565b60200260200101906001600160a01b031690816001600160a01b031681525050848160018151811061347757613477614800565b6001600160a01b039283166020918202929092010152600454166338ed1739858584306134a542601e6146fe565b6040518663ffffffff1660e01b81526004016134c5959493929190614814565b5f604051808303815f875af192505050801561350257506040513d5f823e601f3d908101601f191682016040526134ff919081019061484f565b60015b6135ae5761350e614ab7565b806308c379a0036135645750613522614acf565b8061352d5750613566565b8060405160200161353e9190614b60565b60408051601f198184030181529082905262461bcd60e51b82526113b09160040161419c565b505b60405162461bcd60e51b815260206004820152601a60248201527f53776170206661696c65643a20556e6b6e6f776e206572726f7200000000000060448201526064016113b0565b7f31d57bfeeaa90650f14839f1a640fa5c8caf05962c67499f9021645764d7474e85826001815181106135e3576135e3614800565b60200260200101516040516136279291909182526020820152606060408201819052600d908201526c14ddd85c08195e1958dd5d1959609a1b608082015260a00190565b60405180910390a18060018151811061364257613642614800565b6020026020010151925050506114dd565b60408051838152602081018390525f818301819052606082015290517f1ba48d6b8d7cf4542bae56d0b741d2df28ec5c648749f3fe99494432af7baccd9181900360800190a1600454600754600854600a546001600160a01b039384169363e8e33700938116928116911682146136ca57846136cc565b855b600a546007546001600160a01b039081169116146136ea57866136ec565b855b5f80306136fa42601e6146fe565b60405160e08a901b6001600160e01b03191681526001600160a01b039889166004820152968816602488015260448701959095526064860193909352608485019190915260a484015290921660c482015260e4810191909152610104016060604051808303815f875af1925050508015613791575060408051601f3d908101601f1916820190925261378e91810190614b81565b60015b6138235761379d614ab7565b806308c379a0036137cd57506137b1614acf565b806137bc57506137cf565b8060405160200161353e9190614bac565b505b60405162461bcd60e51b815260206004820152602360248201527f416464206c6971756964697479206661696c65643a20556e6b6e6f776e2065726044820152623937b960e91b60648201526084016113b0565b6040805186815260208101869052908101849052606081018390527f1ba48d6b8d7cf4542bae56d0b741d2df28ec5c648749f3fe99494432af7baccd9060800160405180910390a15050505050565b5f54600160a81b900460ff161561115f5760405163d93c066560e01b815260040160405180910390fd5b6001600160a01b0382166138c557604051634b637e8f60e11b81525f60048201526024016113b0565b61127e825f83613140565b6040516001600160a01b0383811660248301526044820183905261123091859182169063a9059cbb906064015b604051602081830303815290604052915060e01b6020820180516001600160e01b038381831617835250505050613eeb565b5f825f01828154811061394457613944614800565b905f5260205f200154905092915050565b6060815f018054806020026020016040519081016040528092919081815260200182805480156139a257602002820191905f5260205f20905b81548152602001906001019080831161398e575b50505050509050919050565b6139b6613f57565b61115f57604051631afcd79f60e31b815260040160405180910390fd5b5f80516020614e148339815191525f6139eb84611186565b5f85815260208490526040808220600101869055519192508491839187917fbd79b86ffe0ab8e8776151514217cd7cacd52c909f66475c3af44e129f0b00ff9190a450505050565b613a3b6139ae565b5f80613a4685613f70565b9150915081613a56576012613a58565b805b5f80546001600160a81b031916600160a01b60ff93909316929092026001600160a01b031916919091176001600160a01b0387161790556131398484614046565b604080516001600160a01b038416602482015260448082018490528251808303909101815260649091019091526020810180516001600160e01b031663095ea7b360e01b179052613aea8482614058565b6111da576040516001600160a01b0384811660248301525f6044830152613b1e91869182169063095ea7b3906064016138fd565b6111da8482613eeb565b5f805f1983850993909202808410938190039390930393915050565b634e487b715f52806020526024601cfd5b5f80516020614d548339815191526001600160a01b038416613b8f5781816002015f828254613b8491906146fe565b90915550613bec9050565b6001600160a01b0384165f9081526020829052604090205482811015613bce5784818460405163391434e360e21b81526004016113b093929190614762565b6001600160a01b0385165f9081526020839052604090209083900390555b6001600160a01b038316613c0a576002810180548390039055613c28565b6001600160a01b0383165f9081526020829052604090208054830190555b826001600160a01b0316846001600160a01b03167fddf252ad1be2c89b69c2b068fc378daa952ba7f163c4a11628f55a4df523b3ef846040516133fe91815260200190565b5f818152600183016020526040812054613cb257508154600181810184555f848152602080822090930184905584548482528286019093526040902091909155610f6a565b505f610f6a565b5f8181526001830160205260408120548015613260575f613cdb6001836148f9565b85549091505f90613cee906001906148f9565b9050808214613d4d575f865f018281548110613d0c57613d0c614800565b905f5260205f200154905080875f018481548110613d2c57613d2c614800565b5f918252602080832090910192909255918252600188019052604090208390555b8554869080613d5e57613d5e614bd6565b600190038181905f5260205f20015f90559055856001015f8681526020019081526020015f205f905560019350505050610f6a565b806001600160a01b03163b5f03613dc857604051634c9c8ce360e01b81526001600160a01b03821660048201526024016113b0565b5f80516020614dd483398151915280546001600160a01b0319166001600160a01b0392909216919091179055565b60605f80846001600160a01b031684604051613e129190614bea565b5f60405180830381855af49150503d805f8114613e4a576040519150601f19603f3d011682016040523d82523d5f602084013e613e4f565b606091505b5091509150611fc98583836140a1565b341561115f5760405163b398979f60e01b815260040160405180910390fd5b6040516001600160a01b0384811660248301528381166044830152606482018390526111da9186918216906323b872dd906084016138fd565b6001600160a01b038216613ee05760405163ec442f0560e01b81525f60048201526024016113b0565b61127e5f8383613140565b5f8060205f8451602086015f885af180613f0a576040513d5f823e3d81fd5b50505f513d91508115613f21578060011415613f2e565b6001600160a01b0384163b155b156111da57604051635274afe760e01b81526001600160a01b03851660048201526024016113b0565b5f613f60612d89565b54600160401b900460ff16919050565b60408051600481526024810182526020810180516001600160e01b031663313ce56760e01b17905290515f918291829182916001600160a01b03871691613fb691614bea565b5f60405180830381855afa9150503d805f8114613fee576040519150601f19603f3d011682016040523d82523d5f602084013e613ff3565b606091505b509150915081801561400757506020815110155b1561403a575f818060200190518101906140219190614671565b905060ff8111614038576001969095509350505050565b505b505f9485945092505050565b61404e6139ae565b61127e82826140fd565b5f805f8060205f8651602088015f8a5af192503d91505f519050828015614097575081156140895780600114614097565b5f866001600160a01b03163b115b9695505050505050565b6060826140b6576140b18261414d565b61117f565b81511580156140cd57506001600160a01b0384163b155b156140f657604051639996b31560e01b81526001600160a01b03851660048201526024016113b0565b508061117f565b6141056139ae565b5f80516020614d548339815191527f52c63247e1f47db19d5ce0460030c497f067ca4cebf71ba98eeadabe20bace0361413e8482614c39565b50600481016111da8382614c39565b80511561415c57805160208201fd5b60405163d6bda27560e01b815260040160405180910390fd5b5f60208284031215614185575f80fd5b81356001600160e01b03198116811461117f575f80fd5b602081525f82518060208401528060208501604085015e5f604082850101526040601f19601f83011684010191505092915050565b5f602082840312156141e1575f80fd5b5035919050565b6001600160a01b038116811461227f575f80fd5b8035614207816141e8565b919050565b5f806040838503121561421d575f80fd5b8235614228816141e8565b946020939093013593505050565b5f805f60608486031215614248575f80fd5b8335614253816141e8565b92506020840135614263816141e8565b929592945050506040919091013590565b5f60208284031215614284575f80fd5b813561117f816141e8565b5f80604083850312156142a0575f80fd5b8235915060208301356142b2816141e8565b809150509250929050565b634e487b7160e01b5f52604160045260245ffd5b601f8201601f191681016001600160401b03811182821017156142f6576142f66142bd565b6040525050565b6040516112a5610160826142d1565b5f82601f83011261431b575f80fd5b8135602083015f806001600160401b0384111561433a5761433a6142bd565b50604051601f8401601f19166020019061435482826142d1565b809250848152878585011115614368575f80fd5b848460208301375f60208683010152809550505050505092915050565b5f8060408385031215614396575f80fd5b82356143a1816141e8565b915060208301356001600160401b038111156143bb575f80fd5b6143c78582860161430c565b9150509250929050565b5f80604083850312156143e2575f80fd5b82356143ed816141e8565b915060208301356142b2816141e8565b5f805f6060848603121561440f575f80fd5b833592506020840135614421816141e8565b915060408401356001600160401b0381111561443b575f80fd5b6144478682870161430c565b9150509250925092565b5f805f8060808587031215614464575f80fd5b843593506020850135614476816141e8565b92506040850135614486816141e8565b915060608501356001600160401b038111156144a0575f80fd5b6144ac8782880161430c565b91505092959194509250565b5f80604083850312156144c9575f80fd5b50508035926020909101359150565b5f8151808452602084019350602083015f5b828110156145115781516001600160a01b03168652602095860195909101906001016144ea565b5093949350505050565b602081525f61117f60208301846144d8565b5f6020828403121561453d575f80fd5b81356001600160401b03811115614552575f80fd5b82016101608185031215614564575f80fd5b61456c6142fd565b614575826141fc565b8152614583602083016141fc565b6020820152614594604083016141fc565b60408201526145a5606083016141fc565b60608201526145b6608083016141fc565b60808201526145c760a083016141fc565b60a08201526145d860c083016141fc565b60c082015260e0828101359082015261010080830135908201526101208201356001600160401b0381111561460b575f80fd5b6146178682850161430c565b610120830152506101408201356001600160401b03811115614637575f80fd5b6146438682850161430c565b61014083015250949350505050565b5f60208284031215614662575f80fd5b8135801515811461117f575f80fd5b5f60208284031215614681575f80fd5b5051919050565b80516001600160701b0381168114614207575f80fd5b5f805f606084860312156146b0575f80fd5b6146b984614688565b92506146c760208501614688565b9150604084015163ffffffff811681146146df575f80fd5b809150509250925092565b634e487b7160e01b5f52601160045260245ffd5b80820180821115610f6a57610f6a6146ea565b600181811c9082168061472557607f821691505b60208210810361474357634e487b7160e01b5f52602260045260245ffd5b50919050565b60ff8181168382160190811115610f6a57610f6a6146ea565b6001600160a01b039390931683526020830191909152604082015260600190565b5f60208284031215614793575f80fd5b815161117f816141e8565b6001600160a01b039788168152958716602087015260408601949094526060850192909252608084015290921660a082015260c081019190915260e00190565b5f80604083850312156147ef575f80fd5b505080516020909101519092909150565b634e487b7160e01b5f52603260045260245ffd5b85815284602082015260a060408201525f61483260a08301866144d8565b6001600160a01b0394909416606083015250608001529392505050565b5f6020828403121561485f575f80fd5b81516001600160401b03811115614874575f80fd5b8201601f81018413614884575f80fd5b80516001600160401b0381111561489d5761489d6142bd565b8060051b6040516148b160208301826142d1565b9182526020818401810192908101878411156148cb575f80fd5b6020850194505b838510156148ee578451808252602095860195909350016148d2565b509695505050505050565b81810381811115610f6a57610f6a6146ea565b634e487b7160e01b5f52601260045260245ffd5b828152604060208201525f6114dd60408301846144d8565b6001815b600184111561497357808504811115614957576149576146ea565b600184161561496557908102905b60019390931c92800261493c565b935093915050565b5f8261498957506001610f6a565b8161499557505f610f6a565b81600181146149ab57600281146149b5576149d1565b6001915050610f6a565b60ff8411156149c6576149c66146ea565b50506001821b610f6a565b5060208310610133831016604e8410600b84101617156149f4575081810a610f6a565b614a005f198484614938565b805f1904821115614a1357614a136146ea565b029392505050565b5f61117f60ff84168361497b565b8082018281125f831280158216821582161715614a4857614a486146ea565b505092915050565b8181035f831280158383131683831282161715613269576132696146ea565b5f82614a7d57614a7d61490c565b500490565b634e487b7160e01b5f52602160045260245ffd5b5f60ff831680614aa857614aa861490c565b8060ff84160691505092915050565b5f60033d11156112a55760045f803e505f5160e01c90565b5f60443d1015614adc5790565b6040513d600319016004823e80513d60248201116001600160401b0382111715614b0557505090565b80820180516001600160401b03811115614b20575050505090565b3d8401600319018282016020011115614b3a575050505090565b6113db602082850101856142d1565b5f81518060208401855e5f93019283525090919050565b6c029bbb0b8103330b4b632b21d1609d1b81525f61117f600d830184614b49565b5f805f60608486031215614b93575f80fd5b5050815160208301516040909301519094929350919050565b75020b232103634b8bab4b234ba3c903330b4b632b21d160551b81525f61117f6016830184614b49565b634e487b7160e01b5f52603160045260245ffd5b5f61117f8284614b49565b601f82111561123057805f5260205f20601f840160051c81016020851015614c1a5750805b601f840160051c820191505b81811015613139575f8155600101614c26565b81516001600160401b03811115614c5257614c526142bd565b614c6681614c608454614711565b84614bf5565b6020601f821160018114614c98575f8315614c815750848201515b5f19600385901b1c1916600184901b178455613139565b5f84815260208120601f198516915b82811015614cc75787850151825560209485019460019092019101614ca7565b5084821015614ce457868401515f19600387901b60f8161c191681555b50505050600190811b0190555056fe6c8d7f768a6bb4aafe85e8a2f5a9680355239c7e14646ed62b044e39de154512c1f6fe24621ce81ec5827caf0253cadb74709b061630e6b55e82371705932000c171260023d22a25a00a2789664c9334017843b831138c8ef03cc8897e5873d752c63247e1f47db19d5ce0460030c497f067ca4cebf71ba98eeadabe20bace00f23ec0bb4210edd5cba85afd05127efcd2fc6a781bfed49188da1081670b22d852c63247e1f47db19d5ce0460030c497f067ca4cebf71ba98eeadabe20bace0211d2b5acff84277b3c72c03a8b47b9085f12f5b537546468ddf78fd2906e661d360894a13ba1a3210667c828492db98dca3e2076cc3735a920a3ca505d382bbc46a52cf33029de9f84853745a87af28464c80bf0346df1b32e205fc73319f62202dd7bc7dec4dceedda775e58dd541e08a116c6c53815c0bd028192f7b626800a2646970667358221220d5a65d56f08ccd3852e62bf83a3300bdd0bce3497010b481043e61732e58792364736f6c634300081a0033",
  "linkReferences": {},
  "deployedLinkReferences": {}
}